{
  "_format": "hh-sol-artifact-1",
  "contractName": "Idle",
  "sourceName": "contracts/Idle.sol",
  "abi": [
    {
      "inputs": [],
      "stateMutability": "nonpayable",
      "type": "constructor"
    },
    {
      "anonymous": false,
      "inputs": [
        {
          "indexed": true,
          "internalType": "address",
          "name": "owner",
          "type": "address"
        },
        {
          "indexed": true,
          "internalType": "address",
          "name": "spender",
          "type": "address"
        },
        {
          "indexed": false,
          "internalType": "uint256",
          "name": "value",
          "type": "uint256"
        }
      ],
      "name": "Approval",
      "type": "event"
    },
    {
      "anonymous": false,
      "inputs": [
        {
          "indexed": true,
          "internalType": "address",
          "name": "previousOwner",
          "type": "address"
        },
        {
          "indexed": true,
          "internalType": "address",
          "name": "newOwner",
          "type": "address"
        }
      ],
      "name": "OwnershipTransferred",
      "type": "event"
    },
    {
      "anonymous": false,
      "inputs": [
        {
          "indexed": true,
          "internalType": "address",
          "name": "from",
          "type": "address"
        },
        {
          "indexed": true,
          "internalType": "address",
          "name": "to",
          "type": "address"
        },
        {
          "indexed": false,
          "internalType": "uint256",
          "name": "value",
          "type": "uint256"
        }
      ],
      "name": "Transfer",
      "type": "event"
    },
    {
      "inputs": [
        {
          "internalType": "address",
          "name": "",
          "type": "address"
        }
      ],
      "name": "Users",
      "outputs": [
        {
          "internalType": "uint256",
          "name": "mult",
          "type": "uint256"
        },
        {
          "internalType": "uint256",
          "name": "rate",
          "type": "uint256"
        },
        {
          "internalType": "uint256",
          "name": "time",
          "type": "uint256"
        },
        {
          "internalType": "uint256",
          "name": "baseMult",
          "type": "uint256"
        },
        {
          "internalType": "uint256",
          "name": "pastDue",
          "type": "uint256"
        },
        {
          "internalType": "uint256",
          "name": "debt",
          "type": "uint256"
        },
        {
          "internalType": "uint256",
          "name": "offChain",
          "type": "uint256"
        },
        {
          "internalType": "uint256",
          "name": "resets",
          "type": "uint256"
        }
      ],
      "stateMutability": "view",
      "type": "function"
    },
    {
      "inputs": [
        {
          "internalType": "address",
          "name": "owner",
          "type": "address"
        },
        {
          "internalType": "address",
          "name": "spender",
          "type": "address"
        }
      ],
      "name": "allowance",
      "outputs": [
        {
          "internalType": "uint256",
          "name": "",
          "type": "uint256"
        }
      ],
      "stateMutability": "view",
      "type": "function"
    },
    {
      "inputs": [
        {
          "internalType": "address",
          "name": "spender",
          "type": "address"
        },
        {
          "internalType": "uint256",
          "name": "amount",
          "type": "uint256"
        }
      ],
      "name": "approve",
      "outputs": [
        {
          "internalType": "bool",
          "name": "",
          "type": "bool"
        }
      ],
      "stateMutability": "nonpayable",
      "type": "function"
    },
    {
      "inputs": [
        {
          "internalType": "address",
          "name": "account",
          "type": "address"
        }
      ],
      "name": "balanceOf",
      "outputs": [
        {
          "internalType": "uint256",
          "name": "",
          "type": "uint256"
        }
      ],
      "stateMutability": "view",
      "type": "function"
    },
    {
      "inputs": [],
      "name": "blockTime",
      "outputs": [
        {
          "internalType": "uint256",
          "name": "",
          "type": "uint256"
        }
      ],
      "stateMutability": "view",
      "type": "function"
    },
    {
      "inputs": [
        {
          "internalType": "uint256",
          "name": "amount",
          "type": "uint256"
        }
      ],
      "name": "burn",
      "outputs": [],
      "stateMutability": "nonpayable",
      "type": "function"
    },
    {
      "inputs": [
        {
          "internalType": "address",
          "name": "account",
          "type": "address"
        },
        {
          "internalType": "uint256",
          "name": "amount",
          "type": "uint256"
        }
      ],
      "name": "burnFrom",
      "outputs": [],
      "stateMutability": "nonpayable",
      "type": "function"
    },
    {
      "inputs": [],
      "name": "decimals",
      "outputs": [
        {
          "internalType": "uint8",
          "name": "",
          "type": "uint8"
        }
      ],
      "stateMutability": "pure",
      "type": "function"
    },
    {
      "inputs": [
        {
          "internalType": "address",
          "name": "spender",
          "type": "address"
        },
        {
          "internalType": "uint256",
          "name": "subtractedValue",
          "type": "uint256"
        }
      ],
      "name": "decreaseAllowance",
      "outputs": [
        {
          "internalType": "bool",
          "name": "",
          "type": "bool"
        }
      ],
      "stateMutability": "nonpayable",
      "type": "function"
    },
    {
      "inputs": [
        {
          "internalType": "address",
          "name": "spender",
          "type": "address"
        },
        {
          "internalType": "uint256",
          "name": "addedValue",
          "type": "uint256"
        }
      ],
      "name": "increaseAllowance",
      "outputs": [
        {
          "internalType": "bool",
          "name": "",
          "type": "bool"
        }
      ],
      "stateMutability": "nonpayable",
      "type": "function"
    },
    {
      "inputs": [],
      "name": "increaseOffChain",
      "outputs": [],
      "stateMutability": "payable",
      "type": "function"
    },
    {
      "inputs": [],
      "name": "joinGame",
      "outputs": [],
      "stateMutability": "nonpayable",
      "type": "function"
    },
    {
      "inputs": [],
      "name": "maxUpgradeMult",
      "outputs": [
        {
          "internalType": "uint256",
          "name": "times",
          "type": "uint256"
        },
        {
          "internalType": "uint256",
          "name": "pastCost",
          "type": "uint256"
        }
      ],
      "stateMutability": "view",
      "type": "function"
    },
    {
      "inputs": [],
      "name": "maxUpgradeRate",
      "outputs": [
        {
          "internalType": "uint256",
          "name": "times",
          "type": "uint256"
        },
        {
          "internalType": "uint256",
          "name": "pastCost",
          "type": "uint256"
        }
      ],
      "stateMutability": "view",
      "type": "function"
    },
    {
      "inputs": [],
      "name": "mintCoin",
      "outputs": [],
      "stateMutability": "nonpayable",
      "type": "function"
    },
    {
      "inputs": [],
      "name": "mintableCoin",
      "outputs": [
        {
          "internalType": "uint256",
          "name": "",
          "type": "uint256"
        }
      ],
      "stateMutability": "view",
      "type": "function"
    },
    {
      "inputs": [],
      "name": "name",
      "outputs": [
        {
          "internalType": "string",
          "name": "",
          "type": "string"
        }
      ],
      "stateMutability": "view",
      "type": "function"
    },
    {
      "inputs": [],
      "name": "owner",
      "outputs": [
        {
          "internalType": "address",
          "name": "",
          "type": "address"
        }
      ],
      "stateMutability": "view",
      "type": "function"
    },
    {
      "inputs": [],
      "name": "payForProportionalCoin",
      "outputs": [],
      "stateMutability": "payable",
      "type": "function"
    },
    {
      "inputs": [],
      "name": "payToUpgradeMult",
      "outputs": [],
      "stateMutability": "payable",
      "type": "function"
    },
    {
      "inputs": [],
      "name": "renounceOwnership",
      "outputs": [],
      "stateMutability": "nonpayable",
      "type": "function"
    },
    {
      "inputs": [],
      "name": "reset",
      "outputs": [],
      "stateMutability": "nonpayable",
      "type": "function"
    },
    {
      "inputs": [],
      "name": "symbol",
      "outputs": [
        {
          "internalType": "string",
          "name": "",
          "type": "string"
        }
      ],
      "stateMutability": "view",
      "type": "function"
    },
    {
      "inputs": [],
      "name": "totalSupply",
      "outputs": [
        {
          "internalType": "uint256",
          "name": "",
          "type": "uint256"
        }
      ],
      "stateMutability": "view",
      "type": "function"
    },
    {
      "inputs": [
        {
          "internalType": "address",
          "name": "to",
          "type": "address"
        },
        {
          "internalType": "uint256",
          "name": "amount",
          "type": "uint256"
        }
      ],
      "name": "transfer",
      "outputs": [
        {
          "internalType": "bool",
          "name": "",
          "type": "bool"
        }
      ],
      "stateMutability": "nonpayable",
      "type": "function"
    },
    {
      "inputs": [
        {
          "internalType": "address",
          "name": "from",
          "type": "address"
        },
        {
          "internalType": "address",
          "name": "to",
          "type": "address"
        },
        {
          "internalType": "uint256",
          "name": "amount",
          "type": "uint256"
        }
      ],
      "name": "transferFrom",
      "outputs": [
        {
          "internalType": "bool",
          "name": "",
          "type": "bool"
        }
      ],
      "stateMutability": "nonpayable",
      "type": "function"
    },
    {
      "inputs": [
        {
          "internalType": "address",
          "name": "newOwner",
          "type": "address"
        }
      ],
      "name": "transferOwnership",
      "outputs": [],
      "stateMutability": "nonpayable",
      "type": "function"
    },
    {
      "inputs": [],
      "name": "upgradeMult",
      "outputs": [],
      "stateMutability": "nonpayable",
      "type": "function"
    },
    {
      "inputs": [],
      "name": "upgradeMultCost",
      "outputs": [
        {
          "internalType": "uint256",
          "name": "",
          "type": "uint256"
        }
      ],
      "stateMutability": "view",
      "type": "function"
    },
    {
      "inputs": [],
      "name": "upgradeMultMax",
      "outputs": [],
      "stateMutability": "nonpayable",
      "type": "function"
    },
    {
      "inputs": [],
      "name": "upgradeRate",
      "outputs": [],
      "stateMutability": "nonpayable",
      "type": "function"
    },
    {
      "inputs": [],
      "name": "upgradeRateCost",
      "outputs": [
        {
          "internalType": "uint256",
          "name": "",
          "type": "uint256"
        }
      ],
      "stateMutability": "view",
      "type": "function"
    },
    {
      "inputs": [],
      "name": "upgradeRateMax",
      "outputs": [],
      "stateMutability": "nonpayable",
      "type": "function"
    },
    {
      "inputs": [],
      "name": "withdrawEth",
      "outputs": [],
      "stateMutability": "nonpayable",
      "type": "function"
    }
  ],
  "bytecode": "0x6080604052737162600f53e92c036974b6deedb82c2aa876f46d600760006101000a81548173ffffffffffffffffffffffffffffffffffffffff021916908373ffffffffffffffffffffffffffffffffffffffff16021790555030600860006101000a81548173ffffffffffffffffffffffffffffffffffffffff021916908373ffffffffffffffffffffffffffffffffffffffff160217905550348015620000a757600080fd5b506040518060400160405280600681526020017f436f6f6b696500000000000000000000000000000000000000000000000000008152506040518060400160405280600681526020017f434f4f4b4945000000000000000000000000000000000000000000000000000081525081600390805190602001906200012c9291906200027d565b508060049080519060200190620001459291906200027d565b505050620001686200015c620001af60201b60201c565b620001b760201b60201c565b33600660006101000a81548173ffffffffffffffffffffffffffffffffffffffff021916908373ffffffffffffffffffffffffffffffffffffffff16021790555062000392565b600033905090565b6000600560009054906101000a900473ffffffffffffffffffffffffffffffffffffffff16905081600560006101000a81548173ffffffffffffffffffffffffffffffffffffffff021916908373ffffffffffffffffffffffffffffffffffffffff1602179055508173ffffffffffffffffffffffffffffffffffffffff168173ffffffffffffffffffffffffffffffffffffffff167f8be0079c531659141344cd1fd0a4f28419497f9722a3daafe3b4186f6b6457e060405160405180910390a35050565b8280546200028b906200032d565b90600052602060002090601f016020900481019282620002af5760008555620002fb565b82601f10620002ca57805160ff1916838001178555620002fb565b82800160010185558215620002fb579182015b82811115620002fa578251825591602001919060010190620002dd565b5b5090506200030a91906200030e565b5090565b5b80821115620003295760008160009055506001016200030f565b5090565b600060028204905060018216806200034657607f821691505b602082108114156200035d576200035c62000363565b5b50919050565b7f4e487b7100000000000000000000000000000000000000000000000000000000600052602260045260246000fd5b614bc880620003a26000396000f3fe6080604052600436106101f95760003560e01c806375fd38a81161010d578063a457c2d7116100a0578063b8396c151161006f578063b8396c1514610692578063d4f77b1c1461069c578063d826f88f146106b3578063dd62ed3e146106ca578063f2fde38b14610707576101f9565b8063a457c2d7146105e3578063a9059cbb14610620578063af33f1be1461065d578063b07c060014610688576101f9565b80638da5cb5b116100dc5780638da5cb5b1461053257806395d89b411461055d57806399b956a014610588578063a0ef91df146105cc576101f9565b806375fd38a8146104b057806379cc6790146104c757806381419281146104f05780638458de281461051b576101f9565b8063313ce567116101905780636b7b7b551161015f5780636b7b7b55146104025780636fdfe4561461041957806370a0823114610430578063715018a61461046d57806372b2a97214610484576101f9565b8063313ce56714610346578063395093511461037157806342966c68146103ae57806348b15166146103d7576101f9565b8063217e3ca0116101cc578063217e3ca0146102a857806323b872dd146102d35780632b933ec41461031057806330cdf4d11461031a576101f9565b806306fdde03146101fe578063095ea7b31461022957806318160ddd146102665780631f104bf414610291575b600080fd5b34801561020a57600080fd5b50610213610730565b6040516102209190613e92565b60405180910390f35b34801561023557600080fd5b50610250600480360381019061024b9190613ae9565b6107c2565b60405161025d9190613e77565b60405180910390f35b34801561027257600080fd5b5061027b6107e5565b6040516102889190614114565b60405180910390f35b34801561029d57600080fd5b506102a66107ef565b005b3480156102b457600080fd5b506102bd610d89565b6040516102ca9190614114565b60405180910390f35b3480156102df57600080fd5b506102fa60048036038101906102f59190613a9a565b610e63565b6040516103079190613e77565b60405180910390f35b610318610e92565b005b34801561032657600080fd5b5061032f610f84565b60405161033d92919061412f565b60405180910390f35b34801561035257600080fd5b5061035b611167565b60405161036891906141d6565b60405180910390f35b34801561037d57600080fd5b5061039860048036038101906103939190613ae9565b61116c565b6040516103a59190613e77565b60405180910390f35b3480156103ba57600080fd5b506103d560048036038101906103d09190613b25565b6111a3565b005b3480156103e357600080fd5b506103ec6111b7565b6040516103f99190614114565b60405180910390f35b34801561040e57600080fd5b506104176111d1565b005b34801561042557600080fd5b5061042e6116e4565b005b34801561043c57600080fd5b5061045760048036038101906104529190613a35565b611c8d565b6040516104649190614114565b60405180910390f35b34801561047957600080fd5b50610482611cd5565b005b34801561049057600080fd5b50610499611ce9565b6040516104a792919061412f565b60405180910390f35b3480156104bc57600080fd5b506104c5611e7d565b005b3480156104d357600080fd5b506104ee60048036038101906104e99190613ae9565b611f37565b005b3480156104fc57600080fd5b50610505611f57565b6040516105129190614114565b60405180910390f35b34801561052757600080fd5b506105306122e8565b005b34801561053e57600080fd5b506105476123a2565b6040516105549190613e5c565b60405180910390f35b34801561056957600080fd5b506105726123cc565b60405161057f9190613e92565b60405180910390f35b34801561059457600080fd5b506105af60048036038101906105aa9190613a35565b61245e565b6040516105c3989796959493929190614158565b60405180910390f35b3480156105d857600080fd5b506105e16124a6565b005b3480156105ef57600080fd5b5061060a60048036038101906106059190613ae9565b612511565b6040516106179190613e77565b60405180910390f35b34801561062c57600080fd5b5061064760048036038101906106429190613ae9565b612588565b6040516106549190613e77565b60405180910390f35b34801561066957600080fd5b506106726125ab565b60405161067f9190614114565b60405180910390f35b610690612728565b005b61069a612827565b005b3480156106a857600080fd5b506106b1612939565b005b3480156106bf57600080fd5b506106c8612c2c565b005b3480156106d657600080fd5b506106f160048036038101906106ec9190613a5e565b612f9b565b6040516106fe9190614114565b60405180910390f35b34801561071357600080fd5b5061072e60048036038101906107299190613a35565b613022565b005b60606003805461073f90614545565b80601f016020809104026020016040519081016040528092919081815260200182805461076b90614545565b80156107b85780601f1061078d576101008083540402835291602001916107b8565b820191906000526020600020905b81548152906001019060200180831161079b57829003601f168201915b5050505050905090565b6000806107cd6130a6565b90506107da8185856130ae565b600191505092915050565b6000600254905090565b6000600b60003373ffffffffffffffffffffffffffffffffffffffff1673ffffffffffffffffffffffffffffffffffffffff1681526020019081526020016000206002015411610874576040517f08c379a000000000000000000000000000000000000000000000000000000000815260040161086b90614074565b60405180910390fd5b6000600b60003373ffffffffffffffffffffffffffffffffffffffff1673ffffffffffffffffffffffffffffffffffffffff1681526020019081526020016000206000015460026108c591906142e7565b9050806108d0611f57565b6108d933611c8d565b6108e3919061420d565b1015610924576040517f08c379a000000000000000000000000000000000000000000000000000000000815260040161091b90614034565b60405180910390fd5b8061092e33611c8d565b106109415761093c816111a3565b6109c2565b61094a33611c8d565b81610955919061445f565b905061096861096333611c8d565b6111a3565b80600b60003373ffffffffffffffffffffffffffffffffffffffff1673ffffffffffffffffffffffffffffffffffffffff16815260200190815260200160002060050160008282546109ba919061420d565b925050819055505b6000600b60003373ffffffffffffffffffffffffffffffffffffffff1673ffffffffffffffffffffffffffffffffffffffff16815260200190815260200160002060010154600b60003373ffffffffffffffffffffffffffffffffffffffff1673ffffffffffffffffffffffffffffffffffffffff16815260200190815260200160002060020154610a526111b7565b610a5c919061445f565b610a669190614263565b9050600b60003373ffffffffffffffffffffffffffffffffffffffff1673ffffffffffffffffffffffffffffffffffffffff1681526020019081526020016000206001015481610ab69190614405565b600b60003373ffffffffffffffffffffffffffffffffffffffff1673ffffffffffffffffffffffffffffffffffffffff1681526020019081526020016000206002016000828254610b07919061420d565b92505081905550600b60003373ffffffffffffffffffffffffffffffffffffffff1673ffffffffffffffffffffffffffffffffffffffff16815260200190815260200160002060010154600b60003373ffffffffffffffffffffffffffffffffffffffff1673ffffffffffffffffffffffffffffffffffffffff16815260200190815260200160002060060154610b9e9190614263565b811115610c3857600b60003373ffffffffffffffffffffffffffffffffffffffff1673ffffffffffffffffffffffffffffffffffffffff16815260200190815260200160002060010154600b60003373ffffffffffffffffffffffffffffffffffffffff1673ffffffffffffffffffffffffffffffffffffffff16815260200190815260200160002060060154610c359190614263565b90505b600b60003373ffffffffffffffffffffffffffffffffffffffff1673ffffffffffffffffffffffffffffffffffffffff16815260200190815260200160002060030154600b60003373ffffffffffffffffffffffffffffffffffffffff1673ffffffffffffffffffffffffffffffffffffffff1681526020019081526020016000206000015482610cc99190614405565b610cd39190614405565b600b60003373ffffffffffffffffffffffffffffffffffffffff1673ffffffffffffffffffffffffffffffffffffffff1681526020019081526020016000206004016000828254610d24919061420d565b925050819055506002600b60003373ffffffffffffffffffffffffffffffffffffffff1673ffffffffffffffffffffffffffffffffffffffff1681526020019081526020016000206000016000828254610d7e9190614405565b925050819055505050565b600080600b60003373ffffffffffffffffffffffffffffffffffffffff1673ffffffffffffffffffffffffffffffffffffffff1681526020019081526020016000206002015411610e0f576040517f08c379a0000000000000000000000000000000000000000000000000000000008152600401610e0690614074565b60405180910390fd5b600b60003373ffffffffffffffffffffffffffffffffffffffff1673ffffffffffffffffffffffffffffffffffffffff168152602001908152602001600020600001546002610e5e91906142e7565b905090565b600080610e6e6130a6565b9050610e7b858285613279565b610e86858585613305565b60019150509392505050565b6000600b60003373ffffffffffffffffffffffffffffffffffffffff1673ffffffffffffffffffffffffffffffffffffffff1681526020019081526020016000206002015411610f17576040517f08c379a0000000000000000000000000000000000000000000000000000000008152600401610f0e90614074565b60405180910390fd5b66038d7ea4c6800034610f2a9190614263565b600b60003373ffffffffffffffffffffffffffffffffffffffff1673ffffffffffffffffffffffffffffffffffffffff1681526020019081526020016000206003016000828254610f7b919061420d565b92505081905550565b6000806000600b60003373ffffffffffffffffffffffffffffffffffffffff1673ffffffffffffffffffffffffffffffffffffffff168152602001908152602001600020600201541161100c576040517f08c379a000000000000000000000000000000000000000000000000000000000815260040161100390614074565b60405180910390fd5b6000600b60003373ffffffffffffffffffffffffffffffffffffffff1673ffffffffffffffffffffffffffffffffffffffff16815260200190815260200160002060010154662386f26fc10000603c6110659190614405565b61106f9190614263565b600261107b91906142e7565b90506000600b60003373ffffffffffffffffffffffffffffffffffffffff1673ffffffffffffffffffffffffffffffffffffffff1681526020019081526020016000206001015490505b82826110d1919061420d565b6110d9611f57565b6110e233611c8d565b6110ec919061420d565b106111615781836110fd919061420d565b9250600281111561111c576002816111159190614263565b9050611121565b611161565b80662386f26fc10000603c6111369190614405565b6111409190614263565b600261114c91906142e7565b9150838061115990614577565b9450506110c5565b50509091565b600090565b6000806111776130a6565b90506111988185856111898589612f9b565b611193919061420d565b6130ae565b600191505092915050565b6111b46111ae6130a6565b82613586565b50565b6000662386f26fc10000426111cc9190614405565b905090565b6000600b60003373ffffffffffffffffffffffffffffffffffffffff1673ffffffffffffffffffffffffffffffffffffffff1681526020019081526020016000206002015411611256576040517f08c379a000000000000000000000000000000000000000000000000000000000815260040161124d90614074565b60405180910390fd5b6002600b60003373ffffffffffffffffffffffffffffffffffffffff1673ffffffffffffffffffffffffffffffffffffffff16815260200190815260200160002060010154116112db576040517f08c379a00000000000000000000000000000000000000000000000000000000081526004016112d290613ed4565b60405180910390fd5b6000600b60003373ffffffffffffffffffffffffffffffffffffffff1673ffffffffffffffffffffffffffffffffffffffff16815260200190815260200160002060010154662386f26fc10000603c6113349190614405565b61133e9190614263565b600261134a91906142e7565b905080611355611f57565b61135e33611c8d565b611368919061420d565b10156113a9576040517f08c379a00000000000000000000000000000000000000000000000000000000081526004016113a090614034565b60405180910390fd5b806113b333611c8d565b106113c6576113c1816111a3565b611447565b6113cf33611c8d565b816113da919061445f565b90506113ed6113e833611c8d565b6111a3565b80600b60003373ffffffffffffffffffffffffffffffffffffffff1673ffffffffffffffffffffffffffffffffffffffff168152602001908152602001600020600501600082825461143f919061420d565b925050819055505b6000600b60003373ffffffffffffffffffffffffffffffffffffffff1673ffffffffffffffffffffffffffffffffffffffff16815260200190815260200160002060010154600b60003373ffffffffffffffffffffffffffffffffffffffff1673ffffffffffffffffffffffffffffffffffffffff168152602001908152602001600020600201546114d76111b7565b6114e1919061445f565b6114eb9190614263565b9050600b60003373ffffffffffffffffffffffffffffffffffffffff1673ffffffffffffffffffffffffffffffffffffffff16815260200190815260200160002060030154600b60003373ffffffffffffffffffffffffffffffffffffffff1673ffffffffffffffffffffffffffffffffffffffff168152602001908152602001600020600001548261157e9190614405565b6115889190614405565b600b60003373ffffffffffffffffffffffffffffffffffffffff1673ffffffffffffffffffffffffffffffffffffffff16815260200190815260200160002060040160008282546115d9919061420d565b92505081905550600b60003373ffffffffffffffffffffffffffffffffffffffff1673ffffffffffffffffffffffffffffffffffffffff168152602001908152602001600020600101548161162e9190614405565b600b60003373ffffffffffffffffffffffffffffffffffffffff1673ffffffffffffffffffffffffffffffffffffffff168152602001908152602001600020600201600082825461167f919061420d565b925050819055506002600b60003373ffffffffffffffffffffffffffffffffffffffff1673ffffffffffffffffffffffffffffffffffffffff16815260200190815260200160002060010160008282546116d99190614263565b925050819055505050565b6000600b60003373ffffffffffffffffffffffffffffffffffffffff1673ffffffffffffffffffffffffffffffffffffffff1681526020019081526020016000206002015411611769576040517f08c379a000000000000000000000000000000000000000000000000000000000815260040161176090614074565b60405180910390fd5b6000600b60003373ffffffffffffffffffffffffffffffffffffffff1673ffffffffffffffffffffffffffffffffffffffff16815260200190815260200160002060010154600b60003373ffffffffffffffffffffffffffffffffffffffff1673ffffffffffffffffffffffffffffffffffffffff168152602001908152602001600020600201546117f96111b7565b611803919061445f565b61180d9190614263565b90506000600b60003373ffffffffffffffffffffffffffffffffffffffff1673ffffffffffffffffffffffffffffffffffffffff16815260200190815260200160002060050154600b60003373ffffffffffffffffffffffffffffffffffffffff1673ffffffffffffffffffffffffffffffffffffffff16815260200190815260200160002060040154836118a2919061420d565b6118ac919061445f565b116118ec576040517f08c379a00000000000000000000000000000000000000000000000000000000081526004016118e390613fd4565b60405180910390fd5b600b60003373ffffffffffffffffffffffffffffffffffffffff1673ffffffffffffffffffffffffffffffffffffffff168152602001908152602001600020600101548161193a9190614405565b600b60003373ffffffffffffffffffffffffffffffffffffffff1673ffffffffffffffffffffffffffffffffffffffff168152602001908152602001600020600201600082825461198b919061420d565b92505081905550600b60003373ffffffffffffffffffffffffffffffffffffffff1673ffffffffffffffffffffffffffffffffffffffff16815260200190815260200160002060010154600b60003373ffffffffffffffffffffffffffffffffffffffff1673ffffffffffffffffffffffffffffffffffffffff16815260200190815260200160002060060154611a229190614263565b811115611abc57600b60003373ffffffffffffffffffffffffffffffffffffffff1673ffffffffffffffffffffffffffffffffffffffff16815260200190815260200160002060010154600b60003373ffffffffffffffffffffffffffffffffffffffff1673ffffffffffffffffffffffffffffffffffffffff16815260200190815260200160002060060154611ab99190614263565b90505b611bfa33600b60003373ffffffffffffffffffffffffffffffffffffffff1673ffffffffffffffffffffffffffffffffffffffff16815260200190815260200160002060050154600b60003373ffffffffffffffffffffffffffffffffffffffff1673ffffffffffffffffffffffffffffffffffffffff16815260200190815260200160002060040154600b60003373ffffffffffffffffffffffffffffffffffffffff1673ffffffffffffffffffffffffffffffffffffffff16815260200190815260200160002060030154600b60003373ffffffffffffffffffffffffffffffffffffffff1673ffffffffffffffffffffffffffffffffffffffff1681526020019081526020016000206000015486611bd79190614405565b611be19190614405565b611beb919061420d565b611bf5919061445f565b61375d565b6000600b60003373ffffffffffffffffffffffffffffffffffffffff1673ffffffffffffffffffffffffffffffffffffffff168152602001908152602001600020600401819055506000600b60003373ffffffffffffffffffffffffffffffffffffffff1673ffffffffffffffffffffffffffffffffffffffff1681526020019081526020016000206005018190555050565b60008060008373ffffffffffffffffffffffffffffffffffffffff1673ffffffffffffffffffffffffffffffffffffffff168152602001908152602001600020549050919050565b611cdd6138bd565b611ce7600061393b565b565b6000806000600b60003373ffffffffffffffffffffffffffffffffffffffff1673ffffffffffffffffffffffffffffffffffffffff1681526020019081526020016000206002015411611d71576040517f08c379a0000000000000000000000000000000000000000000000000000000008152600401611d6890614074565b60405180910390fd5b6000600b60003373ffffffffffffffffffffffffffffffffffffffff1673ffffffffffffffffffffffffffffffffffffffff1681526020019081526020016000206000015490506000600b60003373ffffffffffffffffffffffffffffffffffffffff1673ffffffffffffffffffffffffffffffffffffffff168152602001908152602001600020600001546002611e0991906142e7565b90505b8281611e18919061420d565b611e20611f57565b611e2933611c8d565b611e33919061420d565b10611e77578083611e44919061420d565b9250600282611e539190614405565b9150816002611e6291906142e7565b90508380611e6f90614577565b945050611e0c565b50509091565b6000600b60003373ffffffffffffffffffffffffffffffffffffffff1673ffffffffffffffffffffffffffffffffffffffff1681526020019081526020016000206002015411611f02576040517f08c379a0000000000000000000000000000000000000000000000000000000008152600401611ef990614074565b60405180910390fd5b6000611f0c610f84565b5090505b6000811115611f3457611f216111d1565b8080611f2c9061451b565b915050611f10565b50565b611f4982611f436130a6565b83613279565b611f538282613586565b5050565b600080600b60003373ffffffffffffffffffffffffffffffffffffffff1673ffffffffffffffffffffffffffffffffffffffff1681526020019081526020016000206002015411611fdd576040517f08c379a0000000000000000000000000000000000000000000000000000000008152600401611fd490614074565b60405180910390fd5b6000600b60003373ffffffffffffffffffffffffffffffffffffffff1673ffffffffffffffffffffffffffffffffffffffff16815260200190815260200160002060010154600b60003373ffffffffffffffffffffffffffffffffffffffff1673ffffffffffffffffffffffffffffffffffffffff1681526020019081526020016000206002015461206d6111b7565b612077919061445f565b6120819190614263565b9050600b60003373ffffffffffffffffffffffffffffffffffffffff1673ffffffffffffffffffffffffffffffffffffffff16815260200190815260200160002060010154600b60003373ffffffffffffffffffffffffffffffffffffffff1673ffffffffffffffffffffffffffffffffffffffff168152602001908152602001600020600601546121139190614263565b8111156121ad57600b60003373ffffffffffffffffffffffffffffffffffffffff1673ffffffffffffffffffffffffffffffffffffffff16815260200190815260200160002060010154600b60003373ffffffffffffffffffffffffffffffffffffffff1673ffffffffffffffffffffffffffffffffffffffff168152602001908152602001600020600601546121aa9190614263565b90505b600b60003373ffffffffffffffffffffffffffffffffffffffff1673ffffffffffffffffffffffffffffffffffffffff16815260200190815260200160002060050154600b60003373ffffffffffffffffffffffffffffffffffffffff1673ffffffffffffffffffffffffffffffffffffffff16815260200190815260200160002060040154600b60003373ffffffffffffffffffffffffffffffffffffffff1673ffffffffffffffffffffffffffffffffffffffff16815260200190815260200160002060030154600b60003373ffffffffffffffffffffffffffffffffffffffff1673ffffffffffffffffffffffffffffffffffffffff16815260200190815260200160002060000154846122c49190614405565b6122ce9190614405565b6122d8919061420d565b6122e2919061445f565b91505090565b6000600b60003373ffffffffffffffffffffffffffffffffffffffff1673ffffffffffffffffffffffffffffffffffffffff168152602001908152602001600020600201541161236d576040517f08c379a000000000000000000000000000000000000000000000000000000000815260040161236490614074565b60405180910390fd5b6000612377611ce9565b5090505b600081111561239f5761238c6107ef565b80806123979061451b565b91505061237b565b50565b6000600560009054906101000a900473ffffffffffffffffffffffffffffffffffffffff16905090565b6060600480546123db90614545565b80601f016020809104026020016040519081016040528092919081815260200182805461240790614545565b80156124545780601f1061242957610100808354040283529160200191612454565b820191906000526020600020905b81548152906001019060200180831161243757829003601f168201915b5050505050905090565b600b6020528060005260406000206000915090508060000154908060010154908060020154908060030154908060040154908060050154908060060154908060070154905088565b600760009054906101000a900473ffffffffffffffffffffffffffffffffffffffff1673ffffffffffffffffffffffffffffffffffffffff166108fc479081150290604051600060405180830381858888f1935050505015801561250e573d6000803e3d6000fd5b50565b60008061251c6130a6565b9050600061252a8286612f9b565b90508381101561256f576040517f08c379a0000000000000000000000000000000000000000000000000000000008152600401612566906140d4565b60405180910390fd5b61257c82868684036130ae565b60019250505092915050565b6000806125936130a6565b90506125a0818585613305565b600191505092915050565b600080600b60003373ffffffffffffffffffffffffffffffffffffffff1673ffffffffffffffffffffffffffffffffffffffff1681526020019081526020016000206002015411612631576040517f08c379a000000000000000000000000000000000000000000000000000000000815260040161262890614074565b60405180910390fd5b6002600b60003373ffffffffffffffffffffffffffffffffffffffff1673ffffffffffffffffffffffffffffffffffffffff16815260200190815260200160002060010154116126b6576040517f08c379a00000000000000000000000000000000000000000000000000000000081526004016126ad90613ed4565b60405180910390fd5b600b60003373ffffffffffffffffffffffffffffffffffffffff1673ffffffffffffffffffffffffffffffffffffffff16815260200190815260200160002060010154662386f26fc10000603c61270d9190614405565b6127179190614263565b600261272391906142e7565b905090565b6000600b60003373ffffffffffffffffffffffffffffffffffffffff1673ffffffffffffffffffffffffffffffffffffffff16815260200190815260200160002060020154116127ad576040517f08c379a00000000000000000000000000000000000000000000000000000000081526004016127a490614074565b60405180910390fd5b6611c37937e0800034146127f6576040517f08c379a00000000000000000000000000000000000000000000000000000000081526004016127ed90613f54565b60405180910390fd5b6128253360036128046125ab565b61280c610d89565b612816919061420d565b6128209190614263565b61375d565b565b6000600b60003373ffffffffffffffffffffffffffffffffffffffff1673ffffffffffffffffffffffffffffffffffffffff16815260200190815260200160002060020154116128ac576040517f08c379a00000000000000000000000000000000000000000000000000000000081526004016128a390614074565b60405180910390fd5b662386f26fc10000620151806128c29190614405565b66038d7ea4c68000346128d59190614263565b6128df9190614405565b600b60003373ffffffffffffffffffffffffffffffffffffffff1673ffffffffffffffffffffffffffffffffffffffff1681526020019081526020016000206006016000828254612930919061420d565b92505081905550565b6000600b60003373ffffffffffffffffffffffffffffffffffffffff1673ffffffffffffffffffffffffffffffffffffffff16815260200190815260200160002060020154146129be576040517f08c379a00000000000000000000000000000000000000000000000000000000081526004016129b590614014565b60405180910390fd5b6129c66111b7565b600b60003373ffffffffffffffffffffffffffffffffffffffff1673ffffffffffffffffffffffffffffffffffffffff168152602001908152602001600020600201819055506001600b60003373ffffffffffffffffffffffffffffffffffffffff1673ffffffffffffffffffffffffffffffffffffffff16815260200190815260200160002060000181905550662386f26fc10000603c612a689190614405565b600b60003373ffffffffffffffffffffffffffffffffffffffff1673ffffffffffffffffffffffffffffffffffffffff168152602001908152602001600020600101819055506001600b60003373ffffffffffffffffffffffffffffffffffffffff1673ffffffffffffffffffffffffffffffffffffffff168152602001908152602001600020600301819055506000600b60003373ffffffffffffffffffffffffffffffffffffffff1673ffffffffffffffffffffffffffffffffffffffff168152602001908152602001600020600401819055506000600b60003373ffffffffffffffffffffffffffffffffffffffff1673ffffffffffffffffffffffffffffffffffffffff16815260200190815260200160002060050181905550662386f26fc1000062015180612b9c9190614405565b600b60003373ffffffffffffffffffffffffffffffffffffffff1673ffffffffffffffffffffffffffffffffffffffff168152602001908152602001600020600601819055506001600b60003373ffffffffffffffffffffffffffffffffffffffff1673ffffffffffffffffffffffffffffffffffffffff16815260200190815260200160002060070181905550565b6000600b60003373ffffffffffffffffffffffffffffffffffffffff1673ffffffffffffffffffffffffffffffffffffffff1681526020019081526020016000206002015411612cb1576040517f08c379a0000000000000000000000000000000000000000000000000000000008152600401612ca890614074565b60405180910390fd5b600b60003373ffffffffffffffffffffffffffffffffffffffff1673ffffffffffffffffffffffffffffffffffffffff16815260200190815260200160002060070154600c612d009190614405565b600a612d0c91906142e7565b612d1533611c8d565b1015612d56576040517f08c379a0000000000000000000000000000000000000000000000000000000008152600401612d4d90613ef4565b60405180910390fd5b612d67612d6233611c8d565b6111a3565b612d6f6111b7565b600b60003373ffffffffffffffffffffffffffffffffffffffff1673ffffffffffffffffffffffffffffffffffffffff168152602001908152602001600020600201819055506001600b60003373ffffffffffffffffffffffffffffffffffffffff1673ffffffffffffffffffffffffffffffffffffffff16815260200190815260200160002060000181905550662386f26fc10000603c612e119190614405565b600b60003373ffffffffffffffffffffffffffffffffffffffff1673ffffffffffffffffffffffffffffffffffffffff168152602001908152602001600020600101819055506002600b60003373ffffffffffffffffffffffffffffffffffffffff1673ffffffffffffffffffffffffffffffffffffffff1681526020019081526020016000206003016000828254612eaa9190614405565b925050819055506000600b60003373ffffffffffffffffffffffffffffffffffffffff1673ffffffffffffffffffffffffffffffffffffffff168152602001908152602001600020600401819055506000600b60003373ffffffffffffffffffffffffffffffffffffffff1673ffffffffffffffffffffffffffffffffffffffff16815260200190815260200160002060050181905550600b60003373ffffffffffffffffffffffffffffffffffffffff1673ffffffffffffffffffffffffffffffffffffffff1681526020019081526020016000206007016000815480929190612f9490614577565b9190505550565b6000600160008473ffffffffffffffffffffffffffffffffffffffff1673ffffffffffffffffffffffffffffffffffffffff16815260200190815260200160002060008373ffffffffffffffffffffffffffffffffffffffff1673ffffffffffffffffffffffffffffffffffffffff16815260200190815260200160002054905092915050565b61302a6138bd565b600073ffffffffffffffffffffffffffffffffffffffff168173ffffffffffffffffffffffffffffffffffffffff16141561309a576040517f08c379a000000000000000000000000000000000000000000000000000000000815260040161309190613f34565b60405180910390fd5b6130a38161393b565b50565b600033905090565b600073ffffffffffffffffffffffffffffffffffffffff168373ffffffffffffffffffffffffffffffffffffffff16141561311e576040517f08c379a0000000000000000000000000000000000000000000000000000000008152600401613115906140b4565b60405180910390fd5b600073ffffffffffffffffffffffffffffffffffffffff168273ffffffffffffffffffffffffffffffffffffffff16141561318e576040517f08c379a000000000000000000000000000000000000000000000000000000000815260040161318590613f74565b60405180910390fd5b80600160008573ffffffffffffffffffffffffffffffffffffffff1673ffffffffffffffffffffffffffffffffffffffff16815260200190815260200160002060008473ffffffffffffffffffffffffffffffffffffffff1673ffffffffffffffffffffffffffffffffffffffff168152602001908152602001600020819055508173ffffffffffffffffffffffffffffffffffffffff168373ffffffffffffffffffffffffffffffffffffffff167f8c5be1e5ebec7d5bd14f71427d1e84f3dd0314c0f7b2291e5b200ac8c7c3b9258360405161326c9190614114565b60405180910390a3505050565b60006132858484612f9b565b90507fffffffffffffffffffffffffffffffffffffffffffffffffffffffffffffffff81146132ff57818110156132f1576040517f08c379a00000000000000000000000000000000000000000000000000000000081526004016132e890613f94565b60405180910390fd5b6132fe84848484036130ae565b5b50505050565b600073ffffffffffffffffffffffffffffffffffffffff168373ffffffffffffffffffffffffffffffffffffffff161415613375576040517f08c379a000000000000000000000000000000000000000000000000000000000815260040161336c90614094565b60405180910390fd5b600073ffffffffffffffffffffffffffffffffffffffff168273ffffffffffffffffffffffffffffffffffffffff1614156133e5576040517f08c379a00000000000000000000000000000000000000000000000000000000081526004016133dc90613eb4565b60405180910390fd5b6133f0838383613a01565b60008060008573ffffffffffffffffffffffffffffffffffffffff1673ffffffffffffffffffffffffffffffffffffffff16815260200190815260200160002054905081811015613476576040517f08c379a000000000000000000000000000000000000000000000000000000000815260040161346d90613fb4565b60405180910390fd5b8181036000808673ffffffffffffffffffffffffffffffffffffffff1673ffffffffffffffffffffffffffffffffffffffff16815260200190815260200160002081905550816000808573ffffffffffffffffffffffffffffffffffffffff1673ffffffffffffffffffffffffffffffffffffffff1681526020019081526020016000206000828254613509919061420d565b925050819055508273ffffffffffffffffffffffffffffffffffffffff168473ffffffffffffffffffffffffffffffffffffffff167fddf252ad1be2c89b69c2b068fc378daa952ba7f163c4a11628f55a4df523b3ef8460405161356d9190614114565b60405180910390a3613580848484613a06565b50505050565b600073ffffffffffffffffffffffffffffffffffffffff168273ffffffffffffffffffffffffffffffffffffffff1614156135f6576040517f08c379a00000000000000000000000000000000000000000000000000000000081526004016135ed90614054565b60405180910390fd5b61360282600083613a01565b60008060008473ffffffffffffffffffffffffffffffffffffffff1673ffffffffffffffffffffffffffffffffffffffff16815260200190815260200160002054905081811015613688576040517f08c379a000000000000000000000000000000000000000000000000000000000815260040161367f90613f14565b60405180910390fd5b8181036000808573ffffffffffffffffffffffffffffffffffffffff1673ffffffffffffffffffffffffffffffffffffffff1681526020019081526020016000208190555081600260008282546136df919061445f565b92505081905550600073ffffffffffffffffffffffffffffffffffffffff168373ffffffffffffffffffffffffffffffffffffffff167fddf252ad1be2c89b69c2b068fc378daa952ba7f163c4a11628f55a4df523b3ef846040516137449190614114565b60405180910390a361375883600084613a06565b505050565b600073ffffffffffffffffffffffffffffffffffffffff168273ffffffffffffffffffffffffffffffffffffffff1614156137cd576040517f08c379a00000000000000000000000000000000000000000000000000000000081526004016137c4906140f4565b60405180910390fd5b6137d960008383613a01565b80600260008282546137eb919061420d565b92505081905550806000808473ffffffffffffffffffffffffffffffffffffffff1673ffffffffffffffffffffffffffffffffffffffff1681526020019081526020016000206000828254613840919061420d565b925050819055508173ffffffffffffffffffffffffffffffffffffffff16600073ffffffffffffffffffffffffffffffffffffffff167fddf252ad1be2c89b69c2b068fc378daa952ba7f163c4a11628f55a4df523b3ef836040516138a59190614114565b60405180910390a36138b960008383613a06565b5050565b6138c56130a6565b73ffffffffffffffffffffffffffffffffffffffff166138e36123a2565b73ffffffffffffffffffffffffffffffffffffffff1614613939576040517f08c379a000000000000000000000000000000000000000000000000000000000815260040161393090613ff4565b60405180910390fd5b565b6000600560009054906101000a900473ffffffffffffffffffffffffffffffffffffffff16905081600560006101000a81548173ffffffffffffffffffffffffffffffffffffffff021916908373ffffffffffffffffffffffffffffffffffffffff1602179055508173ffffffffffffffffffffffffffffffffffffffff168173ffffffffffffffffffffffffffffffffffffffff167f8be0079c531659141344cd1fd0a4f28419497f9722a3daafe3b4186f6b6457e060405160405180910390a35050565b505050565b505050565b600081359050613a1a81614b64565b92915050565b600081359050613a2f81614b7b565b92915050565b600060208284031215613a4757600080fd5b6000613a5584828501613a0b565b91505092915050565b60008060408385031215613a7157600080fd5b6000613a7f85828601613a0b565b9250506020613a9085828601613a0b565b9150509250929050565b600080600060608486031215613aaf57600080fd5b6000613abd86828701613a0b565b9350506020613ace86828701613a0b565b9250506040613adf86828701613a20565b9150509250925092565b60008060408385031215613afc57600080fd5b6000613b0a85828601613a0b565b9250506020613b1b85828601613a20565b9150509250929050565b600060208284031215613b3757600080fd5b6000613b4584828501613a20565b91505092915050565b613b5781614493565b82525050565b613b66816144a5565b82525050565b6000613b77826141f1565b613b8181856141fc565b9350613b918185602086016144e8565b613b9a8161464d565b840191505092915050565b6000613bb26023836141fc565b9150613bbd8261466b565b604082019050919050565b6000613bd5601f836141fc565b9150613be0826146ba565b602082019050919050565b6000613bf86022836141fc565b9150613c03826146e3565b604082019050919050565b6000613c1b6022836141fc565b9150613c2682614732565b604082019050919050565b6000613c3e6026836141fc565b9150613c4982614781565b604082019050919050565b6000613c616025836141fc565b9150613c6c826147d0565b604082019050919050565b6000613c846022836141fc565b9150613c8f8261481f565b604082019050919050565b6000613ca7601d836141fc565b9150613cb28261486e565b602082019050919050565b6000613cca6026836141fc565b9150613cd582614897565b604082019050919050565b6000613ced6020836141fc565b9150613cf8826148e6565b602082019050919050565b6000613d106020836141fc565b9150613d1b8261490f565b602082019050919050565b6000613d33601e836141fc565b9150613d3e82614938565b602082019050919050565b6000613d566036836141fc565b9150613d6182614961565b604082019050919050565b6000613d796021836141fc565b9150613d84826149b0565b604082019050919050565b6000613d9c6025836141fc565b9150613da7826149ff565b604082019050919050565b6000613dbf6025836141fc565b9150613dca82614a4e565b604082019050919050565b6000613de26024836141fc565b9150613ded82614a9d565b604082019050919050565b6000613e056025836141fc565b9150613e1082614aec565b604082019050919050565b6000613e28601f836141fc565b9150613e3382614b3b565b602082019050919050565b613e47816144d1565b82525050565b613e56816144db565b82525050565b6000602082019050613e716000830184613b4e565b92915050565b6000602082019050613e8c6000830184613b5d565b92915050565b60006020820190508181036000830152613eac8184613b6c565b905092915050565b60006020820190508181036000830152613ecd81613ba5565b9050919050565b60006020820190508181036000830152613eed81613bc8565b9050919050565b60006020820190508181036000830152613f0d81613beb565b9050919050565b60006020820190508181036000830152613f2d81613c0e565b9050919050565b60006020820190508181036000830152613f4d81613c31565b9050919050565b60006020820190508181036000830152613f6d81613c54565b9050919050565b60006020820190508181036000830152613f8d81613c77565b9050919050565b60006020820190508181036000830152613fad81613c9a565b9050919050565b60006020820190508181036000830152613fcd81613cbd565b9050919050565b60006020820190508181036000830152613fed81613ce0565b9050919050565b6000602082019050818103600083015261400d81613d03565b9050919050565b6000602082019050818103600083015261402d81613d26565b9050919050565b6000602082019050818103600083015261404d81613d49565b9050919050565b6000602082019050818103600083015261406d81613d6c565b9050919050565b6000602082019050818103600083015261408d81613d8f565b9050919050565b600060208201905081810360008301526140ad81613db2565b9050919050565b600060208201905081810360008301526140cd81613dd5565b9050919050565b600060208201905081810360008301526140ed81613df8565b9050919050565b6000602082019050818103600083015261410d81613e1b565b9050919050565b60006020820190506141296000830184613e3e565b92915050565b60006040820190506141446000830185613e3e565b6141516020830184613e3e565b9392505050565b60006101008201905061416e600083018b613e3e565b61417b602083018a613e3e565b6141886040830189613e3e565b6141956060830188613e3e565b6141a26080830187613e3e565b6141af60a0830186613e3e565b6141bc60c0830185613e3e565b6141c960e0830184613e3e565b9998505050505050505050565b60006020820190506141eb6000830184613e4d565b92915050565b600081519050919050565b600082825260208201905092915050565b6000614218826144d1565b9150614223836144d1565b9250827fffffffffffffffffffffffffffffffffffffffffffffffffffffffffffffffff03821115614258576142576145c0565b5b828201905092915050565b600061426e826144d1565b9150614279836144d1565b925082614289576142886145ef565b5b828204905092915050565b6000808291508390505b60018511156142de578086048111156142ba576142b96145c0565b5b60018516156142c95780820291505b80810290506142d78561465e565b945061429e565b94509492505050565b60006142f2826144d1565b91506142fd836144d1565b925061432a7fffffffffffffffffffffffffffffffffffffffffffffffffffffffffffffffff8484614332565b905092915050565b60008261434257600190506143fe565b8161435057600090506143fe565b816001811461436657600281146143705761439f565b60019150506143fe565b60ff841115614382576143816145c0565b5b8360020a915084821115614399576143986145c0565b5b506143fe565b5060208310610133831016604e8410600b84101617156143d45782820a9050838111156143cf576143ce6145c0565b5b6143fe565b6143e18484846001614294565b925090508184048111156143f8576143f76145c0565b5b81810290505b9392505050565b6000614410826144d1565b915061441b836144d1565b9250817fffffffffffffffffffffffffffffffffffffffffffffffffffffffffffffffff0483118215151615614454576144536145c0565b5b828202905092915050565b600061446a826144d1565b9150614475836144d1565b925082821015614488576144876145c0565b5b828203905092915050565b600061449e826144b1565b9050919050565b60008115159050919050565b600073ffffffffffffffffffffffffffffffffffffffff82169050919050565b6000819050919050565b600060ff82169050919050565b60005b838110156145065780820151818401526020810190506144eb565b83811115614515576000848401525b50505050565b6000614526826144d1565b9150600082141561453a576145396145c0565b5b600182039050919050565b6000600282049050600182168061455d57607f821691505b602082108114156145715761457061461e565b5b50919050565b6000614582826144d1565b91507fffffffffffffffffffffffffffffffffffffffffffffffffffffffffffffffff8214156145b5576145b46145c0565b5b600182019050919050565b7f4e487b7100000000000000000000000000000000000000000000000000000000600052601160045260246000fd5b7f4e487b7100000000000000000000000000000000000000000000000000000000600052601260045260246000fd5b7f4e487b7100000000000000000000000000000000000000000000000000000000600052602260045260246000fd5b6000601f19601f8301169050919050565b60008160011c9050919050565b7f45524332303a207472616e7366657220746f20746865207a65726f206164647260008201527f6573730000000000000000000000000000000000000000000000000000000000602082015250565b7f596f752068617665206d61786564206f75742074686973207570677261646500600082015250565b7f596f7520646f6e2774206f776e20656e6f75676820636f696e20746f2072657360008201527f6574000000000000000000000000000000000000000000000000000000000000602082015250565b7f45524332303a206275726e20616d6f756e7420657863656564732062616c616e60008201527f6365000000000000000000000000000000000000000000000000000000000000602082015250565b7f4f776e61626c653a206e6577206f776e657220697320746865207a65726f206160008201527f6464726573730000000000000000000000000000000000000000000000000000602082015250565b7f596f752063616e27742070617920746f2077696e20696620796f7520646f6e2760008201527f7420706179000000000000000000000000000000000000000000000000000000602082015250565b7f45524332303a20617070726f766520746f20746865207a65726f20616464726560008201527f7373000000000000000000000000000000000000000000000000000000000000602082015250565b7f45524332303a20696e73756666696369656e7420616c6c6f77616e6365000000600082015250565b7f45524332303a207472616e7366657220616d6f756e742065786365656473206260008201527f616c616e63650000000000000000000000000000000000000000000000000000602082015250565b7f596f752068617665206e6f74206561726e656420616e7920436f696e20796574600082015250565b7f4f776e61626c653a2063616c6c6572206973206e6f7420746865206f776e6572600082015250565b7f596f7527766520616c7265616479206a6f696e6564207468652067616d650000600082015250565b7f596f7520646f206e6f74206861766520656e6f75676820636f696e20746f207560008201527f70677261646520796f7572206d756c7469706c69657200000000000000000000602082015250565b7f45524332303a206275726e2066726f6d20746865207a65726f2061646472657360008201527f7300000000000000000000000000000000000000000000000000000000000000602082015250565b7f596f752073686f756c64206a6f696e207468652067616d6520746f206561726e60008201527f20636f696e000000000000000000000000000000000000000000000000000000602082015250565b7f45524332303a207472616e736665722066726f6d20746865207a65726f20616460008201527f6472657373000000000000000000000000000000000000000000000000000000602082015250565b7f45524332303a20617070726f76652066726f6d20746865207a65726f2061646460008201527f7265737300000000000000000000000000000000000000000000000000000000602082015250565b7f45524332303a2064656372656173656420616c6c6f77616e63652062656c6f7760008201527f207a65726f000000000000000000000000000000000000000000000000000000602082015250565b7f45524332303a206d696e7420746f20746865207a65726f206164647265737300600082015250565b614b6d81614493565b8114614b7857600080fd5b50565b614b84816144d1565b8114614b8f57600080fd5b5056fea2646970667358221220a12ab16cecd22c31e613fe16b7b029c754b867bb764a3d6bf15c0d70755fa4f664736f6c63430008020033",
  "linkReferences": {},
  "deployedLinkReferences": {}
}