{
  "_format": "hh-sol-artifact-1",
  "contractName": "Wait",
  "sourceName": "contracts/Wait.sol",
  "abi": [
    {
      "inputs": [],
      "stateMutability": "nonpayable",
      "type": "constructor"
    },
    {
      "anonymous": false,
      "inputs": [
        {
          "indexed": true,
          "internalType": "address",
          "name": "owner",
          "type": "address"
        },
        {
          "indexed": true,
          "internalType": "address",
          "name": "spender",
          "type": "address"
        },
        {
          "indexed": false,
          "internalType": "uint256",
          "name": "value",
          "type": "uint256"
        }
      ],
      "name": "Approval",
      "type": "event"
    },
    {
      "anonymous": false,
      "inputs": [
        {
          "indexed": true,
          "internalType": "bytes32",
          "name": "id",
          "type": "bytes32"
        }
      ],
      "name": "ChainlinkCancelled",
      "type": "event"
    },
    {
      "anonymous": false,
      "inputs": [
        {
          "indexed": true,
          "internalType": "bytes32",
          "name": "id",
          "type": "bytes32"
        }
      ],
      "name": "ChainlinkFulfilled",
      "type": "event"
    },
    {
      "anonymous": false,
      "inputs": [
        {
          "indexed": true,
          "internalType": "bytes32",
          "name": "id",
          "type": "bytes32"
        }
      ],
      "name": "ChainlinkRequested",
      "type": "event"
    },
    {
      "anonymous": false,
      "inputs": [
        {
          "indexed": true,
          "internalType": "address",
          "name": "from",
          "type": "address"
        },
        {
          "indexed": true,
          "internalType": "address",
          "name": "to",
          "type": "address"
        }
      ],
      "name": "OwnershipTransferRequested",
      "type": "event"
    },
    {
      "anonymous": false,
      "inputs": [
        {
          "indexed": true,
          "internalType": "address",
          "name": "from",
          "type": "address"
        },
        {
          "indexed": true,
          "internalType": "address",
          "name": "to",
          "type": "address"
        }
      ],
      "name": "OwnershipTransferred",
      "type": "event"
    },
    {
      "anonymous": false,
      "inputs": [
        {
          "indexed": false,
          "internalType": "address",
          "name": "_user",
          "type": "address"
        }
      ],
      "name": "Reload",
      "type": "event"
    },
    {
      "anonymous": false,
      "inputs": [
        {
          "indexed": true,
          "internalType": "address",
          "name": "from",
          "type": "address"
        },
        {
          "indexed": true,
          "internalType": "address",
          "name": "to",
          "type": "address"
        },
        {
          "indexed": false,
          "internalType": "uint256",
          "name": "value",
          "type": "uint256"
        }
      ],
      "name": "Transfer",
      "type": "event"
    },
    {
      "inputs": [
        {
          "internalType": "uint256",
          "name": "",
          "type": "uint256"
        },
        {
          "internalType": "address",
          "name": "",
          "type": "address"
        }
      ],
      "name": "Claimed",
      "outputs": [
        {
          "internalType": "bool",
          "name": "",
          "type": "bool"
        }
      ],
      "stateMutability": "view",
      "type": "function"
    },
    {
      "inputs": [
        {
          "internalType": "uint256",
          "name": "",
          "type": "uint256"
        },
        {
          "internalType": "address",
          "name": "",
          "type": "address"
        }
      ],
      "name": "ClaimedAmount",
      "outputs": [
        {
          "internalType": "uint256",
          "name": "",
          "type": "uint256"
        }
      ],
      "stateMutability": "view",
      "type": "function"
    },
    {
      "inputs": [
        {
          "internalType": "uint256",
          "name": "",
          "type": "uint256"
        },
        {
          "internalType": "address",
          "name": "",
          "type": "address"
        }
      ],
      "name": "InData",
      "outputs": [
        {
          "internalType": "bool",
          "name": "",
          "type": "bool"
        }
      ],
      "stateMutability": "view",
      "type": "function"
    },
    {
      "inputs": [],
      "name": "acceptOwnership",
      "outputs": [],
      "stateMutability": "nonpayable",
      "type": "function"
    },
    {
      "inputs": [
        {
          "internalType": "address",
          "name": "owner",
          "type": "address"
        },
        {
          "internalType": "address",
          "name": "spender",
          "type": "address"
        }
      ],
      "name": "allowance",
      "outputs": [
        {
          "internalType": "uint256",
          "name": "",
          "type": "uint256"
        }
      ],
      "stateMutability": "view",
      "type": "function"
    },
    {
      "inputs": [
        {
          "internalType": "address",
          "name": "spender",
          "type": "address"
        },
        {
          "internalType": "uint256",
          "name": "amount",
          "type": "uint256"
        }
      ],
      "name": "approve",
      "outputs": [
        {
          "internalType": "bool",
          "name": "",
          "type": "bool"
        }
      ],
      "stateMutability": "nonpayable",
      "type": "function"
    },
    {
      "inputs": [
        {
          "internalType": "address",
          "name": "account",
          "type": "address"
        }
      ],
      "name": "balanceOf",
      "outputs": [
        {
          "internalType": "uint256",
          "name": "",
          "type": "uint256"
        }
      ],
      "stateMutability": "view",
      "type": "function"
    },
    {
      "inputs": [
        {
          "internalType": "uint256",
          "name": "amount",
          "type": "uint256"
        }
      ],
      "name": "burn",
      "outputs": [],
      "stateMutability": "nonpayable",
      "type": "function"
    },
    {
      "inputs": [
        {
          "internalType": "address",
          "name": "account",
          "type": "address"
        },
        {
          "internalType": "uint256",
          "name": "amount",
          "type": "uint256"
        }
      ],
      "name": "burnFrom",
      "outputs": [],
      "stateMutability": "nonpayable",
      "type": "function"
    },
    {
      "inputs": [
        {
          "internalType": "string",
          "name": "_address",
          "type": "string"
        }
      ],
      "name": "checkDatabase",
      "outputs": [
        {
          "internalType": "bytes32",
          "name": "requestId",
          "type": "bytes32"
        }
      ],
      "stateMutability": "nonpayable",
      "type": "function"
    },
    {
      "inputs": [
        {
          "internalType": "address",
          "name": "",
          "type": "address"
        }
      ],
      "name": "checked",
      "outputs": [
        {
          "internalType": "bool",
          "name": "",
          "type": "bool"
        }
      ],
      "stateMutability": "view",
      "type": "function"
    },
    {
      "inputs": [],
      "name": "decimals",
      "outputs": [
        {
          "internalType": "uint8",
          "name": "",
          "type": "uint8"
        }
      ],
      "stateMutability": "pure",
      "type": "function"
    },
    {
      "inputs": [
        {
          "internalType": "address",
          "name": "spender",
          "type": "address"
        },
        {
          "internalType": "uint256",
          "name": "subtractedValue",
          "type": "uint256"
        }
      ],
      "name": "decreaseAllowance",
      "outputs": [
        {
          "internalType": "bool",
          "name": "",
          "type": "bool"
        }
      ],
      "stateMutability": "nonpayable",
      "type": "function"
    },
    {
      "inputs": [
        {
          "internalType": "bytes32",
          "name": "_requestId",
          "type": "bytes32"
        },
        {
          "internalType": "address",
          "name": "user",
          "type": "address"
        },
        {
          "internalType": "uint256",
          "name": "binary",
          "type": "uint256"
        }
      ],
      "name": "fulfill",
      "outputs": [],
      "stateMutability": "nonpayable",
      "type": "function"
    },
    {
      "inputs": [],
      "name": "hasChecked",
      "outputs": [
        {
          "internalType": "bool",
          "name": "",
          "type": "bool"
        }
      ],
      "stateMutability": "view",
      "type": "function"
    },
    {
      "inputs": [],
      "name": "haveClaimed",
      "outputs": [
        {
          "internalType": "bool[8]",
          "name": "",
          "type": "bool[8]"
        }
      ],
      "stateMutability": "view",
      "type": "function"
    },
    {
      "inputs": [],
      "name": "inDatabase",
      "outputs": [
        {
          "internalType": "bool[8]",
          "name": "",
          "type": "bool[8]"
        }
      ],
      "stateMutability": "view",
      "type": "function"
    },
    {
      "inputs": [
        {
          "internalType": "address",
          "name": "spender",
          "type": "address"
        },
        {
          "internalType": "uint256",
          "name": "addedValue",
          "type": "uint256"
        }
      ],
      "name": "increaseAllowance",
      "outputs": [
        {
          "internalType": "bool",
          "name": "",
          "type": "bool"
        }
      ],
      "stateMutability": "nonpayable",
      "type": "function"
    },
    {
      "inputs": [],
      "name": "midnightBonus",
      "outputs": [],
      "stateMutability": "nonpayable",
      "type": "function"
    },
    {
      "inputs": [],
      "name": "mintAllUnclaimedWait",
      "outputs": [],
      "stateMutability": "nonpayable",
      "type": "function"
    },
    {
      "inputs": [],
      "name": "mintAllWait",
      "outputs": [],
      "stateMutability": "nonpayable",
      "type": "function"
    },
    {
      "inputs": [
        {
          "internalType": "uint256",
          "name": "sac",
          "type": "uint256"
        }
      ],
      "name": "mintUnclaimedWait",
      "outputs": [],
      "stateMutability": "nonpayable",
      "type": "function"
    },
    {
      "inputs": [
        {
          "internalType": "uint256",
          "name": "sac",
          "type": "uint256"
        }
      ],
      "name": "mintWait",
      "outputs": [],
      "stateMutability": "nonpayable",
      "type": "function"
    },
    {
      "inputs": [],
      "name": "mintableAllUnclaimedWait",
      "outputs": [
        {
          "internalType": "uint256",
          "name": "waitAmount",
          "type": "uint256"
        }
      ],
      "stateMutability": "view",
      "type": "function"
    },
    {
      "inputs": [],
      "name": "mintableAllWait",
      "outputs": [
        {
          "internalType": "uint256[]",
          "name": "",
          "type": "uint256[]"
        }
      ],
      "stateMutability": "view",
      "type": "function"
    },
    {
      "inputs": [
        {
          "internalType": "uint256",
          "name": "sac",
          "type": "uint256"
        }
      ],
      "name": "mintableUnclaimedWait",
      "outputs": [
        {
          "internalType": "uint256",
          "name": "waitAmount",
          "type": "uint256"
        }
      ],
      "stateMutability": "view",
      "type": "function"
    },
    {
      "inputs": [
        {
          "internalType": "uint256",
          "name": "sac",
          "type": "uint256"
        }
      ],
      "name": "mintableWait",
      "outputs": [
        {
          "internalType": "uint256",
          "name": "",
          "type": "uint256"
        }
      ],
      "stateMutability": "view",
      "type": "function"
    },
    {
      "inputs": [
        {
          "internalType": "uint256",
          "name": "",
          "type": "uint256"
        }
      ],
      "name": "mintedPeople",
      "outputs": [
        {
          "internalType": "uint256",
          "name": "",
          "type": "uint256"
        }
      ],
      "stateMutability": "view",
      "type": "function"
    },
    {
      "inputs": [],
      "name": "minting",
      "outputs": [
        {
          "internalType": "bool",
          "name": "",
          "type": "bool"
        }
      ],
      "stateMutability": "view",
      "type": "function"
    },
    {
      "inputs": [],
      "name": "name",
      "outputs": [
        {
          "internalType": "string",
          "name": "",
          "type": "string"
        }
      ],
      "stateMutability": "view",
      "type": "function"
    },
    {
      "inputs": [],
      "name": "owner",
      "outputs": [
        {
          "internalType": "address",
          "name": "",
          "type": "address"
        }
      ],
      "stateMutability": "view",
      "type": "function"
    },
    {
      "inputs": [],
      "name": "returnCurrentTime",
      "outputs": [
        {
          "internalType": "uint256",
          "name": "",
          "type": "uint256"
        }
      ],
      "stateMutability": "view",
      "type": "function"
    },
    {
      "inputs": [
        {
          "internalType": "uint256",
          "name": "",
          "type": "uint256"
        }
      ],
      "name": "sacTimes",
      "outputs": [
        {
          "internalType": "uint256",
          "name": "",
          "type": "uint256"
        }
      ],
      "stateMutability": "view",
      "type": "function"
    },
    {
      "inputs": [],
      "name": "symbol",
      "outputs": [
        {
          "internalType": "string",
          "name": "",
          "type": "string"
        }
      ],
      "stateMutability": "view",
      "type": "function"
    },
    {
      "inputs": [
        {
          "internalType": "uint256",
          "name": "",
          "type": "uint256"
        }
      ],
      "name": "totalPeople",
      "outputs": [
        {
          "internalType": "uint256",
          "name": "",
          "type": "uint256"
        }
      ],
      "stateMutability": "view",
      "type": "function"
    },
    {
      "inputs": [],
      "name": "totalSacs",
      "outputs": [
        {
          "internalType": "uint256",
          "name": "",
          "type": "uint256"
        }
      ],
      "stateMutability": "view",
      "type": "function"
    },
    {
      "inputs": [],
      "name": "totalSupply",
      "outputs": [
        {
          "internalType": "uint256",
          "name": "",
          "type": "uint256"
        }
      ],
      "stateMutability": "view",
      "type": "function"
    },
    {
      "inputs": [
        {
          "internalType": "uint256",
          "name": "",
          "type": "uint256"
        }
      ],
      "name": "totalWait",
      "outputs": [
        {
          "internalType": "uint256",
          "name": "",
          "type": "uint256"
        }
      ],
      "stateMutability": "view",
      "type": "function"
    },
    {
      "inputs": [
        {
          "internalType": "address",
          "name": "to",
          "type": "address"
        },
        {
          "internalType": "uint256",
          "name": "amount",
          "type": "uint256"
        }
      ],
      "name": "transfer",
      "outputs": [
        {
          "internalType": "bool",
          "name": "",
          "type": "bool"
        }
      ],
      "stateMutability": "nonpayable",
      "type": "function"
    },
    {
      "inputs": [
        {
          "internalType": "address",
          "name": "from",
          "type": "address"
        },
        {
          "internalType": "address",
          "name": "to",
          "type": "address"
        },
        {
          "internalType": "uint256",
          "name": "amount",
          "type": "uint256"
        }
      ],
      "name": "transferFrom",
      "outputs": [
        {
          "internalType": "bool",
          "name": "",
          "type": "bool"
        }
      ],
      "stateMutability": "nonpayable",
      "type": "function"
    },
    {
      "inputs": [
        {
          "internalType": "address",
          "name": "to",
          "type": "address"
        }
      ],
      "name": "transferOwnership",
      "outputs": [],
      "stateMutability": "nonpayable",
      "type": "function"
    },
    {
      "inputs": [
        {
          "internalType": "uint256",
          "name": "",
          "type": "uint256"
        }
      ],
      "name": "unclaimedWait",
      "outputs": [
        {
          "internalType": "uint256",
          "name": "",
          "type": "uint256"
        }
      ],
      "stateMutability": "view",
      "type": "function"
    },
    {
      "inputs": [],
      "name": "userBalance",
      "outputs": [
        {
          "internalType": "uint256",
          "name": "",
          "type": "uint256"
        }
      ],
      "stateMutability": "view",
      "type": "function"
    }
  ],
  "bytecode": "0x6080604052600160095573f2301fb9b787f87fc338ef0cc8043f9ef89dcc40600e60006101000a81548173ffffffffffffffffffffffffffffffffffffffff021916908373ffffffffffffffffffffffffffffffffffffffff1602179055506008600f556001601060006101000a81548160ff0219169083151502179055503480156200008b57600080fd5b50338060006040518060400160405280600481526020017f57616974000000000000000000000000000000000000000000000000000000008152506040518060400160405280600481526020017f57414954000000000000000000000000000000000000000000000000000000008152508160039080519060200190620001149291906200065e565b5080600490805190602001906200012d9291906200065e565b505050600073ffffffffffffffffffffffffffffffffffffffff168273ffffffffffffffffffffffffffffffffffffffff161415620001a3576040517f08c379a00000000000000000000000000000000000000000000000000000000081526004016200019a906200075c565b60405180910390fd5b81600b60006101000a81548173ffffffffffffffffffffffffffffffffffffffff021916908373ffffffffffffffffffffffffffffffffffffffff160217905550600073ffffffffffffffffffffffffffffffffffffffff168173ffffffffffffffffffffffffffffffffffffffff16146200022b576200022a81620004a460201b60201c565b5b50505033600d60006101000a81548173ffffffffffffffffffffffffffffffffffffffff021916908373ffffffffffffffffffffffffffffffffffffffff16021790555061d84e60166000808152602001908152602001600020819055506201e78f6016600060018152602001908152602001600020819055506124f960166000600281526020019081526020016000208190555060e6601660006003815260200190815260200160002081905550610347601660006004815260200190815260200160002081905550610b7960166000600581526020019081526020016000208190555061028d6016600060068152602001908152602001600020819055506104d960166000600781526020019081526020016000208190555063610887006019600080815260200190815260200160002081905550636216ca80601960006001815260200190815260200160002081905550636239118060196000600281526020019081526020016000208190555063621d6200601960006003815260200190815260200160002081905550636296ac00601960006004815260200190815260200160002081905550636233cb8060196000600581526020019081526020016000208190555063629bf2006019600060068152602001908152602001600020819055506362366e80601960006007815260200190815260200160002081905550620004527301be23585060835e02b77ef475b0cc51aa1e0709620005d660201b60201c565b620004777328e27a26a6dd07a21c3aefe6785a1420b789b53c6200061a60201b60201c565b7f323333656165366566356333346164326130666532656165643735623566343460118190555062000868565b3373ffffffffffffffffffffffffffffffffffffffff168173ffffffffffffffffffffffffffffffffffffffff16141562000516576040517f08c379a00000000000000000000000000000000000000000000000000000000081526004016200050d906200077e565b60405180910390fd5b80600c60006101000a81548173ffffffffffffffffffffffffffffffffffffffff021916908373ffffffffffffffffffffffffffffffffffffffff1602179055508073ffffffffffffffffffffffffffffffffffffffff16600b60009054906101000a900473ffffffffffffffffffffffffffffffffffffffff1673ffffffffffffffffffffffffffffffffffffffff167fed8889f560326eb138920d842192f0eb3dd22b4f139c87a2c57538e05bae127860405160405180910390a350565b80600760006101000a81548173ffffffffffffffffffffffffffffffffffffffff021916908373ffffffffffffffffffffffffffffffffffffffff16021790555050565b80600860006101000a81548173ffffffffffffffffffffffffffffffffffffffff021916908373ffffffffffffffffffffffffffffffffffffffff16021790555050565b8280546200066c90620007b1565b90600052602060002090601f016020900481019282620006905760008555620006dc565b82601f10620006ab57805160ff1916838001178555620006dc565b82800160010185558215620006dc579182015b82811115620006db578251825591602001919060010190620006be565b5b509050620006eb9190620006ef565b5090565b5b808211156200070a576000816000905550600101620006f0565b5090565b60006200071d601883620007a0565b91506200072a8262000816565b602082019050919050565b600062000744601783620007a0565b915062000751826200083f565b602082019050919050565b6000602082019050818103600083015262000777816200070e565b9050919050565b60006020820190508181036000830152620007998162000735565b9050919050565b600082825260208201905092915050565b60006002820490506001821680620007ca57607f821691505b60208210811415620007e157620007e0620007e7565b5b50919050565b7f4e487b7100000000000000000000000000000000000000000000000000000000600052602260045260246000fd5b7f43616e6e6f7420736574206f776e657220746f207a65726f0000000000000000600082015250565b7f43616e6e6f74207472616e7366657220746f2073656c66000000000000000000600082015250565b615ded80620008786000396000f3fe608060405234801561001057600080fd5b50600436106102695760003560e01c806361920e7b11610151578063a9059cbb116100c3578063d5ab7a5611610087578063d5ab7a561461078a578063dd62ed3e146107a8578063e5c1a1d6146107d8578063f2fde38b146107f6578063fea9878e14610812578063ff8053e61461084257610269565b8063a9059cbb146106d0578063b02defae14610700578063bf1527651461071e578063bfbb22811461073c578063cd561c3f1461075a57610269565b80637dc2268c116101155780637dc2268c146105f8578063833fd5fe146106165780638da5cb5b1461063457806395d89b4114610652578063a173b63914610670578063a457c2d7146106a057610269565b806361920e7b146105425780636aa3eac91461057257806370a08231146105a257806379ba5097146105d257806379cc6790146105dc57610269565b80631faee43b116101ea57806333fed591116101ae57806333fed5911461047057806338ed5a611461048c57806339509351146104bc57806342966c68146104ec57806343b416ea14610508578063585f6d881461051257610269565b80631faee43b146103b857806323b872dd146103e85780632676302a146104185780632a29ece614610436578063313ce5671461045257610269565b8063115cfb5511610231578063115cfb551461030057806312a850931461033057806318160ddd14610360578063187af51b1461037e578063196f7d5e146103ae57610269565b806301a675cb1461026e578063049563261461028c57806306fdde0314610296578063095ea7b3146102b45780630b3b3882146102e4575b600080fd5b610276610872565b6040516102839190614cae565b60405180910390f35b610294610bc8565b005b61029e610f02565b6040516102ab9190614d22565b60405180910390f35b6102ce60048036038101906102c99190614514565b610f94565b6040516102db9190614cec565b60405180910390f35b6102fe60048036038101906102f99190614609565b610fb7565b005b61031a60048036038101906103159190614609565b6112e8565b6040516103279190615044565b60405180910390f35b61034a60048036038101906103459190614632565b611300565b6040516103579190614cec565b60405180910390f35b61036861132f565b6040516103759190615044565b60405180910390f35b610398600480360381019061039391906145c8565b611339565b6040516103a59190614d07565b60405180910390f35b6103b66114ac565b005b6103d260048036038101906103cd9190614609565b611692565b6040516103df9190615044565b60405180910390f35b61040260048036038101906103fd91906144c5565b611815565b60405161040f9190614cec565b60405180910390f35b610420611844565b60405161042d9190615044565b60405180910390f35b610450600480360381019061044b9190614579565b61184c565b005b61045a611e3e565b604051610467919061505f565b60405180910390f35b61048a60048036038101906104859190614609565b611e43565b005b6104a660048036038101906104a19190614632565b612038565b6040516104b39190615044565b60405180910390f35b6104d660048036038101906104d19190614514565b61205d565b6040516104e39190614cec565b60405180910390f35b61050660048036038101906105019190614609565b612094565b005b6105106120a8565b005b61052c60048036038101906105279190614460565b6122a6565b6040516105399190614cec565b60405180910390f35b61055c60048036038101906105579190614609565b6122c6565b6040516105699190615044565b60405180910390f35b61058c60048036038101906105879190614632565b6124dd565b6040516105999190614cec565b60405180910390f35b6105bc60048036038101906105b79190614460565b61250c565b6040516105c99190615044565b60405180910390f35b6105da612554565b005b6105f660048036038101906105f19190614514565b6126eb565b005b61060061270b565b60405161060d9190614cec565b60405180910390f35b61061e61271e565b60405161062b9190615044565b60405180910390f35b61063c612724565b6040516106499190614bdf565b60405180910390f35b61065a61274e565b6040516106679190614d22565b60405180910390f35b61068a60048036038101906106859190614609565b6127e0565b6040516106979190615044565b60405180910390f35b6106ba60048036038101906106b59190614514565b6127f8565b6040516106c79190614cec565b60405180910390f35b6106ea60048036038101906106e59190614514565b61286f565b6040516106f79190614cec565b60405180910390f35b610708612892565b6040516107159190614cae565b60405180910390f35b610726612be8565b6040516107339190615044565b60405180910390f35b610744612bf8565b6040516107519190614cec565b60405180910390f35b610774600480360381019061076f9190614609565b612c4c565b6040516107819190615044565b60405180910390f35b610792612c64565b60405161079f9190615044565b60405180910390f35b6107c260048036038101906107bd9190614489565b612dd8565b6040516107cf9190615044565b60405180910390f35b6107e0612e5f565b6040516107ed9190614cca565b60405180910390f35b610810600480360381019061080b9190614460565b61308f565b005b61082c60048036038101906108279190614609565b6130a3565b6040516108399190615044565b60405180910390f35b61085c60048036038101906108579190614609565b6130bb565b6040516108699190615044565b60405180910390f35b61087a6142fa565b6040518061010001604052806012600080815260200190815260200160002060003373ffffffffffffffffffffffffffffffffffffffff1673ffffffffffffffffffffffffffffffffffffffff16815260200190815260200160002060009054906101000a900460ff16151515158152602001601260006001815260200190815260200160002060003373ffffffffffffffffffffffffffffffffffffffff1673ffffffffffffffffffffffffffffffffffffffff16815260200190815260200160002060009054906101000a900460ff16151515158152602001601260006002815260200190815260200160002060003373ffffffffffffffffffffffffffffffffffffffff1673ffffffffffffffffffffffffffffffffffffffff16815260200190815260200160002060009054906101000a900460ff16151515158152602001601260006003815260200190815260200160002060003373ffffffffffffffffffffffffffffffffffffffff1673ffffffffffffffffffffffffffffffffffffffff16815260200190815260200160002060009054906101000a900460ff16151515158152602001601260006004815260200190815260200160002060003373ffffffffffffffffffffffffffffffffffffffff1673ffffffffffffffffffffffffffffffffffffffff16815260200190815260200160002060009054906101000a900460ff16151515158152602001601260006005815260200190815260200160002060003373ffffffffffffffffffffffffffffffffffffffff1673ffffffffffffffffffffffffffffffffffffffff16815260200190815260200160002060009054906101000a900460ff16151515158152602001601260006006815260200190815260200160002060003373ffffffffffffffffffffffffffffffffffffffff1673ffffffffffffffffffffffffffffffffffffffff16815260200190815260200160002060009054906101000a900460ff16151515158152602001601260006007815260200190815260200160002060003373ffffffffffffffffffffffffffffffffffffffff1673ffffffffffffffffffffffffffffffffffffffff16815260200190815260200160002060009054906101000a900460ff1615151515815250905090565b60011515601060009054906101000a900460ff16151514610c1e576040517f08c379a0000000000000000000000000000000000000000000000000000000008152600401610c1590614ec4565b60405180910390fd5b6000805b600f54811015610ef4576013600082815260200190815260200160002060003373ffffffffffffffffffffffffffffffffffffffff1673ffffffffffffffffffffffffffffffffffffffff16815260200190815260200160002060009054906101000a900460ff16158015610cf157506012600082815260200190815260200160002060003373ffffffffffffffffffffffffffffffffffffffff1673ffffffffffffffffffffffffffffffffffffffff16815260200190815260200160002060009054906101000a900460ff165b15610ee15760016013600083815260200190815260200160002060003373ffffffffffffffffffffffffffffffffffffffff1673ffffffffffffffffffffffffffffffffffffffff16815260200190815260200160002060006101000a81548160ff021916908315150217905550601760008281526020019081526020016000206000815480929190610d8390615548565b9190505550610e10601960008381526020019081526020016000205442610daa91906153c0565b610db491906151c4565b6014600083815260200190815260200160002060003373ffffffffffffffffffffffffffffffffffffffff1673ffffffffffffffffffffffffffffffffffffffff168152602001908152602001600020819055506014600082815260200190815260200160002060003373ffffffffffffffffffffffffffffffffffffffff1673ffffffffffffffffffffffffffffffffffffffff16815260200190815260200160002054601560008381526020019081526020016000206000828254610e7b919061516e565b925050819055506014600082815260200190815260200160002060003373ffffffffffffffffffffffffffffffffffffffff1673ffffffffffffffffffffffffffffffffffffffff1681526020019081526020016000205482610ede919061516e565b91505b8080610eec90615548565b915050610c22565b50610eff33826130d3565b50565b606060038054610f11906154e5565b80601f0160208091040260200160405190810160405280929190818152602001828054610f3d906154e5565b8015610f8a5780601f10610f5f57610100808354040283529160200191610f8a565b820191906000526020600020905b815481529060010190602001808311610f6d57829003601f168201915b5050505050905090565b600080610f9f613233565b9050610fac81858561323b565b600191505092915050565b60011515601060009054906101000a900460ff1615151461100d576040517f08c379a000000000000000000000000000000000000000000000000000000000815260040161100490614ec4565b60405180910390fd5b600f548110611051576040517f08c379a000000000000000000000000000000000000000000000000000000000815260040161104890614f64565b60405180910390fd5b600015156013600083815260200190815260200160002060003373ffffffffffffffffffffffffffffffffffffffff1673ffffffffffffffffffffffffffffffffffffffff16815260200190815260200160002060009054906101000a900460ff161515146110f5576040517f08c379a00000000000000000000000000000000000000000000000000000000081526004016110ec90614de4565b60405180910390fd5b600115156012600083815260200190815260200160002060003373ffffffffffffffffffffffffffffffffffffffff1673ffffffffffffffffffffffffffffffffffffffff16815260200190815260200160002060009054906101000a900460ff16151514611199576040517f08c379a000000000000000000000000000000000000000000000000000000000815260040161119090614f04565b60405180910390fd5b60016013600083815260200190815260200160002060003373ffffffffffffffffffffffffffffffffffffffff1673ffffffffffffffffffffffffffffffffffffffff16815260200190815260200160002060006101000a81548160ff02191690831515021790555060176000828152602001908152602001600020600081548092919061122690615548565b91905055506000610e1060196000848152602001908152602001600020544261124f91906153c0565b61125991906151c4565b9050806014600084815260200190815260200160002060003373ffffffffffffffffffffffffffffffffffffffff1673ffffffffffffffffffffffffffffffffffffffff16815260200190815260200160002081905550806015600084815260200190815260200160002060008282546112d3919061516e565b925050819055506112e433826130d3565b5050565b60196020528060005260406000206000915090505481565b60126020528160005260406000206020528060005260406000206000915091509054906101000a900460ff1681565b6000600254905090565b60008061135060115430632a29ece660e01b613406565b905061139c6040518060400160405280600781526020017f616464726573730000000000000000000000000000000000000000000000000081525084836134379092919063ffffffff16565b61141b6040518060400160405280600481526020017f70617468000000000000000000000000000000000000000000000000000000008152506040518060400160405280600381526020017f62726f0000000000000000000000000000000000000000000000000000000000815250836134379092919063ffffffff16565b61149a6040518060400160405280600581526020017f70617468310000000000000000000000000000000000000000000000000000008152506040518060400160405280600381526020017f6d616e0000000000000000000000000000000000000000000000000000000000815250836134379092919063ffffffff16565b6114a581600061346a565b5050919050565b601060009054906101000a900460ff16156114fc576040517f08c379a00000000000000000000000000000000000000000000000000000000081526004016114f390614ea4565b60405180910390fd5b6000805b600f54811015611684576013600082815260200190815260200160002060003373ffffffffffffffffffffffffffffffffffffffff1673ffffffffffffffffffffffffffffffffffffffff16815260200190815260200160002060009054906101000a900460ff16156116715760006013600083815260200190815260200160002060003373ffffffffffffffffffffffffffffffffffffffff1673ffffffffffffffffffffffffffffffffffffffff16815260200190815260200160002060006101000a81548160ff02191690831515021790555060156000828152602001908152602001600020546014600083815260200190815260200160002060003373ffffffffffffffffffffffffffffffffffffffff1673ffffffffffffffffffffffffffffffffffffffff1681526020019081526020016000205460186000848152602001908152602001600020546116599190615366565b61166391906151c4565b8261166e919061516e565b91505b808061167c90615548565b915050611500565b5061168f33826130d3565b50565b6000601060009054906101000a900460ff16156116e4576040517f08c379a00000000000000000000000000000000000000000000000000000000081526004016116db90614ea4565b60405180910390fd5b6013600083815260200190815260200160002060003373ffffffffffffffffffffffffffffffffffffffff1673ffffffffffffffffffffffffffffffffffffffff16815260200190815260200160002060009054906101000a900460ff16611781576040517f08c379a000000000000000000000000000000000000000000000000000000000815260040161177890614fe4565b60405180910390fd5b60156000838152602001908152602001600020546014600084815260200190815260200160002060003373ffffffffffffffffffffffffffffffffffffffff1673ffffffffffffffffffffffffffffffffffffffff1681526020019081526020016000205460186000858152602001908152602001600020546118049190615366565b61180e91906151c4565b9050919050565b600080611820613233565b905061182d8582856134a1565b61183885858561352d565b60019150509392505050565b600042905090565b82600a600082815260200190815260200160002060009054906101000a900473ffffffffffffffffffffffffffffffffffffffff1673ffffffffffffffffffffffffffffffffffffffff163373ffffffffffffffffffffffffffffffffffffffff16146118ee576040517f08c379a00000000000000000000000000000000000000000000000000000000081526004016118e590614fc4565b60405180910390fd5b600a600082815260200190815260200160002060006101000a81549073ffffffffffffffffffffffffffffffffffffffff0219169055807f7cc135e0cebb02c3480ae5d74d377283180a2601f8f644edf7987b009316c63a60405160405180910390a260008290507f6b1fb2ade8b8043a24a96fc34f22271872018ed79fa1a9beda8054245a4d6747846040516119859190614bdf565b60405180910390a16001601a60008673ffffffffffffffffffffffffffffffffffffffff1673ffffffffffffffffffffffffffffffffffffffff16815260200190815260200160002060006101000a81548160ff02191690831515021790555060808110611a67576001601260006007815260200190815260200160002060008673ffffffffffffffffffffffffffffffffffffffff1673ffffffffffffffffffffffffffffffffffffffff16815260200190815260200160002060006101000a81548160ff021916908315150217905550608081611a6491906153c0565b90505b60408110611ae9576001601260006006815260200190815260200160002060008673ffffffffffffffffffffffffffffffffffffffff1673ffffffffffffffffffffffffffffffffffffffff16815260200190815260200160002060006101000a81548160ff021916908315150217905550604081611ae691906153c0565b90505b60208110611b6b576001601260006005815260200190815260200160002060008673ffffffffffffffffffffffffffffffffffffffff1673ffffffffffffffffffffffffffffffffffffffff16815260200190815260200160002060006101000a81548160ff021916908315150217905550602081611b6891906153c0565b90505b60108110611bed576001601260006004815260200190815260200160002060008673ffffffffffffffffffffffffffffffffffffffff1673ffffffffffffffffffffffffffffffffffffffff16815260200190815260200160002060006101000a81548160ff021916908315150217905550601081611bea91906153c0565b90505b60088110611c6f576001601260006003815260200190815260200160002060008673ffffffffffffffffffffffffffffffffffffffff1673ffffffffffffffffffffffffffffffffffffffff16815260200190815260200160002060006101000a81548160ff021916908315150217905550600881611c6c91906153c0565b90505b60048110611cf1576001601260006002815260200190815260200160002060008673ffffffffffffffffffffffffffffffffffffffff1673ffffffffffffffffffffffffffffffffffffffff16815260200190815260200160002060006101000a81548160ff021916908315150217905550600481611cee91906153c0565b90505b60028110611d73576001601260006001815260200190815260200160002060008673ffffffffffffffffffffffffffffffffffffffff1673ffffffffffffffffffffffffffffffffffffffff16815260200190815260200160002060006101000a81548160ff021916908315150217905550600281611d7091906153c0565b90505b60018110611df45760016012600080815260200190815260200160002060008673ffffffffffffffffffffffffffffffffffffffff1673ffffffffffffffffffffffffffffffffffffffff16815260200190815260200160002060006101000a81548160ff021916908315150217905550600181611df191906153c0565b90505b60008114611e37576040517f08c379a0000000000000000000000000000000000000000000000000000000008152600401611e2e90614e84565b60405180910390fd5b5050505050565b600090565b601060009054906101000a900460ff1615611e93576040517f08c379a0000000000000000000000000000000000000000000000000000000008152600401611e8a90614ea4565b60405180910390fd5b6013600082815260200190815260200160002060003373ffffffffffffffffffffffffffffffffffffffff1673ffffffffffffffffffffffffffffffffffffffff16815260200190815260200160002060009054906101000a900460ff16611f30576040517f08c379a0000000000000000000000000000000000000000000000000000000008152600401611f2790614fe4565b60405180910390fd5b60006013600083815260200190815260200160002060003373ffffffffffffffffffffffffffffffffffffffff1673ffffffffffffffffffffffffffffffffffffffff16815260200190815260200160002060006101000a81548160ff021916908315150217905550600060156000838152602001908152602001600020546014600084815260200190815260200160002060003373ffffffffffffffffffffffffffffffffffffffff1673ffffffffffffffffffffffffffffffffffffffff16815260200190815260200160002054601860008581526020019081526020016000205461201e9190615366565b61202891906151c4565b905061203433826130d3565b5050565b6014602052816000526040600020602052806000526040600020600091509150505481565b600080612068613233565b905061208981858561207a8589612dd8565b612084919061516e565b61323b565b600191505092915050565b6120a561209f613233565b826137ae565b50565b600d60009054906101000a900473ffffffffffffffffffffffffffffffffffffffff1673ffffffffffffffffffffffffffffffffffffffff163373ffffffffffffffffffffffffffffffffffffffff1614612138576040517f08c379a000000000000000000000000000000000000000000000000000000000815260040161212f90614da4565b60405180910390fd5b60011515601060009054906101000a900460ff1615151461218e576040517f08c379a000000000000000000000000000000000000000000000000000000000815260040161218590614ec4565b60405180910390fd5b6000601060006101000a81548160ff0219169083151502179055506000805b600f54811015612276576002610e106019600084815260200190815260200160002054426121db91906153c0565b6121e591906151c4565b6017600084815260200190815260200160002054601660008581526020019081526020016000205461221791906153c0565b6122219190615366565b61222b91906151c4565b6018600083815260200190815260200160002081905550601860008281526020019081526020016000205482612261919061516e565b9150808061226e90615548565b9150506121ad565b506122a3600e60009054906101000a900473ffffffffffffffffffffffffffffffffffffffff16826130d3565b50565b601a6020528060005260406000206000915054906101000a900460ff1681565b600060011515601060009054906101000a900460ff1615151461231e576040517f08c379a000000000000000000000000000000000000000000000000000000000815260040161231590614ec4565b60405180910390fd5b600f548210612362576040517f08c379a000000000000000000000000000000000000000000000000000000000815260040161235990614f64565b60405180910390fd5b600115156012600084815260200190815260200160002060003373ffffffffffffffffffffffffffffffffffffffff1673ffffffffffffffffffffffffffffffffffffffff16815260200190815260200160002060009054906101000a900460ff16151514612406576040517f08c379a00000000000000000000000000000000000000000000000000000000081526004016123fd90614ee4565b60405180910390fd5b600015156013600084815260200190815260200160002060003373ffffffffffffffffffffffffffffffffffffffff1673ffffffffffffffffffffffffffffffffffffffff16815260200190815260200160002060009054906101000a900460ff161515146124aa576040517f08c379a00000000000000000000000000000000000000000000000000000000081526004016124a190614de4565b60405180910390fd5b610e106019600084815260200190815260200160002054426124cc91906153c0565b6124d691906151c4565b9050919050565b60136020528160005260406000206020528060005260406000206000915091509054906101000a900460ff1681565b60008060008373ffffffffffffffffffffffffffffffffffffffff1673ffffffffffffffffffffffffffffffffffffffff168152602001908152602001600020549050919050565b600c60009054906101000a900473ffffffffffffffffffffffffffffffffffffffff1673ffffffffffffffffffffffffffffffffffffffff163373ffffffffffffffffffffffffffffffffffffffff16146125e4576040517f08c379a00000000000000000000000000000000000000000000000000000000081526004016125db90614d64565b60405180910390fd5b6000600b60009054906101000a900473ffffffffffffffffffffffffffffffffffffffff16905033600b60006101000a81548173ffffffffffffffffffffffffffffffffffffffff021916908373ffffffffffffffffffffffffffffffffffffffff1602179055506000600c60006101000a81548173ffffffffffffffffffffffffffffffffffffffff021916908373ffffffffffffffffffffffffffffffffffffffff1602179055503373ffffffffffffffffffffffffffffffffffffffff168173ffffffffffffffffffffffffffffffffffffffff167f8be0079c531659141344cd1fd0a4f28419497f9722a3daafe3b4186f6b6457e060405160405180910390a350565b6126fd826126f7613233565b836134a1565b61270782826137ae565b5050565b601060009054906101000a900460ff1681565b600f5481565b6000600b60009054906101000a900473ffffffffffffffffffffffffffffffffffffffff16905090565b60606004805461275d906154e5565b80601f0160208091040260200160405190810160405280929190818152602001828054612789906154e5565b80156127d65780601f106127ab576101008083540402835291602001916127d6565b820191906000526020600020905b8154815290600101906020018083116127b957829003601f168201915b5050505050905090565b60166020528060005260406000206000915090505481565b600080612803613233565b905060006128118286612dd8565b905083811015612856576040517f08c379a000000000000000000000000000000000000000000000000000000000815260040161284d90615004565b60405180910390fd5b612863828686840361323b565b60019250505092915050565b60008061287a613233565b905061288781858561352d565b600191505092915050565b61289a6142fa565b6040518061010001604052806013600080815260200190815260200160002060003373ffffffffffffffffffffffffffffffffffffffff1673ffffffffffffffffffffffffffffffffffffffff16815260200190815260200160002060009054906101000a900460ff16151515158152602001601360006001815260200190815260200160002060003373ffffffffffffffffffffffffffffffffffffffff1673ffffffffffffffffffffffffffffffffffffffff16815260200190815260200160002060009054906101000a900460ff16151515158152602001601360006002815260200190815260200160002060003373ffffffffffffffffffffffffffffffffffffffff1673ffffffffffffffffffffffffffffffffffffffff16815260200190815260200160002060009054906101000a900460ff16151515158152602001601360006003815260200190815260200160002060003373ffffffffffffffffffffffffffffffffffffffff1673ffffffffffffffffffffffffffffffffffffffff16815260200190815260200160002060009054906101000a900460ff16151515158152602001601360006004815260200190815260200160002060003373ffffffffffffffffffffffffffffffffffffffff1673ffffffffffffffffffffffffffffffffffffffff16815260200190815260200160002060009054906101000a900460ff16151515158152602001601360006005815260200190815260200160002060003373ffffffffffffffffffffffffffffffffffffffff1673ffffffffffffffffffffffffffffffffffffffff16815260200190815260200160002060009054906101000a900460ff16151515158152602001601360006006815260200190815260200160002060003373ffffffffffffffffffffffffffffffffffffffff1673ffffffffffffffffffffffffffffffffffffffff16815260200190815260200160002060009054906101000a900460ff16151515158152602001601360006007815260200190815260200160002060003373ffffffffffffffffffffffffffffffffffffffff1673ffffffffffffffffffffffffffffffffffffffff16815260200190815260200160002060009054906101000a900460ff1615151515815250905090565b6000612bf33361250c565b905090565b6000601a60003373ffffffffffffffffffffffffffffffffffffffff1673ffffffffffffffffffffffffffffffffffffffff16815260200190815260200160002060009054906101000a900460ff16905090565b60176020528060005260406000206000915090505481565b6000601060009054906101000a900460ff1615612cb6576040517f08c379a0000000000000000000000000000000000000000000000000000000008152600401612cad90614ea4565b60405180910390fd5b60005b600f54811015612dd4576013600082815260200190815260200160002060003373ffffffffffffffffffffffffffffffffffffffff1673ffffffffffffffffffffffffffffffffffffffff16815260200190815260200160002060009054906101000a900460ff1615612dc15760156000828152602001908152602001600020546014600083815260200190815260200160002060003373ffffffffffffffffffffffffffffffffffffffff1673ffffffffffffffffffffffffffffffffffffffff168152602001908152602001600020546018600084815260200190815260200160002054612da99190615366565b612db391906151c4565b82612dbe919061516e565b91505b8080612dcc90615548565b915050612cb9565b5090565b6000600160008473ffffffffffffffffffffffffffffffffffffffff1673ffffffffffffffffffffffffffffffffffffffff16815260200190815260200160002060008373ffffffffffffffffffffffffffffffffffffffff1673ffffffffffffffffffffffffffffffffffffffff16815260200190815260200160002054905092915050565b606060011515601060009054906101000a900460ff16151514612eb7576040517f08c379a0000000000000000000000000000000000000000000000000000000008152600401612eae90614ec4565b60405180910390fd5b6000600867ffffffffffffffff811115612efa577f4e487b7100000000000000000000000000000000000000000000000000000000600052604160045260246000fd5b604051908082528060200260200182016040528015612f285781602001602082028036833780820191505090505b50905060005b600f54811015613087576013600082815260200190815260200160002060003373ffffffffffffffffffffffffffffffffffffffff1673ffffffffffffffffffffffffffffffffffffffff16815260200190815260200160002060009054906101000a900460ff16158015612ffd57506012600082815260200190815260200160002060003373ffffffffffffffffffffffffffffffffffffffff1673ffffffffffffffffffffffffffffffffffffffff16815260200190815260200160002060009054906101000a900460ff165b1561307457610e1060196000838152602001908152602001600020544261302491906153c0565b61302e91906151c4565b828281518110613067577f4e487b7100000000000000000000000000000000000000000000000000000000600052603260045260246000fd5b6020026020010181815250505b808061307f90615548565b915050612f2e565b508091505090565b613097613985565b6130a081613a17565b50565b60186020528060005260406000206000915090505481565b60156020528060005260406000206000915090505481565b600073ffffffffffffffffffffffffffffffffffffffff168273ffffffffffffffffffffffffffffffffffffffff161415613143576040517f08c379a000000000000000000000000000000000000000000000000000000000815260040161313a90615024565b60405180910390fd5b61314f60008383613b46565b8060026000828254613161919061516e565b92505081905550806000808473ffffffffffffffffffffffffffffffffffffffff1673ffffffffffffffffffffffffffffffffffffffff16815260200190815260200160002060008282546131b6919061516e565b925050819055508173ffffffffffffffffffffffffffffffffffffffff16600073ffffffffffffffffffffffffffffffffffffffff167fddf252ad1be2c89b69c2b068fc378daa952ba7f163c4a11628f55a4df523b3ef8360405161321b9190615044565b60405180910390a361322f60008383613b4b565b5050565b600033905090565b600073ffffffffffffffffffffffffffffffffffffffff168373ffffffffffffffffffffffffffffffffffffffff1614156132ab576040517f08c379a00000000000000000000000000000000000000000000000000000000081526004016132a290614f84565b60405180910390fd5b600073ffffffffffffffffffffffffffffffffffffffff168273ffffffffffffffffffffffffffffffffffffffff16141561331b576040517f08c379a000000000000000000000000000000000000000000000000000000000815260040161331290614dc4565b60405180910390fd5b80600160008573ffffffffffffffffffffffffffffffffffffffff1673ffffffffffffffffffffffffffffffffffffffff16815260200190815260200160002060008473ffffffffffffffffffffffffffffffffffffffff1673ffffffffffffffffffffffffffffffffffffffff168152602001908152602001600020819055508173ffffffffffffffffffffffffffffffffffffffff168373ffffffffffffffffffffffffffffffffffffffff167f8c5be1e5ebec7d5bd14f71427d1e84f3dd0314c0f7b2291e5b200ac8c7c3b925836040516133f99190615044565b60405180910390a3505050565b61340e61431d565b61341661431d565b61342d85858584613b50909392919063ffffffff16565b9150509392505050565b61344e828460800151613c0090919063ffffffff16565b613465818460800151613c0090919063ffffffff16565b505050565b6000613499600860009054906101000a900473ffffffffffffffffffffffffffffffffffffffff168484613c25565b905092915050565b60006134ad8484612dd8565b90507fffffffffffffffffffffffffffffffffffffffffffffffffffffffffffffffff81146135275781811015613519576040517f08c379a000000000000000000000000000000000000000000000000000000000815260040161351090614e24565b60405180910390fd5b613526848484840361323b565b5b50505050565b600073ffffffffffffffffffffffffffffffffffffffff168373ffffffffffffffffffffffffffffffffffffffff16141561359d576040517f08c379a000000000000000000000000000000000000000000000000000000000815260040161359490614f44565b60405180910390fd5b600073ffffffffffffffffffffffffffffffffffffffff168273ffffffffffffffffffffffffffffffffffffffff16141561360d576040517f08c379a000000000000000000000000000000000000000000000000000000000815260040161360490614d44565b60405180910390fd5b613618838383613b46565b60008060008573ffffffffffffffffffffffffffffffffffffffff1673ffffffffffffffffffffffffffffffffffffffff1681526020019081526020016000205490508181101561369e576040517f08c379a000000000000000000000000000000000000000000000000000000000815260040161369590614e64565b60405180910390fd5b8181036000808673ffffffffffffffffffffffffffffffffffffffff1673ffffffffffffffffffffffffffffffffffffffff16815260200190815260200160002081905550816000808573ffffffffffffffffffffffffffffffffffffffff1673ffffffffffffffffffffffffffffffffffffffff1681526020019081526020016000206000828254613731919061516e565b925050819055508273ffffffffffffffffffffffffffffffffffffffff168473ffffffffffffffffffffffffffffffffffffffff167fddf252ad1be2c89b69c2b068fc378daa952ba7f163c4a11628f55a4df523b3ef846040516137959190615044565b60405180910390a36137a8848484613b4b565b50505050565b600073ffffffffffffffffffffffffffffffffffffffff168273ffffffffffffffffffffffffffffffffffffffff16141561381e576040517f08c379a000000000000000000000000000000000000000000000000000000000815260040161381590614f24565b60405180910390fd5b61382a82600083613b46565b60008060008473ffffffffffffffffffffffffffffffffffffffff1673ffffffffffffffffffffffffffffffffffffffff168152602001908152602001600020549050818110156138b0576040517f08c379a00000000000000000000000000000000000000000000000000000000081526004016138a790614d84565b60405180910390fd5b8181036000808573ffffffffffffffffffffffffffffffffffffffff1673ffffffffffffffffffffffffffffffffffffffff16815260200190815260200160002081905550816002600082825461390791906153c0565b92505081905550600073ffffffffffffffffffffffffffffffffffffffff168373ffffffffffffffffffffffffffffffffffffffff167fddf252ad1be2c89b69c2b068fc378daa952ba7f163c4a11628f55a4df523b3ef8460405161396c9190615044565b60405180910390a361398083600084613b4b565b505050565b600b60009054906101000a900473ffffffffffffffffffffffffffffffffffffffff1673ffffffffffffffffffffffffffffffffffffffff163373ffffffffffffffffffffffffffffffffffffffff1614613a15576040517f08c379a0000000000000000000000000000000000000000000000000000000008152600401613a0c90614e44565b60405180910390fd5b565b3373ffffffffffffffffffffffffffffffffffffffff168173ffffffffffffffffffffffffffffffffffffffff161415613a86576040517f08c379a0000000000000000000000000000000000000000000000000000000008152600401613a7d90614fa4565b60405180910390fd5b80600c60006101000a81548173ffffffffffffffffffffffffffffffffffffffff021916908373ffffffffffffffffffffffffffffffffffffffff1602179055508073ffffffffffffffffffffffffffffffffffffffff16600b60009054906101000a900473ffffffffffffffffffffffffffffffffffffffff1673ffffffffffffffffffffffffffffffffffffffff167fed8889f560326eb138920d842192f0eb3dd22b4f139c87a2c57538e05bae127860405160405180910390a350565b505050565b505050565b613b5861431d565b613b688560800151610100613cef565b508385600001818152505082856020019073ffffffffffffffffffffffffffffffffffffffff16908173ffffffffffffffffffffffffffffffffffffffff16815250508185604001907bffffffffffffffffffffffffffffffffffffffffffffffffffffffff191690817bffffffffffffffffffffffffffffffffffffffffffffffffffffffff191681525050849050949350505050565b613c0d8260038351613d59565b613c208183613ede90919063ffffffff16565b505050565b6000806009549050600181613c3a919061516e565b6009819055506000633c6d41b960e01b600080876000015188604001518660028b6080015160000151604051602401613c799796959493929190614bfa565b604051602081830303815290604052907bffffffffffffffffffffffffffffffffffffffffffffffffffffffff19166020820180517bffffffffffffffffffffffffffffffffffffffffffffffffffffffff83818316178352505050509050613ce486838684613f00565b925050509392505050565b613cf761438a565b6000602083613d0691906155bf565b14613d3257602082613d1891906155bf565b6020613d2491906153c0565b82613d2f919061516e565b91505b81836020018181525050604051808452600081528281016020016040525082905092915050565b60178167ffffffffffffffff1611613d9057613d8a8160058460ff16901b60ff1617846140a490919063ffffffff16565b50613ed9565b60ff8167ffffffffffffffff1611613de657613dbf601860058460ff16901b17846140a490919063ffffffff16565b50613de08167ffffffffffffffff166001856140c49092919063ffffffff16565b50613ed8565b61ffff8167ffffffffffffffff1611613e3d57613e16601960058460ff16901b17846140a490919063ffffffff16565b50613e378167ffffffffffffffff166002856140c49092919063ffffffff16565b50613ed7565b63ffffffff8167ffffffffffffffff1611613e9657613e6f601a60058460ff16901b17846140a490919063ffffffff16565b50613e908167ffffffffffffffff166004856140c49092919063ffffffff16565b50613ed6565b613eb3601b60058460ff16901b17846140a490919063ffffffff16565b50613ed48167ffffffffffffffff166008856140c49092919063ffffffff16565b505b5b5b5b505050565b613ee661438a565b613ef8838460000151518485516140e6565b905092915050565b60003084604051602001613f15929190614bb3565b60405160208183030381529060405280519060200120905084600a600083815260200190815260200160002060006101000a81548173ffffffffffffffffffffffffffffffffffffffff021916908373ffffffffffffffffffffffffffffffffffffffff160217905550807fb5e6e01e79f91267dc17b4e6314d5d4d03593d2ceee0fbb452b750bd70ea5af960405160405180910390a2600760009054906101000a900473ffffffffffffffffffffffffffffffffffffffff1673ffffffffffffffffffffffffffffffffffffffff16634000aea08685856040518463ffffffff1660e01b815260040161400b93929190614c70565b602060405180830381600087803b15801561402557600080fd5b505af1158015614039573d6000803e3d6000fd5b505050506040513d601f19601f8201168201806040525081019061405d9190614550565b61409c576040517f08c379a000000000000000000000000000000000000000000000000000000000815260040161409390614e04565b60405180910390fd5b949350505050565b6140ac61438a565b6140bc83846000015151846141d5565b905092915050565b6140cc61438a565b6140dd84856000015151858561422c565b90509392505050565b6140ee61438a565b82518211156140fc57600080fd5b8460200151828561410d919061516e565b1115614142576141418560026141328860200151888761412d919061516e565b6142ba565b61413c9190615366565b6142d6565b5b6000808651805187602083010193508088870111156141615787860182525b60208701925050505b602084106141a85780518252602082614183919061516e565b9150602081614192919061516e565b90506020846141a191906153c0565b935061416a565b60006001856020036101000a03905080198251168184511681811785525050508692505050949350505050565b6141dd61438a565b836020015183106142035761420284600286602001516141fd9190615366565b6142d6565b5b835180516020858301018481538186141561421f576001820183525b5050508390509392505050565b61423461438a565b84602001518483614245919061516e565b111561426d5761426c856002868561425d919061516e565b6142679190615366565b6142d6565b5b600060018361010061427f9190615248565b61428991906153c0565b905085518386820101858319825116178152815185880111156142ac5784870182525b505085915050949350505050565b6000818311156142cc578290506142d0565b8190505b92915050565b6000826000015190506142e98383613cef565b506142f48382613ede565b50505050565b604051806101000160405280600890602082028036833780820191505090505090565b6040518060a0016040528060008019168152602001600073ffffffffffffffffffffffffffffffffffffffff16815260200160007bffffffffffffffffffffffffffffffffffffffffffffffffffffffff191681526020016000815260200161438461438a565b81525090565b604051806040016040528060608152602001600081525090565b60006143b76143b28461509f565b61507a565b9050828152602081018484840111156143cf57600080fd5b6143da8482856154a3565b509392505050565b6000813590506143f181615d5b565b92915050565b60008151905061440681615d72565b92915050565b60008135905061441b81615d89565b92915050565b600082601f83011261443257600080fd5b81356144428482602086016143a4565b91505092915050565b60008135905061445a81615da0565b92915050565b60006020828403121561447257600080fd5b6000614480848285016143e2565b91505092915050565b6000806040838503121561449c57600080fd5b60006144aa858286016143e2565b92505060206144bb858286016143e2565b9150509250929050565b6000806000606084860312156144da57600080fd5b60006144e8868287016143e2565b93505060206144f9868287016143e2565b925050604061450a8682870161444b565b9150509250925092565b6000806040838503121561452757600080fd5b6000614535858286016143e2565b92505060206145468582860161444b565b9150509250929050565b60006020828403121561456257600080fd5b6000614570848285016143f7565b91505092915050565b60008060006060848603121561458e57600080fd5b600061459c8682870161440c565b93505060206145ad868287016143e2565b92505060406145be8682870161444b565b9150509250925092565b6000602082840312156145da57600080fd5b600082013567ffffffffffffffff8111156145f457600080fd5b61460084828501614421565b91505092915050565b60006020828403121561461b57600080fd5b60006146298482850161444b565b91505092915050565b6000806040838503121561464557600080fd5b60006146538582860161444b565b9250506020614664858286016143e2565b9150509250929050565b600061467a8383614762565b60208301905092915050565b60006146928383614b6f565b60208301905092915050565b6146a7816153f4565b82525050565b6146b6816150ea565b6146c08184615130565b92506146cb826150d0565b8060005b838110156146fc5781516146e3878261466e565b96506146ee83615116565b9250506001810190506146cf565b505050505050565b600061470f826150f5565b614719818561513b565b9350614724836150da565b8060005b8381101561475557815161473c8882614686565b975061474783615123565b925050600181019050614728565b5085935050505092915050565b61476b81615406565b82525050565b61477a81615406565b82525050565b61478981615412565b82525050565b6147988161541c565b82525050565b60006147a982615100565b6147b3818561514c565b93506147c38185602086016154b2565b6147cc816156ac565b840191505092915050565b6147e86147e38261547f565b615591565b82525050565b60006147f98261510b565b614803818561515d565b93506148138185602086016154b2565b61481c816156ac565b840191505092915050565b600061483460238361515d565b915061483f826156d7565b604082019050919050565b600061485760168361515d565b915061486282615726565b602082019050919050565b600061487a60228361515d565b91506148858261574f565b604082019050919050565b600061489d60278361515d565b91506148a88261579e565b604082019050919050565b60006148c060228361515d565b91506148cb826157ed565b604082019050919050565b60006148e360308361515d565b91506148ee8261583c565b604082019050919050565b600061490660238361515d565b91506149118261588b565b604082019050919050565b6000614929601d8361515d565b9150614934826158da565b602082019050919050565b600061494c60168361515d565b915061495782615903565b602082019050919050565b600061496f60268361515d565b915061497a8261592c565b604082019050919050565b600061499260198361515d565b915061499d8261597b565b602082019050919050565b60006149b560138361515d565b91506149c0826159a4565b602082019050919050565b60006149d8603d8361515d565b91506149e3826159cd565b604082019050919050565b60006149fb603c8361515d565b9150614a0682615a1c565b604082019050919050565b6000614a1e60478361515d565b9150614a2982615a6b565b606082019050919050565b6000614a4160218361515d565b9150614a4c82615ae0565b604082019050919050565b6000614a6460258361515d565b9150614a6f82615b2f565b604082019050919050565b6000614a8760198361515d565b9150614a9282615b7e565b602082019050919050565b6000614aaa60248361515d565b9150614ab582615ba7565b604082019050919050565b6000614acd60178361515d565b9150614ad882615bf6565b602082019050919050565b6000614af060288361515d565b9150614afb82615c1f565b604082019050919050565b6000614b1360418361515d565b9150614b1e82615c6e565b606082019050919050565b6000614b3660258361515d565b9150614b4182615ce3565b604082019050919050565b6000614b59601f8361515d565b9150614b6482615d32565b602082019050919050565b614b7881615468565b82525050565b614b8781615468565b82525050565b614b9e614b9982615468565b6155b5565b82525050565b614bad81615472565b82525050565b6000614bbf82856147d7565b601482019150614bcf8284614b8d565b6020820191508190509392505050565b6000602082019050614bf4600083018461469e565b92915050565b600060e082019050614c0f600083018a61469e565b614c1c6020830189614b7e565b614c296040830188614780565b614c36606083018761478f565b614c436080830186614b7e565b614c5060a0830185614b7e565b81810360c0830152614c62818461479e565b905098975050505050505050565b6000606082019050614c85600083018661469e565b614c926020830185614b7e565b8181036040830152614ca4818461479e565b9050949350505050565b600061010082019050614cc460008301846146ad565b92915050565b60006020820190508181036000830152614ce48184614704565b905092915050565b6000602082019050614d016000830184614771565b92915050565b6000602082019050614d1c6000830184614780565b92915050565b60006020820190508181036000830152614d3c81846147ee565b905092915050565b60006020820190508181036000830152614d5d81614827565b9050919050565b60006020820190508181036000830152614d7d8161484a565b9050919050565b60006020820190508181036000830152614d9d8161486d565b9050919050565b60006020820190508181036000830152614dbd81614890565b9050919050565b60006020820190508181036000830152614ddd816148b3565b9050919050565b60006020820190508181036000830152614dfd816148d6565b9050919050565b60006020820190508181036000830152614e1d816148f9565b9050919050565b60006020820190508181036000830152614e3d8161491c565b9050919050565b60006020820190508181036000830152614e5d8161493f565b9050919050565b60006020820190508181036000830152614e7d81614962565b9050919050565b60006020820190508181036000830152614e9d81614985565b9050919050565b60006020820190508181036000830152614ebd816149a8565b9050919050565b60006020820190508181036000830152614edd816149cb565b9050919050565b60006020820190508181036000830152614efd816149ee565b9050919050565b60006020820190508181036000830152614f1d81614a11565b9050919050565b60006020820190508181036000830152614f3d81614a34565b9050919050565b60006020820190508181036000830152614f5d81614a57565b9050919050565b60006020820190508181036000830152614f7d81614a7a565b9050919050565b60006020820190508181036000830152614f9d81614a9d565b9050919050565b60006020820190508181036000830152614fbd81614ac0565b9050919050565b60006020820190508181036000830152614fdd81614ae3565b9050919050565b60006020820190508181036000830152614ffd81614b06565b9050919050565b6000602082019050818103600083015261501d81614b29565b9050919050565b6000602082019050818103600083015261503d81614b4c565b9050919050565b60006020820190506150596000830184614b7e565b92915050565b60006020820190506150746000830184614ba4565b92915050565b6000615084615095565b90506150908282615517565b919050565b6000604051905090565b600067ffffffffffffffff8211156150ba576150b961567d565b5b6150c3826156ac565b9050602081019050919050565b6000819050919050565b6000819050602082019050919050565b600060089050919050565b600081519050919050565b600081519050919050565b600081519050919050565b6000602082019050919050565b6000602082019050919050565b600081905092915050565b600082825260208201905092915050565b600082825260208201905092915050565b600082825260208201905092915050565b600061517982615468565b915061518483615468565b9250827fffffffffffffffffffffffffffffffffffffffffffffffffffffffffffffffff038211156151b9576151b86155f0565b5b828201905092915050565b60006151cf82615468565b91506151da83615468565b9250826151ea576151e961561f565b5b828204905092915050565b6000808291508390505b600185111561523f5780860481111561521b5761521a6155f0565b5b600185161561522a5780820291505b8081029050615238856156ca565b94506151ff565b94509492505050565b600061525382615468565b915061525e83615468565b925061528b7fffffffffffffffffffffffffffffffffffffffffffffffffffffffffffffffff8484615293565b905092915050565b6000826152a3576001905061535f565b816152b1576000905061535f565b81600181146152c757600281146152d157615300565b600191505061535f565b60ff8411156152e3576152e26155f0565b5b8360020a9150848211156152fa576152f96155f0565b5b5061535f565b5060208310610133831016604e8410600b84101617156153355782820a9050838111156153305761532f6155f0565b5b61535f565b61534284848460016151f5565b92509050818404811115615359576153586155f0565b5b81810290505b9392505050565b600061537182615468565b915061537c83615468565b9250817fffffffffffffffffffffffffffffffffffffffffffffffffffffffffffffffff04831182151516156153b5576153b46155f0565b5b828202905092915050565b60006153cb82615468565b91506153d683615468565b9250828210156153e9576153e86155f0565b5b828203905092915050565b60006153ff82615448565b9050919050565b60008115159050919050565b6000819050919050565b60007fffffffff0000000000000000000000000000000000000000000000000000000082169050919050565b600073ffffffffffffffffffffffffffffffffffffffff82169050919050565b6000819050919050565b600060ff82169050919050565b600061548a82615491565b9050919050565b600061549c82615448565b9050919050565b82818337600083830152505050565b60005b838110156154d05780820151818401526020810190506154b5565b838111156154df576000848401525b50505050565b600060028204905060018216806154fd57607f821691505b602082108114156155115761551061564e565b5b50919050565b615520826156ac565b810181811067ffffffffffffffff8211171561553f5761553e61567d565b5b80604052505050565b600061555382615468565b91507fffffffffffffffffffffffffffffffffffffffffffffffffffffffffffffffff821415615586576155856155f0565b5b600182019050919050565b600061559c826155a3565b9050919050565b60006155ae826156bd565b9050919050565b6000819050919050565b60006155ca82615468565b91506155d583615468565b9250826155e5576155e461561f565b5b828206905092915050565b7f4e487b7100000000000000000000000000000000000000000000000000000000600052601160045260246000fd5b7f4e487b7100000000000000000000000000000000000000000000000000000000600052601260045260246000fd5b7f4e487b7100000000000000000000000000000000000000000000000000000000600052602260045260246000fd5b7f4e487b7100000000000000000000000000000000000000000000000000000000600052604160045260246000fd5b6000601f19601f8301169050919050565b60008160601b9050919050565b60008160011c9050919050565b7f45524332303a207472616e7366657220746f20746865207a65726f206164647260008201527f6573730000000000000000000000000000000000000000000000000000000000602082015250565b7f4d7573742062652070726f706f736564206f776e657200000000000000000000600082015250565b7f45524332303a206275726e20616d6f756e7420657863656564732062616c616e60008201527f6365000000000000000000000000000000000000000000000000000000000000602082015250565b7f4f6e6c7920746865206d616e616765722063616e2063616c6c2074686973206660008201527f756e6374696f6e00000000000000000000000000000000000000000000000000602082015250565b7f45524332303a20617070726f766520746f20746865207a65726f20616464726560008201527f7373000000000000000000000000000000000000000000000000000000000000602082015250565b7f596f7520616c7265616479206d696e74656420796f7572207761697420666f7260008201527f2074686973207361637269666963652100000000000000000000000000000000602082015250565b7f756e61626c6520746f207472616e73666572416e6443616c6c20746f206f726160008201527f636c650000000000000000000000000000000000000000000000000000000000602082015250565b7f45524332303a20696e73756666696369656e7420616c6c6f77616e6365000000600082015250565b7f4f6e6c792063616c6c61626c65206279206f776e657200000000000000000000600082015250565b7f45524332303a207472616e7366657220616d6f756e742065786365656473206260008201527f616c616e63650000000000000000000000000000000000000000000000000000602082015250565b7f536f6d657468696e672077656e742077726f6e67206865726500000000000000600082015250565b7f4d696e74696e67206973207374696c6c206f6e00000000000000000000000000600082015250565b7f4d696e74696e67205761697420686173206265656e207475726e6564206f666660008201527f2c20676f20636c61696d2074686520756e636c61696d65642057616974000000602082015250565b7f596f752077657265206e6f7420696e207468652073706563696669632073616360008201527f726966696365206f7220796f75206e65656420746f20636865636b2100000000602082015250565b7f596f752077657265206e6f7420696e207468697320736163726966696365206f60008201527f7220796f7520686176656e277420636865636b6564207468652064617461626160208201527f7365207965742100000000000000000000000000000000000000000000000000604082015250565b7f45524332303a206275726e2066726f6d20746865207a65726f2061646472657360008201527f7300000000000000000000000000000000000000000000000000000000000000602082015250565b7f45524332303a207472616e736665722066726f6d20746865207a65726f20616460008201527f6472657373000000000000000000000000000000000000000000000000000000602082015250565b7f4e6f7420616e2061636375726174652073616372696669636500000000000000600082015250565b7f45524332303a20617070726f76652066726f6d20746865207a65726f2061646460008201527f7265737300000000000000000000000000000000000000000000000000000000602082015250565b7f43616e6e6f74207472616e7366657220746f2073656c66000000000000000000600082015250565b7f536f75726365206d75737420626520746865206f7261636c65206f662074686560008201527f2072657175657374000000000000000000000000000000000000000000000000602082015250565b7f596f75206e6576657220636c61696d656420796f75722077616974206f72206160008201527f6c726561647920636c61696d65642074686520756e636c61696d65642077616960208201527f7400000000000000000000000000000000000000000000000000000000000000604082015250565b7f45524332303a2064656372656173656420616c6c6f77616e63652062656c6f7760008201527f207a65726f000000000000000000000000000000000000000000000000000000602082015250565b7f45524332303a206d696e7420746f20746865207a65726f206164647265737300600082015250565b615d64816153f4565b8114615d6f57600080fd5b50565b615d7b81615406565b8114615d8657600080fd5b50565b615d9281615412565b8114615d9d57600080fd5b50565b615da981615468565b8114615db457600080fd5b5056fea26469706673582212201cfd4c37b07af893d117e7183661e04b7e7e6e8c4a706583f3fb378aba91b1d164736f6c63430008040033",
  "linkReferences": {},
  "deployedLinkReferences": {}
}