{
  "_format": "hh-sol-artifact-1",
  "contractName": "Wait",
  "sourceName": "contracts/Wait.sol",
  "abi": [
    {
      "inputs": [],
      "stateMutability": "nonpayable",
      "type": "constructor"
    },
    {
      "anonymous": false,
      "inputs": [
        {
          "indexed": true,
          "internalType": "address",
          "name": "owner",
          "type": "address"
        },
        {
          "indexed": true,
          "internalType": "address",
          "name": "spender",
          "type": "address"
        },
        {
          "indexed": false,
          "internalType": "uint256",
          "name": "value",
          "type": "uint256"
        }
      ],
      "name": "Approval",
      "type": "event"
    },
    {
      "anonymous": false,
      "inputs": [
        {
          "indexed": true,
          "internalType": "address",
          "name": "from",
          "type": "address"
        },
        {
          "indexed": true,
          "internalType": "address",
          "name": "to",
          "type": "address"
        },
        {
          "indexed": false,
          "internalType": "uint256",
          "name": "value",
          "type": "uint256"
        }
      ],
      "name": "Transfer",
      "type": "event"
    },
    {
      "inputs": [
        {
          "internalType": "uint256",
          "name": "",
          "type": "uint256"
        },
        {
          "internalType": "address",
          "name": "",
          "type": "address"
        }
      ],
      "name": "Claimed",
      "outputs": [
        {
          "internalType": "bool",
          "name": "",
          "type": "bool"
        }
      ],
      "stateMutability": "view",
      "type": "function"
    },
    {
      "inputs": [
        {
          "internalType": "uint256",
          "name": "",
          "type": "uint256"
        },
        {
          "internalType": "address",
          "name": "",
          "type": "address"
        }
      ],
      "name": "ClaimedAmount",
      "outputs": [
        {
          "internalType": "uint256",
          "name": "",
          "type": "uint256"
        }
      ],
      "stateMutability": "view",
      "type": "function"
    },
    {
      "inputs": [
        {
          "internalType": "uint256",
          "name": "",
          "type": "uint256"
        },
        {
          "internalType": "address",
          "name": "",
          "type": "address"
        }
      ],
      "name": "InData",
      "outputs": [
        {
          "internalType": "bool",
          "name": "",
          "type": "bool"
        }
      ],
      "stateMutability": "view",
      "type": "function"
    },
    {
      "inputs": [
        {
          "internalType": "address",
          "name": "owner",
          "type": "address"
        },
        {
          "internalType": "address",
          "name": "spender",
          "type": "address"
        }
      ],
      "name": "allowance",
      "outputs": [
        {
          "internalType": "uint256",
          "name": "",
          "type": "uint256"
        }
      ],
      "stateMutability": "view",
      "type": "function"
    },
    {
      "inputs": [
        {
          "internalType": "address",
          "name": "spender",
          "type": "address"
        },
        {
          "internalType": "uint256",
          "name": "amount",
          "type": "uint256"
        }
      ],
      "name": "approve",
      "outputs": [
        {
          "internalType": "bool",
          "name": "",
          "type": "bool"
        }
      ],
      "stateMutability": "nonpayable",
      "type": "function"
    },
    {
      "inputs": [
        {
          "internalType": "address",
          "name": "account",
          "type": "address"
        }
      ],
      "name": "balanceOf",
      "outputs": [
        {
          "internalType": "uint256",
          "name": "",
          "type": "uint256"
        }
      ],
      "stateMutability": "view",
      "type": "function"
    },
    {
      "inputs": [
        {
          "internalType": "uint256",
          "name": "amount",
          "type": "uint256"
        }
      ],
      "name": "burn",
      "outputs": [],
      "stateMutability": "nonpayable",
      "type": "function"
    },
    {
      "inputs": [
        {
          "internalType": "address",
          "name": "account",
          "type": "address"
        },
        {
          "internalType": "uint256",
          "name": "amount",
          "type": "uint256"
        }
      ],
      "name": "burnFrom",
      "outputs": [],
      "stateMutability": "nonpayable",
      "type": "function"
    },
    {
      "inputs": [],
      "name": "checkDatabase",
      "outputs": [],
      "stateMutability": "nonpayable",
      "type": "function"
    },
    {
      "inputs": [],
      "name": "decimals",
      "outputs": [
        {
          "internalType": "uint8",
          "name": "",
          "type": "uint8"
        }
      ],
      "stateMutability": "pure",
      "type": "function"
    },
    {
      "inputs": [
        {
          "internalType": "address",
          "name": "spender",
          "type": "address"
        },
        {
          "internalType": "uint256",
          "name": "subtractedValue",
          "type": "uint256"
        }
      ],
      "name": "decreaseAllowance",
      "outputs": [
        {
          "internalType": "bool",
          "name": "",
          "type": "bool"
        }
      ],
      "stateMutability": "nonpayable",
      "type": "function"
    },
    {
      "inputs": [],
      "name": "haveClaimed",
      "outputs": [
        {
          "internalType": "bool[8]",
          "name": "",
          "type": "bool[8]"
        }
      ],
      "stateMutability": "view",
      "type": "function"
    },
    {
      "inputs": [],
      "name": "inDatabase",
      "outputs": [
        {
          "internalType": "bool[8]",
          "name": "",
          "type": "bool[8]"
        }
      ],
      "stateMutability": "view",
      "type": "function"
    },
    {
      "inputs": [
        {
          "internalType": "address",
          "name": "spender",
          "type": "address"
        },
        {
          "internalType": "uint256",
          "name": "addedValue",
          "type": "uint256"
        }
      ],
      "name": "increaseAllowance",
      "outputs": [
        {
          "internalType": "bool",
          "name": "",
          "type": "bool"
        }
      ],
      "stateMutability": "nonpayable",
      "type": "function"
    },
    {
      "inputs": [],
      "name": "mintAllUnclaimedWait",
      "outputs": [],
      "stateMutability": "nonpayable",
      "type": "function"
    },
    {
      "inputs": [],
      "name": "mintAllWait",
      "outputs": [],
      "stateMutability": "nonpayable",
      "type": "function"
    },
    {
      "inputs": [],
      "name": "mintOff",
      "outputs": [],
      "stateMutability": "nonpayable",
      "type": "function"
    },
    {
      "inputs": [
        {
          "internalType": "uint256",
          "name": "sac",
          "type": "uint256"
        }
      ],
      "name": "mintUnclaimedWait",
      "outputs": [],
      "stateMutability": "nonpayable",
      "type": "function"
    },
    {
      "inputs": [
        {
          "internalType": "uint256",
          "name": "sac",
          "type": "uint256"
        }
      ],
      "name": "mintWait",
      "outputs": [],
      "stateMutability": "nonpayable",
      "type": "function"
    },
    {
      "inputs": [],
      "name": "mintableAllUnclaimedWait",
      "outputs": [
        {
          "internalType": "uint256",
          "name": "waitAmount",
          "type": "uint256"
        }
      ],
      "stateMutability": "view",
      "type": "function"
    },
    {
      "inputs": [],
      "name": "mintableAllWait",
      "outputs": [
        {
          "internalType": "uint256",
          "name": "mintableWait1",
          "type": "uint256"
        }
      ],
      "stateMutability": "view",
      "type": "function"
    },
    {
      "inputs": [
        {
          "internalType": "uint256",
          "name": "sac",
          "type": "uint256"
        }
      ],
      "name": "mintableUnclaimedWait",
      "outputs": [
        {
          "internalType": "uint256",
          "name": "waitAmount",
          "type": "uint256"
        }
      ],
      "stateMutability": "view",
      "type": "function"
    },
    {
      "inputs": [
        {
          "internalType": "uint256",
          "name": "sac",
          "type": "uint256"
        }
      ],
      "name": "mintableWait",
      "outputs": [
        {
          "internalType": "uint256",
          "name": "",
          "type": "uint256"
        }
      ],
      "stateMutability": "view",
      "type": "function"
    },
    {
      "inputs": [
        {
          "internalType": "uint256",
          "name": "",
          "type": "uint256"
        }
      ],
      "name": "mintedPeople",
      "outputs": [
        {
          "internalType": "uint256",
          "name": "",
          "type": "uint256"
        }
      ],
      "stateMutability": "view",
      "type": "function"
    },
    {
      "inputs": [],
      "name": "minting",
      "outputs": [
        {
          "internalType": "bool",
          "name": "",
          "type": "bool"
        }
      ],
      "stateMutability": "view",
      "type": "function"
    },
    {
      "inputs": [],
      "name": "name",
      "outputs": [
        {
          "internalType": "string",
          "name": "",
          "type": "string"
        }
      ],
      "stateMutability": "view",
      "type": "function"
    },
    {
      "inputs": [],
      "name": "returnCurrentTime",
      "outputs": [
        {
          "internalType": "uint256",
          "name": "",
          "type": "uint256"
        }
      ],
      "stateMutability": "view",
      "type": "function"
    },
    {
      "inputs": [
        {
          "internalType": "uint256",
          "name": "",
          "type": "uint256"
        }
      ],
      "name": "sacTimes",
      "outputs": [
        {
          "internalType": "uint256",
          "name": "",
          "type": "uint256"
        }
      ],
      "stateMutability": "view",
      "type": "function"
    },
    {
      "inputs": [],
      "name": "symbol",
      "outputs": [
        {
          "internalType": "string",
          "name": "",
          "type": "string"
        }
      ],
      "stateMutability": "view",
      "type": "function"
    },
    {
      "inputs": [
        {
          "internalType": "uint256",
          "name": "",
          "type": "uint256"
        }
      ],
      "name": "totalPeople",
      "outputs": [
        {
          "internalType": "uint256",
          "name": "",
          "type": "uint256"
        }
      ],
      "stateMutability": "view",
      "type": "function"
    },
    {
      "inputs": [],
      "name": "totalSacs",
      "outputs": [
        {
          "internalType": "uint256",
          "name": "",
          "type": "uint256"
        }
      ],
      "stateMutability": "view",
      "type": "function"
    },
    {
      "inputs": [],
      "name": "totalSupply",
      "outputs": [
        {
          "internalType": "uint256",
          "name": "",
          "type": "uint256"
        }
      ],
      "stateMutability": "view",
      "type": "function"
    },
    {
      "inputs": [
        {
          "internalType": "uint256",
          "name": "",
          "type": "uint256"
        }
      ],
      "name": "totalWait",
      "outputs": [
        {
          "internalType": "uint256",
          "name": "",
          "type": "uint256"
        }
      ],
      "stateMutability": "view",
      "type": "function"
    },
    {
      "inputs": [
        {
          "internalType": "address",
          "name": "to",
          "type": "address"
        },
        {
          "internalType": "uint256",
          "name": "amount",
          "type": "uint256"
        }
      ],
      "name": "transfer",
      "outputs": [
        {
          "internalType": "bool",
          "name": "",
          "type": "bool"
        }
      ],
      "stateMutability": "nonpayable",
      "type": "function"
    },
    {
      "inputs": [
        {
          "internalType": "address",
          "name": "from",
          "type": "address"
        },
        {
          "internalType": "address",
          "name": "to",
          "type": "address"
        },
        {
          "internalType": "uint256",
          "name": "amount",
          "type": "uint256"
        }
      ],
      "name": "transferFrom",
      "outputs": [
        {
          "internalType": "bool",
          "name": "",
          "type": "bool"
        }
      ],
      "stateMutability": "nonpayable",
      "type": "function"
    },
    {
      "inputs": [
        {
          "internalType": "uint256",
          "name": "",
          "type": "uint256"
        }
      ],
      "name": "unclaimedWait",
      "outputs": [
        {
          "internalType": "uint256",
          "name": "",
          "type": "uint256"
        }
      ],
      "stateMutability": "view",
      "type": "function"
    },
    {
      "inputs": [],
      "name": "userBalance",
      "outputs": [
        {
          "internalType": "uint256",
          "name": "",
          "type": "uint256"
        }
      ],
      "stateMutability": "view",
      "type": "function"
    }
  ],
  "bytecode": "0x608060405260086006556001600760006101000a81548160ff0219169083151502179055503480156200003157600080fd5b506040518060400160405280600481526020017f57616974000000000000000000000000000000000000000000000000000000008152506040518060400160405280600481526020017f57414954000000000000000000000000000000000000000000000000000000008152508160039080519060200190620000b6929190620002d7565b508060049080519060200190620000cf929190620002d7565b50505033600560006101000a81548173ffffffffffffffffffffffffffffffffffffffff021916908373ffffffffffffffffffffffffffffffffffffffff16021790555061b036600d60008081526020019081526020016000208190555062016ee0600d60006001815260200190815260200160002081905550611658600d600060028152602001908152602001600020819055506104bc600d60006003815260200190815260200160002081905550610284600d600060048152602001908152602001600020819055506091600d60006005815260200190815260200160002081905550610289600d6000600681526020019081526020016000208190555061035c600d6000600781526020019081526020016000208190555063610887006010600080815260200190815260200160002081905550636216ca80601060006001815260200190815260200160002081905550636239118060106000600281526020019081526020016000208190555063621eb380601060006003815260200190815260200160002081905550636296ac0060106000600481526020019081526020016000208190555063621d620060106000600581526020019081526020016000208190555063629bf2006010600060068152602001908152602001600020819055506362366e80601060006007815260200190815260200160002081905550620003ec565b828054620002e59062000387565b90600052602060002090601f01602090048101928262000309576000855562000355565b82601f106200032457805160ff191683800117855562000355565b8280016001018555821562000355579182015b828111156200035457825182559160200191906001019062000337565b5b50905062000364919062000368565b5090565b5b808211156200038357600081600090555060010162000369565b5090565b60006002820490506001821680620003a057607f821691505b60208210811415620003b757620003b6620003bd565b5b50919050565b7f4e487b7100000000000000000000000000000000000000000000000000000000600052602260045260246000fd5b613f2180620003fc6000396000f3fe608060405234801561001057600080fd5b50600436106102275760003560e01c80636876a84611610130578063a9059cbb116100b8578063dd62ed3e1161007c578063dd62ed3e146106a4578063e5c1a1d6146106d4578063f323912d146106f2578063fea9878e146106fc578063ff8053e61461072c57610227565b8063a9059cbb146105ea578063b02defae1461061a578063bf15276514610638578063cd561c3f14610656578063d5ab7a561461068657610227565b80637dc2268c116100ff5780637dc2268c14610530578063833fd5fe1461054e57806395d89b411461056c578063a173b6391461058a578063a457c2d7146105ba57610227565b80636876a846146104aa5780636aa3eac9146104b457806370a08231146104e457806379cc67901461051457610227565b80631faee43b116101b357806333fed5911161018257806333fed591146103e257806338ed5a61146103fe578063395093511461042e57806342966c681461045e57806361920e7b1461047a57610227565b80631faee43b1461034657806323b872dd146103765780632676302a146103a6578063313ce567146103c457610227565b80630b3b3882116101fa5780630b3b3882146102a2578063115cfb55146102be57806312a85093146102ee57806318160ddd1461031e578063196f7d5e1461033c57610227565b806301a675cb1461022c578063049563261461024a57806306fdde0314610254578063095ea7b314610272575b600080fd5b61023461075c565b60405161024191906133ad565b60405180910390f35b610252610ab2565b005b61025c610dec565b60405161026991906133e4565b60405180910390f35b61028c60048036038101906102879190612fb2565b610e7e565b60405161029991906133c9565b60405180910390f35b6102bc60048036038101906102b79190612fee565b610ea1565b005b6102d860048036038101906102d39190612fee565b6111d2565b6040516102e59190613646565b60405180910390f35b61030860048036038101906103039190613017565b6111ea565b60405161031591906133c9565b60405180910390f35b610326611219565b6040516103339190613646565b60405180910390f35b610344611223565b005b610360600480360381019061035b9190612fee565b611409565b60405161036d9190613646565b60405180910390f35b610390600480360381019061038b9190612f63565b61158c565b60405161039d91906133c9565b60405180910390f35b6103ae6115bb565b6040516103bb9190613646565b60405180910390f35b6103cc6115c3565b6040516103d99190613661565b60405180910390f35b6103fc60048036038101906103f79190612fee565b6115c8565b005b61041860048036038101906104139190613017565b6117bd565b6040516104259190613646565b60405180910390f35b61044860048036038101906104439190612fb2565b6117e2565b60405161045591906133c9565b60405180910390f35b61047860048036038101906104739190612fee565b611819565b005b610494600480360381019061048f9190612fee565b61182d565b6040516104a19190613646565b60405180910390f35b6104b2611a44565b005b6104ce60048036038101906104c99190613017565b611c34565b6040516104db91906133c9565b60405180910390f35b6104fe60048036038101906104f99190612efe565b611c63565b60405161050b9190613646565b60405180910390f35b61052e60048036038101906105299190612fb2565b611cab565b005b610538611ccb565b60405161054591906133c9565b60405180910390f35b610556611cde565b6040516105639190613646565b60405180910390f35b610574611ce4565b60405161058191906133e4565b60405180910390f35b6105a4600480360381019061059f9190612fee565b611d76565b6040516105b19190613646565b60405180910390f35b6105d460048036038101906105cf9190612fb2565b611d8e565b6040516105e191906133c9565b60405180910390f35b61060460048036038101906105ff9190612fb2565b611e05565b60405161061191906133c9565b60405180910390f35b610622611e28565b60405161062f91906133ad565b60405180910390f35b61064061217e565b60405161064d9190613646565b60405180910390f35b610670600480360381019061066b9190612fee565b61218e565b60405161067d9190613646565b60405180910390f35b61068e6121a6565b60405161069b9190613646565b60405180910390f35b6106be60048036038101906106b99190612f27565b61231a565b6040516106cb9190613646565b60405180910390f35b6106dc6123a1565b6040516106e99190613646565b60405180910390f35b6106fa612521565b005b61071660048036038101906107119190612fee565b612660565b6040516107239190613646565b60405180910390f35b61074660048036038101906107419190612fee565b612678565b6040516107539190613646565b60405180910390f35b610764612eb1565b6040518061010001604052806009600080815260200190815260200160002060003373ffffffffffffffffffffffffffffffffffffffff1673ffffffffffffffffffffffffffffffffffffffff16815260200190815260200160002060009054906101000a900460ff16151515158152602001600960006001815260200190815260200160002060003373ffffffffffffffffffffffffffffffffffffffff1673ffffffffffffffffffffffffffffffffffffffff16815260200190815260200160002060009054906101000a900460ff16151515158152602001600960006002815260200190815260200160002060003373ffffffffffffffffffffffffffffffffffffffff1673ffffffffffffffffffffffffffffffffffffffff16815260200190815260200160002060009054906101000a900460ff16151515158152602001600960006003815260200190815260200160002060003373ffffffffffffffffffffffffffffffffffffffff1673ffffffffffffffffffffffffffffffffffffffff16815260200190815260200160002060009054906101000a900460ff16151515158152602001600960006004815260200190815260200160002060003373ffffffffffffffffffffffffffffffffffffffff1673ffffffffffffffffffffffffffffffffffffffff16815260200190815260200160002060009054906101000a900460ff16151515158152602001600960006005815260200190815260200160002060003373ffffffffffffffffffffffffffffffffffffffff1673ffffffffffffffffffffffffffffffffffffffff16815260200190815260200160002060009054906101000a900460ff16151515158152602001600960006006815260200190815260200160002060003373ffffffffffffffffffffffffffffffffffffffff1673ffffffffffffffffffffffffffffffffffffffff16815260200190815260200160002060009054906101000a900460ff16151515158152602001600960006007815260200190815260200160002060003373ffffffffffffffffffffffffffffffffffffffff1673ffffffffffffffffffffffffffffffffffffffff16815260200190815260200160002060009054906101000a900460ff1615151515815250905090565b60011515600760009054906101000a900460ff16151514610b08576040517f08c379a0000000000000000000000000000000000000000000000000000000008152600401610aff90613506565b60405180910390fd5b6000805b600654811015610dde57600a600082815260200190815260200160002060003373ffffffffffffffffffffffffffffffffffffffff1673ffffffffffffffffffffffffffffffffffffffff16815260200190815260200160002060009054906101000a900460ff16158015610bdb57506009600082815260200190815260200160002060003373ffffffffffffffffffffffffffffffffffffffff1673ffffffffffffffffffffffffffffffffffffffff16815260200190815260200160002060009054906101000a900460ff165b15610dcb576001600a600083815260200190815260200160002060003373ffffffffffffffffffffffffffffffffffffffff1673ffffffffffffffffffffffffffffffffffffffff16815260200190815260200160002060006101000a81548160ff021916908315150217905550600e60008281526020019081526020016000206000815480929190610c6d90613894565b9190505550610e10601060008381526020019081526020016000205442610c9491906137a6565b610c9e919061371b565b600b600083815260200190815260200160002060003373ffffffffffffffffffffffffffffffffffffffff1673ffffffffffffffffffffffffffffffffffffffff16815260200190815260200160002081905550600b600082815260200190815260200160002060003373ffffffffffffffffffffffffffffffffffffffff1673ffffffffffffffffffffffffffffffffffffffff16815260200190815260200160002054600c60008381526020019081526020016000206000828254610d6591906136c5565b92505081905550600b600082815260200190815260200160002060003373ffffffffffffffffffffffffffffffffffffffff1673ffffffffffffffffffffffffffffffffffffffff1681526020019081526020016000205482610dc891906136c5565b91505b8080610dd690613894565b915050610b0c565b50610de93382612690565b50565b606060038054610dfb90613862565b80601f0160208091040260200160405190810160405280929190818152602001828054610e2790613862565b8015610e745780601f10610e4957610100808354040283529160200191610e74565b820191906000526020600020905b815481529060010190602001808311610e5757829003601f168201915b5050505050905090565b600080610e896127f0565b9050610e968185856127f8565b600191505092915050565b60011515600760009054906101000a900460ff16151514610ef7576040517f08c379a0000000000000000000000000000000000000000000000000000000008152600401610eee90613506565b60405180910390fd5b6006548110610f3b576040517f08c379a0000000000000000000000000000000000000000000000000000000008152600401610f32906135a6565b60405180910390fd5b60001515600a600083815260200190815260200160002060003373ffffffffffffffffffffffffffffffffffffffff1673ffffffffffffffffffffffffffffffffffffffff16815260200190815260200160002060009054906101000a900460ff16151514610fdf576040517f08c379a0000000000000000000000000000000000000000000000000000000008152600401610fd690613486565b60405180910390fd5b600115156009600083815260200190815260200160002060003373ffffffffffffffffffffffffffffffffffffffff1673ffffffffffffffffffffffffffffffffffffffff16815260200190815260200160002060009054906101000a900460ff16151514611083576040517f08c379a000000000000000000000000000000000000000000000000000000000815260040161107a90613546565b60405180910390fd5b6001600a600083815260200190815260200160002060003373ffffffffffffffffffffffffffffffffffffffff1673ffffffffffffffffffffffffffffffffffffffff16815260200190815260200160002060006101000a81548160ff021916908315150217905550600e6000828152602001908152602001600020600081548092919061111090613894565b91905055506000610e1060106000848152602001908152602001600020544261113991906137a6565b611143919061371b565b905080600b600084815260200190815260200160002060003373ffffffffffffffffffffffffffffffffffffffff1673ffffffffffffffffffffffffffffffffffffffff1681526020019081526020016000208190555080600c600084815260200190815260200160002060008282546111bd91906136c5565b925050819055506111ce3382612690565b5050565b60106020528060005260406000206000915090505481565b60096020528160005260406000206020528060005260406000206000915091509054906101000a900460ff1681565b6000600254905090565b600760009054906101000a900460ff1615611273576040517f08c379a000000000000000000000000000000000000000000000000000000000815260040161126a906134e6565b60405180910390fd5b6000805b6006548110156113fb57600a600082815260200190815260200160002060003373ffffffffffffffffffffffffffffffffffffffff1673ffffffffffffffffffffffffffffffffffffffff16815260200190815260200160002060009054906101000a900460ff16156113e8576000600a600083815260200190815260200160002060003373ffffffffffffffffffffffffffffffffffffffff1673ffffffffffffffffffffffffffffffffffffffff16815260200190815260200160002060006101000a81548160ff021916908315150217905550600c600082815260200190815260200160002054600b600083815260200190815260200160002060003373ffffffffffffffffffffffffffffffffffffffff1673ffffffffffffffffffffffffffffffffffffffff16815260200190815260200160002054600f6000848152602001908152602001600020546113d0919061374c565b6113da919061371b565b826113e591906136c5565b91505b80806113f390613894565b915050611277565b506114063382612690565b50565b6000600760009054906101000a900460ff161561145b576040517f08c379a0000000000000000000000000000000000000000000000000000000008152600401611452906134e6565b60405180910390fd5b600a600083815260200190815260200160002060003373ffffffffffffffffffffffffffffffffffffffff1673ffffffffffffffffffffffffffffffffffffffff16815260200190815260200160002060009054906101000a900460ff166114f8576040517f08c379a00000000000000000000000000000000000000000000000000000000081526004016114ef906135e6565b60405180910390fd5b600c600083815260200190815260200160002054600b600084815260200190815260200160002060003373ffffffffffffffffffffffffffffffffffffffff1673ffffffffffffffffffffffffffffffffffffffff16815260200190815260200160002054600f60008581526020019081526020016000205461157b919061374c565b611585919061371b565b9050919050565b6000806115976127f0565b90506115a48582856129c3565b6115af858585612a4f565b60019150509392505050565b600042905090565b600090565b600760009054906101000a900460ff1615611618576040517f08c379a000000000000000000000000000000000000000000000000000000000815260040161160f906134e6565b60405180910390fd5b600a600082815260200190815260200160002060003373ffffffffffffffffffffffffffffffffffffffff1673ffffffffffffffffffffffffffffffffffffffff16815260200190815260200160002060009054906101000a900460ff166116b5576040517f08c379a00000000000000000000000000000000000000000000000000000000081526004016116ac906135e6565b60405180910390fd5b6000600a600083815260200190815260200160002060003373ffffffffffffffffffffffffffffffffffffffff1673ffffffffffffffffffffffffffffffffffffffff16815260200190815260200160002060006101000a81548160ff0219169083151502179055506000600c600083815260200190815260200160002054600b600084815260200190815260200160002060003373ffffffffffffffffffffffffffffffffffffffff1673ffffffffffffffffffffffffffffffffffffffff16815260200190815260200160002054600f6000858152602001908152602001600020546117a3919061374c565b6117ad919061371b565b90506117b93382612690565b5050565b600b602052816000526040600020602052806000526040600020600091509150505481565b6000806117ed6127f0565b905061180e8185856117ff858961231a565b61180991906136c5565b6127f8565b600191505092915050565b61182a6118246127f0565b82612cd0565b50565b600060011515600760009054906101000a900460ff16151514611885576040517f08c379a000000000000000000000000000000000000000000000000000000000815260040161187c90613506565b60405180910390fd5b60065482106118c9576040517f08c379a00000000000000000000000000000000000000000000000000000000081526004016118c0906135a6565b60405180910390fd5b600115156009600084815260200190815260200160002060003373ffffffffffffffffffffffffffffffffffffffff1673ffffffffffffffffffffffffffffffffffffffff16815260200190815260200160002060009054906101000a900460ff1615151461196d576040517f08c379a000000000000000000000000000000000000000000000000000000000815260040161196490613526565b60405180910390fd5b60001515600a600084815260200190815260200160002060003373ffffffffffffffffffffffffffffffffffffffff1673ffffffffffffffffffffffffffffffffffffffff16815260200190815260200160002060009054906101000a900460ff16151514611a11576040517f08c379a0000000000000000000000000000000000000000000000000000000008152600401611a0890613486565b60405180910390fd5b610e10601060008481526020019081526020016000205442611a3391906137a6565b611a3d919061371b565b9050919050565b600560009054906101000a900473ffffffffffffffffffffffffffffffffffffffff1673ffffffffffffffffffffffffffffffffffffffff163373ffffffffffffffffffffffffffffffffffffffff1614611ad4576040517f08c379a0000000000000000000000000000000000000000000000000000000008152600401611acb90613446565b60405180910390fd5b60011515600760009054906101000a900460ff16151514611b2a576040517f08c379a0000000000000000000000000000000000000000000000000000000008152600401611b2190613506565b60405180910390fd5b6000600760006101000a81548160ff0219169083151502179055506000805b600654811015611c12576002610e10601060008481526020019081526020016000205442611b7791906137a6565b611b81919061371b565b600e600084815260200190815260200160002054600d600085815260200190815260200160002054611bb391906137a6565b611bbd919061374c565b611bc7919061371b565b600f600083815260200190815260200160002081905550600f60008281526020019081526020016000205482611bfd91906136c5565b91508080611c0a90613894565b915050611b49565b50611c3173ec8d1d1e1bfdb23403b7d5816be0d43a21db8c6e82612690565b50565b600a6020528160005260406000206020528060005260406000206000915091509054906101000a900460ff1681565b60008060008373ffffffffffffffffffffffffffffffffffffffff1673ffffffffffffffffffffffffffffffffffffffff168152602001908152602001600020549050919050565b611cbd82611cb76127f0565b836129c3565b611cc78282612cd0565b5050565b600760009054906101000a900460ff1681565b60065481565b606060048054611cf390613862565b80601f0160208091040260200160405190810160405280929190818152602001828054611d1f90613862565b8015611d6c5780601f10611d4157610100808354040283529160200191611d6c565b820191906000526020600020905b815481529060010190602001808311611d4f57829003601f168201915b5050505050905090565b600d6020528060005260406000206000915090505481565b600080611d996127f0565b90506000611da7828661231a565b905083811015611dec576040517f08c379a0000000000000000000000000000000000000000000000000000000008152600401611de390613606565b60405180910390fd5b611df982868684036127f8565b60019250505092915050565b600080611e106127f0565b9050611e1d818585612a4f565b600191505092915050565b611e30612eb1565b604051806101000160405280600a600080815260200190815260200160002060003373ffffffffffffffffffffffffffffffffffffffff1673ffffffffffffffffffffffffffffffffffffffff16815260200190815260200160002060009054906101000a900460ff16151515158152602001600a60006001815260200190815260200160002060003373ffffffffffffffffffffffffffffffffffffffff1673ffffffffffffffffffffffffffffffffffffffff16815260200190815260200160002060009054906101000a900460ff16151515158152602001600a60006002815260200190815260200160002060003373ffffffffffffffffffffffffffffffffffffffff1673ffffffffffffffffffffffffffffffffffffffff16815260200190815260200160002060009054906101000a900460ff16151515158152602001600a60006003815260200190815260200160002060003373ffffffffffffffffffffffffffffffffffffffff1673ffffffffffffffffffffffffffffffffffffffff16815260200190815260200160002060009054906101000a900460ff16151515158152602001600a60006004815260200190815260200160002060003373ffffffffffffffffffffffffffffffffffffffff1673ffffffffffffffffffffffffffffffffffffffff16815260200190815260200160002060009054906101000a900460ff16151515158152602001600a60006005815260200190815260200160002060003373ffffffffffffffffffffffffffffffffffffffff1673ffffffffffffffffffffffffffffffffffffffff16815260200190815260200160002060009054906101000a900460ff16151515158152602001600a60006006815260200190815260200160002060003373ffffffffffffffffffffffffffffffffffffffff1673ffffffffffffffffffffffffffffffffffffffff16815260200190815260200160002060009054906101000a900460ff16151515158152602001600a60006007815260200190815260200160002060003373ffffffffffffffffffffffffffffffffffffffff1673ffffffffffffffffffffffffffffffffffffffff16815260200190815260200160002060009054906101000a900460ff1615151515815250905090565b600061218933611c63565b905090565b600e6020528060005260406000206000915090505481565b6000600760009054906101000a900460ff16156121f8576040517f08c379a00000000000000000000000000000000000000000000000000000000081526004016121ef906134e6565b60405180910390fd5b60005b60065481101561231657600a600082815260200190815260200160002060003373ffffffffffffffffffffffffffffffffffffffff1673ffffffffffffffffffffffffffffffffffffffff16815260200190815260200160002060009054906101000a900460ff161561230357600c600082815260200190815260200160002054600b600083815260200190815260200160002060003373ffffffffffffffffffffffffffffffffffffffff1673ffffffffffffffffffffffffffffffffffffffff16815260200190815260200160002054600f6000848152602001908152602001600020546122eb919061374c565b6122f5919061371b565b8261230091906136c5565b91505b808061230e90613894565b9150506121fb565b5090565b6000600160008473ffffffffffffffffffffffffffffffffffffffff1673ffffffffffffffffffffffffffffffffffffffff16815260200190815260200160002060008373ffffffffffffffffffffffffffffffffffffffff1673ffffffffffffffffffffffffffffffffffffffff16815260200190815260200160002054905092915050565b600060011515600760009054906101000a900460ff161515146123f9576040517f08c379a00000000000000000000000000000000000000000000000000000000081526004016123f090613506565b60405180910390fd5b60005b60065481101561251d57600a600082815260200190815260200160002060003373ffffffffffffffffffffffffffffffffffffffff1673ffffffffffffffffffffffffffffffffffffffff16815260200190815260200160002060009054906101000a900460ff161580156124cb57506009600082815260200190815260200160002060003373ffffffffffffffffffffffffffffffffffffffff1673ffffffffffffffffffffffffffffffffffffffff16815260200190815260200160002060009054906101000a900460ff165b1561250a57610e106010600083815260200190815260200160002054426124f291906137a6565b6124fc919061371b565b8261250791906136c5565b91505b808061251590613894565b9150506123fc565b5090565b60016009600080815260200190815260200160002060003373ffffffffffffffffffffffffffffffffffffffff1673ffffffffffffffffffffffffffffffffffffffff16815260200190815260200160002060006101000a81548160ff0219169083151502179055506001600960006002815260200190815260200160002060003373ffffffffffffffffffffffffffffffffffffffff1673ffffffffffffffffffffffffffffffffffffffff16815260200190815260200160002060006101000a81548160ff0219169083151502179055506001600960006004815260200190815260200160002060003373ffffffffffffffffffffffffffffffffffffffff1673ffffffffffffffffffffffffffffffffffffffff16815260200190815260200160002060006101000a81548160ff021916908315150217905550565b600f6020528060005260406000206000915090505481565b600c6020528060005260406000206000915090505481565b600073ffffffffffffffffffffffffffffffffffffffff168273ffffffffffffffffffffffffffffffffffffffff161415612700576040517f08c379a00000000000000000000000000000000000000000000000000000000081526004016126f790613626565b60405180910390fd5b61270c60008383612ea7565b806002600082825461271e91906136c5565b92505081905550806000808473ffffffffffffffffffffffffffffffffffffffff1673ffffffffffffffffffffffffffffffffffffffff168152602001908152602001600020600082825461277391906136c5565b925050819055508173ffffffffffffffffffffffffffffffffffffffff16600073ffffffffffffffffffffffffffffffffffffffff167fddf252ad1be2c89b69c2b068fc378daa952ba7f163c4a11628f55a4df523b3ef836040516127d89190613646565b60405180910390a36127ec60008383612eac565b5050565b600033905090565b600073ffffffffffffffffffffffffffffffffffffffff168373ffffffffffffffffffffffffffffffffffffffff161415612868576040517f08c379a000000000000000000000000000000000000000000000000000000000815260040161285f906135c6565b60405180910390fd5b600073ffffffffffffffffffffffffffffffffffffffff168273ffffffffffffffffffffffffffffffffffffffff1614156128d8576040517f08c379a00000000000000000000000000000000000000000000000000000000081526004016128cf90613466565b60405180910390fd5b80600160008573ffffffffffffffffffffffffffffffffffffffff1673ffffffffffffffffffffffffffffffffffffffff16815260200190815260200160002060008473ffffffffffffffffffffffffffffffffffffffff1673ffffffffffffffffffffffffffffffffffffffff168152602001908152602001600020819055508173ffffffffffffffffffffffffffffffffffffffff168373ffffffffffffffffffffffffffffffffffffffff167f8c5be1e5ebec7d5bd14f71427d1e84f3dd0314c0f7b2291e5b200ac8c7c3b925836040516129b69190613646565b60405180910390a3505050565b60006129cf848461231a565b90507fffffffffffffffffffffffffffffffffffffffffffffffffffffffffffffffff8114612a495781811015612a3b576040517f08c379a0000000000000000000000000000000000000000000000000000000008152600401612a32906134a6565b60405180910390fd5b612a4884848484036127f8565b5b50505050565b600073ffffffffffffffffffffffffffffffffffffffff168373ffffffffffffffffffffffffffffffffffffffff161415612abf576040517f08c379a0000000000000000000000000000000000000000000000000000000008152600401612ab690613586565b60405180910390fd5b600073ffffffffffffffffffffffffffffffffffffffff168273ffffffffffffffffffffffffffffffffffffffff161415612b2f576040517f08c379a0000000000000000000000000000000000000000000000000000000008152600401612b2690613406565b60405180910390fd5b612b3a838383612ea7565b60008060008573ffffffffffffffffffffffffffffffffffffffff1673ffffffffffffffffffffffffffffffffffffffff16815260200190815260200160002054905081811015612bc0576040517f08c379a0000000000000000000000000000000000000000000000000000000008152600401612bb7906134c6565b60405180910390fd5b8181036000808673ffffffffffffffffffffffffffffffffffffffff1673ffffffffffffffffffffffffffffffffffffffff16815260200190815260200160002081905550816000808573ffffffffffffffffffffffffffffffffffffffff1673ffffffffffffffffffffffffffffffffffffffff1681526020019081526020016000206000828254612c5391906136c5565b925050819055508273ffffffffffffffffffffffffffffffffffffffff168473ffffffffffffffffffffffffffffffffffffffff167fddf252ad1be2c89b69c2b068fc378daa952ba7f163c4a11628f55a4df523b3ef84604051612cb79190613646565b60405180910390a3612cca848484612eac565b50505050565b600073ffffffffffffffffffffffffffffffffffffffff168273ffffffffffffffffffffffffffffffffffffffff161415612d40576040517f08c379a0000000000000000000000000000000000000000000000000000000008152600401612d3790613566565b60405180910390fd5b612d4c82600083612ea7565b60008060008473ffffffffffffffffffffffffffffffffffffffff1673ffffffffffffffffffffffffffffffffffffffff16815260200190815260200160002054905081811015612dd2576040517f08c379a0000000000000000000000000000000000000000000000000000000008152600401612dc990613426565b60405180910390fd5b8181036000808573ffffffffffffffffffffffffffffffffffffffff1673ffffffffffffffffffffffffffffffffffffffff168152602001908152602001600020819055508160026000828254612e2991906137a6565b92505081905550600073ffffffffffffffffffffffffffffffffffffffff168373ffffffffffffffffffffffffffffffffffffffff167fddf252ad1be2c89b69c2b068fc378daa952ba7f163c4a11628f55a4df523b3ef84604051612e8e9190613646565b60405180910390a3612ea283600084612eac565b505050565b505050565b505050565b604051806101000160405280600890602082028036833780820191505090505090565b600081359050612ee381613ebd565b92915050565b600081359050612ef881613ed4565b92915050565b600060208284031215612f1057600080fd5b6000612f1e84828501612ed4565b91505092915050565b60008060408385031215612f3a57600080fd5b6000612f4885828601612ed4565b9250506020612f5985828601612ed4565b9150509250929050565b600080600060608486031215612f7857600080fd5b6000612f8686828701612ed4565b9350506020612f9786828701612ed4565b9250506040612fa886828701612ee9565b9150509250925092565b60008060408385031215612fc557600080fd5b6000612fd385828601612ed4565b9250506020612fe485828601612ee9565b9150509250929050565b60006020828403121561300057600080fd5b600061300e84828501612ee9565b91505092915050565b6000806040838503121561302a57600080fd5b600061303885828601612ee9565b925050602061304985828601612ed4565b9150509250929050565b600061305f83836130c2565b60208301905092915050565b61307481613686565b61307e81846136a9565b92506130898261367c565b8060005b838110156130ba5781516130a18782613053565b96506130ac8361369c565b92505060018101905061308d565b505050505050565b6130cb816137ec565b82525050565b6130da816137ec565b82525050565b60006130eb82613691565b6130f581856136b4565b935061310581856020860161382f565b61310e8161396a565b840191505092915050565b60006131266023836136b4565b91506131318261397b565b604082019050919050565b60006131496022836136b4565b9150613154826139ca565b604082019050919050565b600061316c6027836136b4565b915061317782613a19565b604082019050919050565b600061318f6022836136b4565b915061319a82613a68565b604082019050919050565b60006131b26030836136b4565b91506131bd82613ab7565b604082019050919050565b60006131d5601d836136b4565b91506131e082613b06565b602082019050919050565b60006131f86026836136b4565b915061320382613b2f565b604082019050919050565b600061321b6013836136b4565b915061322682613b7e565b602082019050919050565b600061323e603d836136b4565b915061324982613ba7565b604082019050919050565b6000613261603c836136b4565b915061326c82613bf6565b604082019050919050565b60006132846047836136b4565b915061328f82613c45565b606082019050919050565b60006132a76021836136b4565b91506132b282613cba565b604082019050919050565b60006132ca6025836136b4565b91506132d582613d09565b604082019050919050565b60006132ed6019836136b4565b91506132f882613d58565b602082019050919050565b60006133106024836136b4565b915061331b82613d81565b604082019050919050565b60006133336041836136b4565b915061333e82613dd0565b606082019050919050565b60006133566025836136b4565b915061336182613e45565b604082019050919050565b6000613379601f836136b4565b915061338482613e94565b602082019050919050565b61339881613818565b82525050565b6133a781613822565b82525050565b6000610100820190506133c3600083018461306b565b92915050565b60006020820190506133de60008301846130d1565b92915050565b600060208201905081810360008301526133fe81846130e0565b905092915050565b6000602082019050818103600083015261341f81613119565b9050919050565b6000602082019050818103600083015261343f8161313c565b9050919050565b6000602082019050818103600083015261345f8161315f565b9050919050565b6000602082019050818103600083015261347f81613182565b9050919050565b6000602082019050818103600083015261349f816131a5565b9050919050565b600060208201905081810360008301526134bf816131c8565b9050919050565b600060208201905081810360008301526134df816131eb565b9050919050565b600060208201905081810360008301526134ff8161320e565b9050919050565b6000602082019050818103600083015261351f81613231565b9050919050565b6000602082019050818103600083015261353f81613254565b9050919050565b6000602082019050818103600083015261355f81613277565b9050919050565b6000602082019050818103600083015261357f8161329a565b9050919050565b6000602082019050818103600083015261359f816132bd565b9050919050565b600060208201905081810360008301526135bf816132e0565b9050919050565b600060208201905081810360008301526135df81613303565b9050919050565b600060208201905081810360008301526135ff81613326565b9050919050565b6000602082019050818103600083015261361f81613349565b9050919050565b6000602082019050818103600083015261363f8161336c565b9050919050565b600060208201905061365b600083018461338f565b92915050565b6000602082019050613676600083018461339e565b92915050565b6000819050919050565b600060089050919050565b600081519050919050565b6000602082019050919050565b600081905092915050565b600082825260208201905092915050565b60006136d082613818565b91506136db83613818565b9250827fffffffffffffffffffffffffffffffffffffffffffffffffffffffffffffffff038211156137105761370f6138dd565b5b828201905092915050565b600061372682613818565b915061373183613818565b9250826137415761374061390c565b5b828204905092915050565b600061375782613818565b915061376283613818565b9250817fffffffffffffffffffffffffffffffffffffffffffffffffffffffffffffffff048311821515161561379b5761379a6138dd565b5b828202905092915050565b60006137b182613818565b91506137bc83613818565b9250828210156137cf576137ce6138dd565b5b828203905092915050565b60006137e5826137f8565b9050919050565b60008115159050919050565b600073ffffffffffffffffffffffffffffffffffffffff82169050919050565b6000819050919050565b600060ff82169050919050565b60005b8381101561384d578082015181840152602081019050613832565b8381111561385c576000848401525b50505050565b6000600282049050600182168061387a57607f821691505b6020821081141561388e5761388d61393b565b5b50919050565b600061389f82613818565b91507fffffffffffffffffffffffffffffffffffffffffffffffffffffffffffffffff8214156138d2576138d16138dd565b5b600182019050919050565b7f4e487b7100000000000000000000000000000000000000000000000000000000600052601160045260246000fd5b7f4e487b7100000000000000000000000000000000000000000000000000000000600052601260045260246000fd5b7f4e487b7100000000000000000000000000000000000000000000000000000000600052602260045260246000fd5b6000601f19601f8301169050919050565b7f45524332303a207472616e7366657220746f20746865207a65726f206164647260008201527f6573730000000000000000000000000000000000000000000000000000000000602082015250565b7f45524332303a206275726e20616d6f756e7420657863656564732062616c616e60008201527f6365000000000000000000000000000000000000000000000000000000000000602082015250565b7f4f6e6c7920746865206d616e616765722063616e2063616c6c2074686973206660008201527f756e6374696f6e00000000000000000000000000000000000000000000000000602082015250565b7f45524332303a20617070726f766520746f20746865207a65726f20616464726560008201527f7373000000000000000000000000000000000000000000000000000000000000602082015250565b7f596f7520616c7265616479206d696e74656420796f7572207761697420666f7260008201527f2074686973207361637269666963652100000000000000000000000000000000602082015250565b7f45524332303a20696e73756666696369656e7420616c6c6f77616e6365000000600082015250565b7f45524332303a207472616e7366657220616d6f756e742065786365656473206260008201527f616c616e63650000000000000000000000000000000000000000000000000000602082015250565b7f4d696e74696e67206973207374696c6c206f6e00000000000000000000000000600082015250565b7f4d696e74696e67205761697420686173206265656e207475726e6564206f666660008201527f2c20676f20636c61696d2074686520756e636c61696d65642057616974000000602082015250565b7f596f752077657265206e6f7420696e207468652073706563696669632073616360008201527f726966696365206f7220796f75206e65656420746f20636865636b2100000000602082015250565b7f596f752077657265206e6f7420696e207468697320736163726966696365206f60008201527f7220796f7520686176656e277420636865636b6564207468652064617461626160208201527f7365207965742100000000000000000000000000000000000000000000000000604082015250565b7f45524332303a206275726e2066726f6d20746865207a65726f2061646472657360008201527f7300000000000000000000000000000000000000000000000000000000000000602082015250565b7f45524332303a207472616e736665722066726f6d20746865207a65726f20616460008201527f6472657373000000000000000000000000000000000000000000000000000000602082015250565b7f4e6f7420616e2061636375726174652073616372696669636500000000000000600082015250565b7f45524332303a20617070726f76652066726f6d20746865207a65726f2061646460008201527f7265737300000000000000000000000000000000000000000000000000000000602082015250565b7f596f75206e6576657220636c61696d656420796f75722077616974206f72206160008201527f6c726561647920636c61696d65642074686520756e636c61696d65642077616960208201527f7400000000000000000000000000000000000000000000000000000000000000604082015250565b7f45524332303a2064656372656173656420616c6c6f77616e63652062656c6f7760008201527f207a65726f000000000000000000000000000000000000000000000000000000602082015250565b7f45524332303a206d696e7420746f20746865207a65726f206164647265737300600082015250565b613ec6816137da565b8114613ed157600080fd5b50565b613edd81613818565b8114613ee857600080fd5b5056fea2646970667358221220d306383bb05c1ea74e3fe4e1bbd7297a9644ca9b01193419b0c39282a15a073164736f6c63430008040033",
  "linkReferences": {},
  "deployedLinkReferences": {}
}