{
  "_format": "hh-sol-artifact-1",
  "contractName": "Wait",
  "sourceName": "contracts/Wait.sol",
  "abi": [
    {
      "inputs": [],
      "stateMutability": "nonpayable",
      "type": "constructor"
    },
    {
      "anonymous": false,
      "inputs": [
        {
          "indexed": true,
          "internalType": "address",
          "name": "owner",
          "type": "address"
        },
        {
          "indexed": true,
          "internalType": "address",
          "name": "spender",
          "type": "address"
        },
        {
          "indexed": false,
          "internalType": "uint256",
          "name": "value",
          "type": "uint256"
        }
      ],
      "name": "Approval",
      "type": "event"
    },
    {
      "anonymous": false,
      "inputs": [
        {
          "indexed": true,
          "internalType": "bytes32",
          "name": "id",
          "type": "bytes32"
        }
      ],
      "name": "ChainlinkCancelled",
      "type": "event"
    },
    {
      "anonymous": false,
      "inputs": [
        {
          "indexed": true,
          "internalType": "bytes32",
          "name": "id",
          "type": "bytes32"
        }
      ],
      "name": "ChainlinkFulfilled",
      "type": "event"
    },
    {
      "anonymous": false,
      "inputs": [
        {
          "indexed": true,
          "internalType": "bytes32",
          "name": "id",
          "type": "bytes32"
        }
      ],
      "name": "ChainlinkRequested",
      "type": "event"
    },
    {
      "anonymous": false,
      "inputs": [
        {
          "indexed": true,
          "internalType": "address",
          "name": "from",
          "type": "address"
        },
        {
          "indexed": true,
          "internalType": "address",
          "name": "to",
          "type": "address"
        }
      ],
      "name": "OwnershipTransferRequested",
      "type": "event"
    },
    {
      "anonymous": false,
      "inputs": [
        {
          "indexed": true,
          "internalType": "address",
          "name": "from",
          "type": "address"
        },
        {
          "indexed": true,
          "internalType": "address",
          "name": "to",
          "type": "address"
        }
      ],
      "name": "OwnershipTransferred",
      "type": "event"
    },
    {
      "anonymous": false,
      "inputs": [
        {
          "indexed": false,
          "internalType": "string",
          "name": "balls",
          "type": "string"
        }
      ],
      "name": "Testing",
      "type": "event"
    },
    {
      "anonymous": false,
      "inputs": [
        {
          "indexed": true,
          "internalType": "address",
          "name": "from",
          "type": "address"
        },
        {
          "indexed": true,
          "internalType": "address",
          "name": "to",
          "type": "address"
        },
        {
          "indexed": false,
          "internalType": "uint256",
          "name": "value",
          "type": "uint256"
        }
      ],
      "name": "Transfer",
      "type": "event"
    },
    {
      "inputs": [
        {
          "internalType": "uint256",
          "name": "",
          "type": "uint256"
        },
        {
          "internalType": "address",
          "name": "",
          "type": "address"
        }
      ],
      "name": "Claimed",
      "outputs": [
        {
          "internalType": "bool",
          "name": "",
          "type": "bool"
        }
      ],
      "stateMutability": "view",
      "type": "function"
    },
    {
      "inputs": [
        {
          "internalType": "uint256",
          "name": "",
          "type": "uint256"
        },
        {
          "internalType": "address",
          "name": "",
          "type": "address"
        }
      ],
      "name": "ClaimedAmount",
      "outputs": [
        {
          "internalType": "uint256",
          "name": "",
          "type": "uint256"
        }
      ],
      "stateMutability": "view",
      "type": "function"
    },
    {
      "inputs": [
        {
          "internalType": "uint256",
          "name": "",
          "type": "uint256"
        },
        {
          "internalType": "address",
          "name": "",
          "type": "address"
        }
      ],
      "name": "InData",
      "outputs": [
        {
          "internalType": "bool",
          "name": "",
          "type": "bool"
        }
      ],
      "stateMutability": "view",
      "type": "function"
    },
    {
      "inputs": [],
      "name": "acceptOwnership",
      "outputs": [],
      "stateMutability": "nonpayable",
      "type": "function"
    },
    {
      "inputs": [
        {
          "internalType": "address",
          "name": "owner",
          "type": "address"
        },
        {
          "internalType": "address",
          "name": "spender",
          "type": "address"
        }
      ],
      "name": "allowance",
      "outputs": [
        {
          "internalType": "uint256",
          "name": "",
          "type": "uint256"
        }
      ],
      "stateMutability": "view",
      "type": "function"
    },
    {
      "inputs": [
        {
          "internalType": "address",
          "name": "spender",
          "type": "address"
        },
        {
          "internalType": "uint256",
          "name": "amount",
          "type": "uint256"
        }
      ],
      "name": "approve",
      "outputs": [
        {
          "internalType": "bool",
          "name": "",
          "type": "bool"
        }
      ],
      "stateMutability": "nonpayable",
      "type": "function"
    },
    {
      "inputs": [
        {
          "internalType": "address",
          "name": "account",
          "type": "address"
        }
      ],
      "name": "balanceOf",
      "outputs": [
        {
          "internalType": "uint256",
          "name": "",
          "type": "uint256"
        }
      ],
      "stateMutability": "view",
      "type": "function"
    },
    {
      "inputs": [
        {
          "internalType": "uint256",
          "name": "amount",
          "type": "uint256"
        }
      ],
      "name": "burn",
      "outputs": [],
      "stateMutability": "nonpayable",
      "type": "function"
    },
    {
      "inputs": [
        {
          "internalType": "address",
          "name": "account",
          "type": "address"
        },
        {
          "internalType": "uint256",
          "name": "amount",
          "type": "uint256"
        }
      ],
      "name": "burnFrom",
      "outputs": [],
      "stateMutability": "nonpayable",
      "type": "function"
    },
    {
      "inputs": [
        {
          "internalType": "string",
          "name": "_address",
          "type": "string"
        }
      ],
      "name": "checkDatabase",
      "outputs": [
        {
          "internalType": "bytes32",
          "name": "requestId",
          "type": "bytes32"
        }
      ],
      "stateMutability": "nonpayable",
      "type": "function"
    },
    {
      "inputs": [
        {
          "internalType": "address",
          "name": "",
          "type": "address"
        }
      ],
      "name": "checked",
      "outputs": [
        {
          "internalType": "bool",
          "name": "",
          "type": "bool"
        }
      ],
      "stateMutability": "view",
      "type": "function"
    },
    {
      "inputs": [],
      "name": "decimals",
      "outputs": [
        {
          "internalType": "uint8",
          "name": "",
          "type": "uint8"
        }
      ],
      "stateMutability": "pure",
      "type": "function"
    },
    {
      "inputs": [
        {
          "internalType": "address",
          "name": "spender",
          "type": "address"
        },
        {
          "internalType": "uint256",
          "name": "subtractedValue",
          "type": "uint256"
        }
      ],
      "name": "decreaseAllowance",
      "outputs": [
        {
          "internalType": "bool",
          "name": "",
          "type": "bool"
        }
      ],
      "stateMutability": "nonpayable",
      "type": "function"
    },
    {
      "inputs": [
        {
          "internalType": "bytes32",
          "name": "_requestId",
          "type": "bytes32"
        },
        {
          "internalType": "address",
          "name": "user",
          "type": "address"
        },
        {
          "internalType": "uint256",
          "name": "binary",
          "type": "uint256"
        }
      ],
      "name": "fulfill",
      "outputs": [],
      "stateMutability": "nonpayable",
      "type": "function"
    },
    {
      "inputs": [],
      "name": "hasChecked",
      "outputs": [
        {
          "internalType": "bool",
          "name": "",
          "type": "bool"
        }
      ],
      "stateMutability": "view",
      "type": "function"
    },
    {
      "inputs": [],
      "name": "haveClaimed",
      "outputs": [
        {
          "internalType": "bool[8]",
          "name": "",
          "type": "bool[8]"
        }
      ],
      "stateMutability": "view",
      "type": "function"
    },
    {
      "inputs": [],
      "name": "inDatabase",
      "outputs": [
        {
          "internalType": "bool[8]",
          "name": "",
          "type": "bool[8]"
        }
      ],
      "stateMutability": "view",
      "type": "function"
    },
    {
      "inputs": [
        {
          "internalType": "address",
          "name": "spender",
          "type": "address"
        },
        {
          "internalType": "uint256",
          "name": "addedValue",
          "type": "uint256"
        }
      ],
      "name": "increaseAllowance",
      "outputs": [
        {
          "internalType": "bool",
          "name": "",
          "type": "bool"
        }
      ],
      "stateMutability": "nonpayable",
      "type": "function"
    },
    {
      "inputs": [],
      "name": "mintAllUnclaimedWait",
      "outputs": [],
      "stateMutability": "nonpayable",
      "type": "function"
    },
    {
      "inputs": [],
      "name": "mintAllWait",
      "outputs": [],
      "stateMutability": "nonpayable",
      "type": "function"
    },
    {
      "inputs": [],
      "name": "mintOff",
      "outputs": [],
      "stateMutability": "nonpayable",
      "type": "function"
    },
    {
      "inputs": [
        {
          "internalType": "uint256",
          "name": "sac",
          "type": "uint256"
        }
      ],
      "name": "mintUnclaimedWait",
      "outputs": [],
      "stateMutability": "nonpayable",
      "type": "function"
    },
    {
      "inputs": [
        {
          "internalType": "uint256",
          "name": "sac",
          "type": "uint256"
        }
      ],
      "name": "mintWait",
      "outputs": [],
      "stateMutability": "nonpayable",
      "type": "function"
    },
    {
      "inputs": [],
      "name": "mintableAllUnclaimedWait",
      "outputs": [
        {
          "internalType": "uint256",
          "name": "waitAmount",
          "type": "uint256"
        }
      ],
      "stateMutability": "view",
      "type": "function"
    },
    {
      "inputs": [],
      "name": "mintableAllWait",
      "outputs": [
        {
          "internalType": "uint256[]",
          "name": "",
          "type": "uint256[]"
        }
      ],
      "stateMutability": "view",
      "type": "function"
    },
    {
      "inputs": [
        {
          "internalType": "uint256",
          "name": "sac",
          "type": "uint256"
        }
      ],
      "name": "mintableUnclaimedWait",
      "outputs": [
        {
          "internalType": "uint256",
          "name": "waitAmount",
          "type": "uint256"
        }
      ],
      "stateMutability": "view",
      "type": "function"
    },
    {
      "inputs": [
        {
          "internalType": "uint256",
          "name": "sac",
          "type": "uint256"
        }
      ],
      "name": "mintableWait",
      "outputs": [
        {
          "internalType": "uint256",
          "name": "",
          "type": "uint256"
        }
      ],
      "stateMutability": "view",
      "type": "function"
    },
    {
      "inputs": [
        {
          "internalType": "uint256",
          "name": "",
          "type": "uint256"
        }
      ],
      "name": "mintedPeople",
      "outputs": [
        {
          "internalType": "uint256",
          "name": "",
          "type": "uint256"
        }
      ],
      "stateMutability": "view",
      "type": "function"
    },
    {
      "inputs": [],
      "name": "minting",
      "outputs": [
        {
          "internalType": "bool",
          "name": "",
          "type": "bool"
        }
      ],
      "stateMutability": "view",
      "type": "function"
    },
    {
      "inputs": [],
      "name": "name",
      "outputs": [
        {
          "internalType": "string",
          "name": "",
          "type": "string"
        }
      ],
      "stateMutability": "view",
      "type": "function"
    },
    {
      "inputs": [],
      "name": "owner",
      "outputs": [
        {
          "internalType": "address",
          "name": "",
          "type": "address"
        }
      ],
      "stateMutability": "view",
      "type": "function"
    },
    {
      "inputs": [],
      "name": "returnCurrentTime",
      "outputs": [
        {
          "internalType": "uint256",
          "name": "",
          "type": "uint256"
        }
      ],
      "stateMutability": "view",
      "type": "function"
    },
    {
      "inputs": [
        {
          "internalType": "uint256",
          "name": "",
          "type": "uint256"
        }
      ],
      "name": "sacTimes",
      "outputs": [
        {
          "internalType": "uint256",
          "name": "",
          "type": "uint256"
        }
      ],
      "stateMutability": "view",
      "type": "function"
    },
    {
      "inputs": [],
      "name": "symbol",
      "outputs": [
        {
          "internalType": "string",
          "name": "",
          "type": "string"
        }
      ],
      "stateMutability": "view",
      "type": "function"
    },
    {
      "inputs": [
        {
          "internalType": "uint256",
          "name": "",
          "type": "uint256"
        }
      ],
      "name": "totalPeople",
      "outputs": [
        {
          "internalType": "uint256",
          "name": "",
          "type": "uint256"
        }
      ],
      "stateMutability": "view",
      "type": "function"
    },
    {
      "inputs": [],
      "name": "totalSacs",
      "outputs": [
        {
          "internalType": "uint256",
          "name": "",
          "type": "uint256"
        }
      ],
      "stateMutability": "view",
      "type": "function"
    },
    {
      "inputs": [],
      "name": "totalSupply",
      "outputs": [
        {
          "internalType": "uint256",
          "name": "",
          "type": "uint256"
        }
      ],
      "stateMutability": "view",
      "type": "function"
    },
    {
      "inputs": [
        {
          "internalType": "uint256",
          "name": "",
          "type": "uint256"
        }
      ],
      "name": "totalWait",
      "outputs": [
        {
          "internalType": "uint256",
          "name": "",
          "type": "uint256"
        }
      ],
      "stateMutability": "view",
      "type": "function"
    },
    {
      "inputs": [
        {
          "internalType": "address",
          "name": "to",
          "type": "address"
        },
        {
          "internalType": "uint256",
          "name": "amount",
          "type": "uint256"
        }
      ],
      "name": "transfer",
      "outputs": [
        {
          "internalType": "bool",
          "name": "",
          "type": "bool"
        }
      ],
      "stateMutability": "nonpayable",
      "type": "function"
    },
    {
      "inputs": [
        {
          "internalType": "address",
          "name": "from",
          "type": "address"
        },
        {
          "internalType": "address",
          "name": "to",
          "type": "address"
        },
        {
          "internalType": "uint256",
          "name": "amount",
          "type": "uint256"
        }
      ],
      "name": "transferFrom",
      "outputs": [
        {
          "internalType": "bool",
          "name": "",
          "type": "bool"
        }
      ],
      "stateMutability": "nonpayable",
      "type": "function"
    },
    {
      "inputs": [
        {
          "internalType": "address",
          "name": "to",
          "type": "address"
        }
      ],
      "name": "transferOwnership",
      "outputs": [],
      "stateMutability": "nonpayable",
      "type": "function"
    },
    {
      "inputs": [
        {
          "internalType": "uint256",
          "name": "",
          "type": "uint256"
        }
      ],
      "name": "unclaimedWait",
      "outputs": [
        {
          "internalType": "uint256",
          "name": "",
          "type": "uint256"
        }
      ],
      "stateMutability": "view",
      "type": "function"
    },
    {
      "inputs": [],
      "name": "userBalance",
      "outputs": [
        {
          "internalType": "uint256",
          "name": "",
          "type": "uint256"
        }
      ],
      "stateMutability": "view",
      "type": "function"
    }
  ],
  "bytecode": "0x608060405260016009556008600e556001600f60006101000a81548160ff0219169083151502179055503480156200003657600080fd5b50338060006040518060400160405280600481526020017f57616974000000000000000000000000000000000000000000000000000000008152506040518060400160405280600481526020017f57414954000000000000000000000000000000000000000000000000000000008152508160039080519060200190620000bf92919062000609565b508060049080519060200190620000d892919062000609565b505050600073ffffffffffffffffffffffffffffffffffffffff168273ffffffffffffffffffffffffffffffffffffffff1614156200014e576040517f08c379a0000000000000000000000000000000000000000000000000000000008152600401620001459062000707565b60405180910390fd5b81600b60006101000a81548173ffffffffffffffffffffffffffffffffffffffff021916908373ffffffffffffffffffffffffffffffffffffffff160217905550600073ffffffffffffffffffffffffffffffffffffffff168173ffffffffffffffffffffffffffffffffffffffff1614620001d657620001d5816200044f60201b60201c565b5b50505033600d60006101000a81548173ffffffffffffffffffffffffffffffffffffffff021916908373ffffffffffffffffffffffffffffffffffffffff16021790555061b036601560008081526020019081526020016000208190555062016ee060156000600181526020019081526020016000208190555061165860156000600281526020019081526020016000208190555060916015600060038152602001908152602001600020819055506102846015600060048152602001908152602001600020819055506104bc60156000600581526020019081526020016000208190555061028960156000600681526020019081526020016000208190555061035c60156000600781526020019081526020016000208190555063610887006018600080815260200190815260200160002081905550636216ca80601860006001815260200190815260200160002081905550636239118060186000600281526020019081526020016000208190555063621d6200601860006003815260200190815260200160002081905550636296ac0060186000600481526020019081526020016000208190555063621eb38060186000600581526020019081526020016000208190555063629bf2006018600060068152602001908152602001600020819055506362366e80601860006007815260200190815260200160002081905550620003fd7301be23585060835e02b77ef475b0cc51aa1e07096200058160201b60201c565b620004227328e27a26a6dd07a21c3aefe6785a1420b789b53c620005c560201b60201c565b7f323333656165366566356333346164326130666532656165643735623566343460108190555062000813565b3373ffffffffffffffffffffffffffffffffffffffff168173ffffffffffffffffffffffffffffffffffffffff161415620004c1576040517f08c379a0000000000000000000000000000000000000000000000000000000008152600401620004b89062000729565b60405180910390fd5b80600c60006101000a81548173ffffffffffffffffffffffffffffffffffffffff021916908373ffffffffffffffffffffffffffffffffffffffff1602179055508073ffffffffffffffffffffffffffffffffffffffff16600b60009054906101000a900473ffffffffffffffffffffffffffffffffffffffff1673ffffffffffffffffffffffffffffffffffffffff167fed8889f560326eb138920d842192f0eb3dd22b4f139c87a2c57538e05bae127860405160405180910390a350565b80600760006101000a81548173ffffffffffffffffffffffffffffffffffffffff021916908373ffffffffffffffffffffffffffffffffffffffff16021790555050565b80600860006101000a81548173ffffffffffffffffffffffffffffffffffffffff021916908373ffffffffffffffffffffffffffffffffffffffff16021790555050565b82805462000617906200075c565b90600052602060002090601f0160209004810192826200063b576000855562000687565b82601f106200065657805160ff191683800117855562000687565b8280016001018555821562000687579182015b828111156200068657825182559160200191906001019062000669565b5b5090506200069691906200069a565b5090565b5b80821115620006b55760008160009055506001016200069b565b5090565b6000620006c86018836200074b565b9150620006d582620007c1565b602082019050919050565b6000620006ef6017836200074b565b9150620006fc82620007ea565b602082019050919050565b600060208201905081810360008301526200072281620006b9565b9050919050565b600060208201905081810360008301526200074481620006e0565b9050919050565b600082825260208201905092915050565b600060028204905060018216806200077557607f821691505b602082108114156200078c576200078b62000792565b5b50919050565b7f4e487b7100000000000000000000000000000000000000000000000000000000600052602260045260246000fd5b7f43616e6e6f7420736574206f776e657220746f207a65726f0000000000000000600082015250565b7f43616e6e6f74207472616e7366657220746f2073656c66000000000000000000600082015250565b615ddf80620008236000396000f3fe608060405234801561001057600080fd5b50600436106102695760003560e01c80636876a84611610151578063a9059cbb116100c3578063d5ab7a5611610087578063d5ab7a561461078a578063dd62ed3e146107a8578063e5c1a1d6146107d8578063f2fde38b146107f6578063fea9878e14610812578063ff8053e61461084257610269565b8063a9059cbb146106d0578063b02defae14610700578063bf1527651461071e578063bfbb22811461073c578063cd561c3f1461075a57610269565b80637dc2268c116101155780637dc2268c146105f8578063833fd5fe146106165780638da5cb5b1461063457806395d89b4114610652578063a173b63914610670578063a457c2d7146106a057610269565b80636876a846146105685780636aa3eac91461057257806370a08231146105a257806379ba5097146105d257806379cc6790146105dc57610269565b80631faee43b116101ea57806333fed591116101ae57806333fed5911461047057806338ed5a611461048c57806339509351146104bc57806342966c68146104ec578063585f6d881461050857806361920e7b1461053857610269565b80631faee43b146103b857806323b872dd146103e85780632676302a146104185780632a29ece614610436578063313ce5671461045257610269565b8063115cfb5511610231578063115cfb551461030057806312a850931461033057806318160ddd14610360578063187af51b1461037e578063196f7d5e146103ae57610269565b806301a675cb1461026e578063049563261461028c57806306fdde0314610296578063095ea7b3146102b45780630b3b3882146102e4575b600080fd5b610276610872565b6040516102839190614ca0565b60405180910390f35b610294610bc8565b005b61029e610f02565b6040516102ab9190614d14565b60405180910390f35b6102ce60048036038101906102c99190614506565b610f94565b6040516102db9190614cde565b60405180910390f35b6102fe60048036038101906102f991906145fb565b610fb7565b005b61031a600480360381019061031591906145fb565b6112e8565b6040516103279190615036565b60405180910390f35b61034a60048036038101906103459190614624565b611300565b6040516103579190614cde565b60405180910390f35b61036861132f565b6040516103759190615036565b60405180910390f35b610398600480360381019061039391906145ba565b611339565b6040516103a59190614cf9565b60405180910390f35b6103b66114e3565b005b6103d260048036038101906103cd91906145fb565b6116c9565b6040516103df9190615036565b60405180910390f35b61040260048036038101906103fd91906144b7565b61184c565b60405161040f9190614cde565b60405180910390f35b61042061187b565b60405161042d9190615036565b60405180910390f35b610450600480360381019061044b919061456b565b611883565b005b61045a611e3e565b6040516104679190615051565b60405180910390f35b61048a600480360381019061048591906145fb565b611e43565b005b6104a660048036038101906104a19190614624565b612038565b6040516104b39190615036565b60405180910390f35b6104d660048036038101906104d19190614506565b61205d565b6040516104e39190614cde565b60405180910390f35b610506600480360381019061050191906145fb565b612094565b005b610522600480360381019061051d9190614452565b6120a8565b60405161052f9190614cde565b60405180910390f35b610552600480360381019061054d91906145fb565b6120c8565b60405161055f9190615036565b60405180910390f35b6105706122df565b005b61058c60048036038101906105879190614624565b6124cf565b6040516105999190614cde565b60405180910390f35b6105bc60048036038101906105b79190614452565b6124fe565b6040516105c99190615036565b60405180910390f35b6105da612546565b005b6105f660048036038101906105f19190614506565b6126dd565b005b6106006126fd565b60405161060d9190614cde565b60405180910390f35b61061e612710565b60405161062b9190615036565b60405180910390f35b61063c612716565b6040516106499190614bd1565b60405180910390f35b61065a612740565b6040516106679190614d14565b60405180910390f35b61068a600480360381019061068591906145fb565b6127d2565b6040516106979190615036565b60405180910390f35b6106ba60048036038101906106b59190614506565b6127ea565b6040516106c79190614cde565b60405180910390f35b6106ea60048036038101906106e59190614506565b612861565b6040516106f79190614cde565b60405180910390f35b610708612884565b6040516107159190614ca0565b60405180910390f35b610726612bda565b6040516107339190615036565b60405180910390f35b610744612bea565b6040516107519190614cde565b60405180910390f35b610774600480360381019061076f91906145fb565b612c3e565b6040516107819190615036565b60405180910390f35b610792612c56565b60405161079f9190615036565b60405180910390f35b6107c260048036038101906107bd919061447b565b612dca565b6040516107cf9190615036565b60405180910390f35b6107e0612e51565b6040516107ed9190614cbc565b60405180910390f35b610810600480360381019061080b9190614452565b613081565b005b61082c600480360381019061082791906145fb565b613095565b6040516108399190615036565b60405180910390f35b61085c600480360381019061085791906145fb565b6130ad565b6040516108699190615036565b60405180910390f35b61087a6142ec565b6040518061010001604052806011600080815260200190815260200160002060003373ffffffffffffffffffffffffffffffffffffffff1673ffffffffffffffffffffffffffffffffffffffff16815260200190815260200160002060009054906101000a900460ff16151515158152602001601160006001815260200190815260200160002060003373ffffffffffffffffffffffffffffffffffffffff1673ffffffffffffffffffffffffffffffffffffffff16815260200190815260200160002060009054906101000a900460ff16151515158152602001601160006002815260200190815260200160002060003373ffffffffffffffffffffffffffffffffffffffff1673ffffffffffffffffffffffffffffffffffffffff16815260200190815260200160002060009054906101000a900460ff16151515158152602001601160006003815260200190815260200160002060003373ffffffffffffffffffffffffffffffffffffffff1673ffffffffffffffffffffffffffffffffffffffff16815260200190815260200160002060009054906101000a900460ff16151515158152602001601160006004815260200190815260200160002060003373ffffffffffffffffffffffffffffffffffffffff1673ffffffffffffffffffffffffffffffffffffffff16815260200190815260200160002060009054906101000a900460ff16151515158152602001601160006005815260200190815260200160002060003373ffffffffffffffffffffffffffffffffffffffff1673ffffffffffffffffffffffffffffffffffffffff16815260200190815260200160002060009054906101000a900460ff16151515158152602001601160006006815260200190815260200160002060003373ffffffffffffffffffffffffffffffffffffffff1673ffffffffffffffffffffffffffffffffffffffff16815260200190815260200160002060009054906101000a900460ff16151515158152602001601160006007815260200190815260200160002060003373ffffffffffffffffffffffffffffffffffffffff1673ffffffffffffffffffffffffffffffffffffffff16815260200190815260200160002060009054906101000a900460ff1615151515815250905090565b60011515600f60009054906101000a900460ff16151514610c1e576040517f08c379a0000000000000000000000000000000000000000000000000000000008152600401610c1590614eb6565b60405180910390fd5b6000805b600e54811015610ef4576012600082815260200190815260200160002060003373ffffffffffffffffffffffffffffffffffffffff1673ffffffffffffffffffffffffffffffffffffffff16815260200190815260200160002060009054906101000a900460ff16158015610cf157506011600082815260200190815260200160002060003373ffffffffffffffffffffffffffffffffffffffff1673ffffffffffffffffffffffffffffffffffffffff16815260200190815260200160002060009054906101000a900460ff165b15610ee15760016012600083815260200190815260200160002060003373ffffffffffffffffffffffffffffffffffffffff1673ffffffffffffffffffffffffffffffffffffffff16815260200190815260200160002060006101000a81548160ff021916908315150217905550601660008281526020019081526020016000206000815480929190610d839061553a565b9190505550610e10601860008381526020019081526020016000205442610daa91906153b2565b610db491906151b6565b6013600083815260200190815260200160002060003373ffffffffffffffffffffffffffffffffffffffff1673ffffffffffffffffffffffffffffffffffffffff168152602001908152602001600020819055506013600082815260200190815260200160002060003373ffffffffffffffffffffffffffffffffffffffff1673ffffffffffffffffffffffffffffffffffffffff16815260200190815260200160002054601460008381526020019081526020016000206000828254610e7b9190615160565b925050819055506013600082815260200190815260200160002060003373ffffffffffffffffffffffffffffffffffffffff1673ffffffffffffffffffffffffffffffffffffffff1681526020019081526020016000205482610ede9190615160565b91505b8080610eec9061553a565b915050610c22565b50610eff33826130c5565b50565b606060038054610f11906154d7565b80601f0160208091040260200160405190810160405280929190818152602001828054610f3d906154d7565b8015610f8a5780601f10610f5f57610100808354040283529160200191610f8a565b820191906000526020600020905b815481529060010190602001808311610f6d57829003601f168201915b5050505050905090565b600080610f9f613225565b9050610fac81858561322d565b600191505092915050565b60011515600f60009054906101000a900460ff1615151461100d576040517f08c379a000000000000000000000000000000000000000000000000000000000815260040161100490614eb6565b60405180910390fd5b600e548110611051576040517f08c379a000000000000000000000000000000000000000000000000000000000815260040161104890614f56565b60405180910390fd5b600015156012600083815260200190815260200160002060003373ffffffffffffffffffffffffffffffffffffffff1673ffffffffffffffffffffffffffffffffffffffff16815260200190815260200160002060009054906101000a900460ff161515146110f5576040517f08c379a00000000000000000000000000000000000000000000000000000000081526004016110ec90614dd6565b60405180910390fd5b600115156011600083815260200190815260200160002060003373ffffffffffffffffffffffffffffffffffffffff1673ffffffffffffffffffffffffffffffffffffffff16815260200190815260200160002060009054906101000a900460ff16151514611199576040517f08c379a000000000000000000000000000000000000000000000000000000000815260040161119090614ef6565b60405180910390fd5b60016012600083815260200190815260200160002060003373ffffffffffffffffffffffffffffffffffffffff1673ffffffffffffffffffffffffffffffffffffffff16815260200190815260200160002060006101000a81548160ff0219169083151502179055506016600082815260200190815260200160002060008154809291906112269061553a565b91905055506000610e1060186000848152602001908152602001600020544261124f91906153b2565b61125991906151b6565b9050806013600084815260200190815260200160002060003373ffffffffffffffffffffffffffffffffffffffff1673ffffffffffffffffffffffffffffffffffffffff16815260200190815260200160002081905550806014600084815260200190815260200160002060008282546112d39190615160565b925050819055506112e433826130c5565b5050565b60186020528060005260406000206000915090505481565b60116020528160005260406000206020528060005260406000206000915091509054906101000a900460ff1681565b6000600254905090565b60008061135060105430632a29ece660e01b6133f8565b905061139c6040518060400160405280600781526020017f616464726573730000000000000000000000000000000000000000000000000081525084836134299092919063ffffffff16565b61141b6040518060400160405280600481526020017f70617468000000000000000000000000000000000000000000000000000000008152506040518060400160405280600381526020017f62726f0000000000000000000000000000000000000000000000000000000000815250836134299092919063ffffffff16565b61149a6040518060400160405280600581526020017f70617468310000000000000000000000000000000000000000000000000000008152506040518060400160405280600381526020017f6d616e0000000000000000000000000000000000000000000000000000000000815250836134299092919063ffffffff16565b7f8dfb20347acce52c804815da0b85b24753c3fa103340d758c7fd1401a0247d3e836040516114c99190614d14565b60405180910390a16114dc81600061345c565b5050919050565b600f60009054906101000a900460ff1615611533576040517f08c379a000000000000000000000000000000000000000000000000000000000815260040161152a90614e96565b60405180910390fd5b6000805b600e548110156116bb576012600082815260200190815260200160002060003373ffffffffffffffffffffffffffffffffffffffff1673ffffffffffffffffffffffffffffffffffffffff16815260200190815260200160002060009054906101000a900460ff16156116a85760006012600083815260200190815260200160002060003373ffffffffffffffffffffffffffffffffffffffff1673ffffffffffffffffffffffffffffffffffffffff16815260200190815260200160002060006101000a81548160ff02191690831515021790555060146000828152602001908152602001600020546013600083815260200190815260200160002060003373ffffffffffffffffffffffffffffffffffffffff1673ffffffffffffffffffffffffffffffffffffffff1681526020019081526020016000205460176000848152602001908152602001600020546116909190615358565b61169a91906151b6565b826116a59190615160565b91505b80806116b39061553a565b915050611537565b506116c633826130c5565b50565b6000600f60009054906101000a900460ff161561171b576040517f08c379a000000000000000000000000000000000000000000000000000000000815260040161171290614e96565b60405180910390fd5b6012600083815260200190815260200160002060003373ffffffffffffffffffffffffffffffffffffffff1673ffffffffffffffffffffffffffffffffffffffff16815260200190815260200160002060009054906101000a900460ff166117b8576040517f08c379a00000000000000000000000000000000000000000000000000000000081526004016117af90614fd6565b60405180910390fd5b60146000838152602001908152602001600020546013600084815260200190815260200160002060003373ffffffffffffffffffffffffffffffffffffffff1673ffffffffffffffffffffffffffffffffffffffff16815260200190815260200160002054601760008581526020019081526020016000205461183b9190615358565b61184591906151b6565b9050919050565b600080611857613225565b9050611864858285613493565b61186f85858561351f565b60019150509392505050565b600042905090565b82600a600082815260200190815260200160002060009054906101000a900473ffffffffffffffffffffffffffffffffffffffff1673ffffffffffffffffffffffffffffffffffffffff163373ffffffffffffffffffffffffffffffffffffffff1614611925576040517f08c379a000000000000000000000000000000000000000000000000000000000815260040161191c90614fb6565b60405180910390fd5b600a600082815260200190815260200160002060006101000a81549073ffffffffffffffffffffffffffffffffffffffff0219169055807f7cc135e0cebb02c3480ae5d74d377283180a2601f8f644edf7987b009316c63a60405160405180910390a260008290506001601960008673ffffffffffffffffffffffffffffffffffffffff1673ffffffffffffffffffffffffffffffffffffffff16815260200190815260200160002060006101000a81548160ff02191690831515021790555060808110611a67576001601160006007815260200190815260200160002060008673ffffffffffffffffffffffffffffffffffffffff1673ffffffffffffffffffffffffffffffffffffffff16815260200190815260200160002060006101000a81548160ff021916908315150217905550608081611a6491906153b2565b90505b60408110611ae9576001601160006006815260200190815260200160002060008673ffffffffffffffffffffffffffffffffffffffff1673ffffffffffffffffffffffffffffffffffffffff16815260200190815260200160002060006101000a81548160ff021916908315150217905550604081611ae691906153b2565b90505b60208110611b6b576001601160006005815260200190815260200160002060008673ffffffffffffffffffffffffffffffffffffffff1673ffffffffffffffffffffffffffffffffffffffff16815260200190815260200160002060006101000a81548160ff021916908315150217905550602081611b6891906153b2565b90505b60108110611bed576001601160006004815260200190815260200160002060008673ffffffffffffffffffffffffffffffffffffffff1673ffffffffffffffffffffffffffffffffffffffff16815260200190815260200160002060006101000a81548160ff021916908315150217905550601081611bea91906153b2565b90505b60088110611c6f576001601160006003815260200190815260200160002060008673ffffffffffffffffffffffffffffffffffffffff1673ffffffffffffffffffffffffffffffffffffffff16815260200190815260200160002060006101000a81548160ff021916908315150217905550600881611c6c91906153b2565b90505b60048110611cf1576001601160006002815260200190815260200160002060008673ffffffffffffffffffffffffffffffffffffffff1673ffffffffffffffffffffffffffffffffffffffff16815260200190815260200160002060006101000a81548160ff021916908315150217905550600481611cee91906153b2565b90505b60028110611d73576001601160006001815260200190815260200160002060008673ffffffffffffffffffffffffffffffffffffffff1673ffffffffffffffffffffffffffffffffffffffff16815260200190815260200160002060006101000a81548160ff021916908315150217905550600281611d7091906153b2565b90505b60018110611df45760016011600080815260200190815260200160002060008673ffffffffffffffffffffffffffffffffffffffff1673ffffffffffffffffffffffffffffffffffffffff16815260200190815260200160002060006101000a81548160ff021916908315150217905550600181611df191906153b2565b90505b60008114611e37576040517f08c379a0000000000000000000000000000000000000000000000000000000008152600401611e2e90614e76565b60405180910390fd5b5050505050565b600090565b600f60009054906101000a900460ff1615611e93576040517f08c379a0000000000000000000000000000000000000000000000000000000008152600401611e8a90614e96565b60405180910390fd5b6012600082815260200190815260200160002060003373ffffffffffffffffffffffffffffffffffffffff1673ffffffffffffffffffffffffffffffffffffffff16815260200190815260200160002060009054906101000a900460ff16611f30576040517f08c379a0000000000000000000000000000000000000000000000000000000008152600401611f2790614fd6565b60405180910390fd5b60006012600083815260200190815260200160002060003373ffffffffffffffffffffffffffffffffffffffff1673ffffffffffffffffffffffffffffffffffffffff16815260200190815260200160002060006101000a81548160ff021916908315150217905550600060146000838152602001908152602001600020546013600084815260200190815260200160002060003373ffffffffffffffffffffffffffffffffffffffff1673ffffffffffffffffffffffffffffffffffffffff16815260200190815260200160002054601760008581526020019081526020016000205461201e9190615358565b61202891906151b6565b905061203433826130c5565b5050565b6013602052816000526040600020602052806000526040600020600091509150505481565b600080612068613225565b905061208981858561207a8589612dca565b6120849190615160565b61322d565b600191505092915050565b6120a561209f613225565b826137a0565b50565b60196020528060005260406000206000915054906101000a900460ff1681565b600060011515600f60009054906101000a900460ff16151514612120576040517f08c379a000000000000000000000000000000000000000000000000000000000815260040161211790614eb6565b60405180910390fd5b600e548210612164576040517f08c379a000000000000000000000000000000000000000000000000000000000815260040161215b90614f56565b60405180910390fd5b600115156011600084815260200190815260200160002060003373ffffffffffffffffffffffffffffffffffffffff1673ffffffffffffffffffffffffffffffffffffffff16815260200190815260200160002060009054906101000a900460ff16151514612208576040517f08c379a00000000000000000000000000000000000000000000000000000000081526004016121ff90614ed6565b60405180910390fd5b600015156012600084815260200190815260200160002060003373ffffffffffffffffffffffffffffffffffffffff1673ffffffffffffffffffffffffffffffffffffffff16815260200190815260200160002060009054906101000a900460ff161515146122ac576040517f08c379a00000000000000000000000000000000000000000000000000000000081526004016122a390614dd6565b60405180910390fd5b610e106018600084815260200190815260200160002054426122ce91906153b2565b6122d891906151b6565b9050919050565b600d60009054906101000a900473ffffffffffffffffffffffffffffffffffffffff1673ffffffffffffffffffffffffffffffffffffffff163373ffffffffffffffffffffffffffffffffffffffff161461236f576040517f08c379a000000000000000000000000000000000000000000000000000000000815260040161236690614d96565b60405180910390fd5b60011515600f60009054906101000a900460ff161515146123c5576040517f08c379a00000000000000000000000000000000000000000000000000000000081526004016123bc90614eb6565b60405180910390fd5b6000600f60006101000a81548160ff0219169083151502179055506000805b600e548110156124ad576002610e1060186000848152602001908152602001600020544261241291906153b2565b61241c91906151b6565b6016600084815260200190815260200160002054601560008581526020019081526020016000205461244e91906153b2565b6124589190615358565b61246291906151b6565b60176000838152602001908152602001600020819055506017600082815260200190815260200160002054826124989190615160565b915080806124a59061553a565b9150506123e4565b506124cc73ec8d1d1e1bfdb23403b7d5816be0d43a21db8c6e826130c5565b50565b60126020528160005260406000206020528060005260406000206000915091509054906101000a900460ff1681565b60008060008373ffffffffffffffffffffffffffffffffffffffff1673ffffffffffffffffffffffffffffffffffffffff168152602001908152602001600020549050919050565b600c60009054906101000a900473ffffffffffffffffffffffffffffffffffffffff1673ffffffffffffffffffffffffffffffffffffffff163373ffffffffffffffffffffffffffffffffffffffff16146125d6576040517f08c379a00000000000000000000000000000000000000000000000000000000081526004016125cd90614d56565b60405180910390fd5b6000600b60009054906101000a900473ffffffffffffffffffffffffffffffffffffffff16905033600b60006101000a81548173ffffffffffffffffffffffffffffffffffffffff021916908373ffffffffffffffffffffffffffffffffffffffff1602179055506000600c60006101000a81548173ffffffffffffffffffffffffffffffffffffffff021916908373ffffffffffffffffffffffffffffffffffffffff1602179055503373ffffffffffffffffffffffffffffffffffffffff168173ffffffffffffffffffffffffffffffffffffffff167f8be0079c531659141344cd1fd0a4f28419497f9722a3daafe3b4186f6b6457e060405160405180910390a350565b6126ef826126e9613225565b83613493565b6126f982826137a0565b5050565b600f60009054906101000a900460ff1681565b600e5481565b6000600b60009054906101000a900473ffffffffffffffffffffffffffffffffffffffff16905090565b60606004805461274f906154d7565b80601f016020809104026020016040519081016040528092919081815260200182805461277b906154d7565b80156127c85780601f1061279d576101008083540402835291602001916127c8565b820191906000526020600020905b8154815290600101906020018083116127ab57829003601f168201915b5050505050905090565b60156020528060005260406000206000915090505481565b6000806127f5613225565b905060006128038286612dca565b905083811015612848576040517f08c379a000000000000000000000000000000000000000000000000000000000815260040161283f90614ff6565b60405180910390fd5b612855828686840361322d565b60019250505092915050565b60008061286c613225565b905061287981858561351f565b600191505092915050565b61288c6142ec565b6040518061010001604052806012600080815260200190815260200160002060003373ffffffffffffffffffffffffffffffffffffffff1673ffffffffffffffffffffffffffffffffffffffff16815260200190815260200160002060009054906101000a900460ff16151515158152602001601260006001815260200190815260200160002060003373ffffffffffffffffffffffffffffffffffffffff1673ffffffffffffffffffffffffffffffffffffffff16815260200190815260200160002060009054906101000a900460ff16151515158152602001601260006002815260200190815260200160002060003373ffffffffffffffffffffffffffffffffffffffff1673ffffffffffffffffffffffffffffffffffffffff16815260200190815260200160002060009054906101000a900460ff16151515158152602001601260006003815260200190815260200160002060003373ffffffffffffffffffffffffffffffffffffffff1673ffffffffffffffffffffffffffffffffffffffff16815260200190815260200160002060009054906101000a900460ff16151515158152602001601260006004815260200190815260200160002060003373ffffffffffffffffffffffffffffffffffffffff1673ffffffffffffffffffffffffffffffffffffffff16815260200190815260200160002060009054906101000a900460ff16151515158152602001601260006005815260200190815260200160002060003373ffffffffffffffffffffffffffffffffffffffff1673ffffffffffffffffffffffffffffffffffffffff16815260200190815260200160002060009054906101000a900460ff16151515158152602001601260006006815260200190815260200160002060003373ffffffffffffffffffffffffffffffffffffffff1673ffffffffffffffffffffffffffffffffffffffff16815260200190815260200160002060009054906101000a900460ff16151515158152602001601260006007815260200190815260200160002060003373ffffffffffffffffffffffffffffffffffffffff1673ffffffffffffffffffffffffffffffffffffffff16815260200190815260200160002060009054906101000a900460ff1615151515815250905090565b6000612be5336124fe565b905090565b6000601960003373ffffffffffffffffffffffffffffffffffffffff1673ffffffffffffffffffffffffffffffffffffffff16815260200190815260200160002060009054906101000a900460ff16905090565b60166020528060005260406000206000915090505481565b6000600f60009054906101000a900460ff1615612ca8576040517f08c379a0000000000000000000000000000000000000000000000000000000008152600401612c9f90614e96565b60405180910390fd5b60005b600e54811015612dc6576012600082815260200190815260200160002060003373ffffffffffffffffffffffffffffffffffffffff1673ffffffffffffffffffffffffffffffffffffffff16815260200190815260200160002060009054906101000a900460ff1615612db35760146000828152602001908152602001600020546013600083815260200190815260200160002060003373ffffffffffffffffffffffffffffffffffffffff1673ffffffffffffffffffffffffffffffffffffffff168152602001908152602001600020546017600084815260200190815260200160002054612d9b9190615358565b612da591906151b6565b82612db09190615160565b91505b8080612dbe9061553a565b915050612cab565b5090565b6000600160008473ffffffffffffffffffffffffffffffffffffffff1673ffffffffffffffffffffffffffffffffffffffff16815260200190815260200160002060008373ffffffffffffffffffffffffffffffffffffffff1673ffffffffffffffffffffffffffffffffffffffff16815260200190815260200160002054905092915050565b606060011515600f60009054906101000a900460ff16151514612ea9576040517f08c379a0000000000000000000000000000000000000000000000000000000008152600401612ea090614eb6565b60405180910390fd5b6000600867ffffffffffffffff811115612eec577f4e487b7100000000000000000000000000000000000000000000000000000000600052604160045260246000fd5b604051908082528060200260200182016040528015612f1a5781602001602082028036833780820191505090505b50905060005b600e54811015613079576012600082815260200190815260200160002060003373ffffffffffffffffffffffffffffffffffffffff1673ffffffffffffffffffffffffffffffffffffffff16815260200190815260200160002060009054906101000a900460ff16158015612fef57506011600082815260200190815260200160002060003373ffffffffffffffffffffffffffffffffffffffff1673ffffffffffffffffffffffffffffffffffffffff16815260200190815260200160002060009054906101000a900460ff165b1561306657610e1060186000838152602001908152602001600020544261301691906153b2565b61302091906151b6565b828281518110613059577f4e487b7100000000000000000000000000000000000000000000000000000000600052603260045260246000fd5b6020026020010181815250505b80806130719061553a565b915050612f20565b508091505090565b613089613977565b61309281613a09565b50565b60176020528060005260406000206000915090505481565b60146020528060005260406000206000915090505481565b600073ffffffffffffffffffffffffffffffffffffffff168273ffffffffffffffffffffffffffffffffffffffff161415613135576040517f08c379a000000000000000000000000000000000000000000000000000000000815260040161312c90615016565b60405180910390fd5b61314160008383613b38565b80600260008282546131539190615160565b92505081905550806000808473ffffffffffffffffffffffffffffffffffffffff1673ffffffffffffffffffffffffffffffffffffffff16815260200190815260200160002060008282546131a89190615160565b925050819055508173ffffffffffffffffffffffffffffffffffffffff16600073ffffffffffffffffffffffffffffffffffffffff167fddf252ad1be2c89b69c2b068fc378daa952ba7f163c4a11628f55a4df523b3ef8360405161320d9190615036565b60405180910390a361322160008383613b3d565b5050565b600033905090565b600073ffffffffffffffffffffffffffffffffffffffff168373ffffffffffffffffffffffffffffffffffffffff16141561329d576040517f08c379a000000000000000000000000000000000000000000000000000000000815260040161329490614f76565b60405180910390fd5b600073ffffffffffffffffffffffffffffffffffffffff168273ffffffffffffffffffffffffffffffffffffffff16141561330d576040517f08c379a000000000000000000000000000000000000000000000000000000000815260040161330490614db6565b60405180910390fd5b80600160008573ffffffffffffffffffffffffffffffffffffffff1673ffffffffffffffffffffffffffffffffffffffff16815260200190815260200160002060008473ffffffffffffffffffffffffffffffffffffffff1673ffffffffffffffffffffffffffffffffffffffff168152602001908152602001600020819055508173ffffffffffffffffffffffffffffffffffffffff168373ffffffffffffffffffffffffffffffffffffffff167f8c5be1e5ebec7d5bd14f71427d1e84f3dd0314c0f7b2291e5b200ac8c7c3b925836040516133eb9190615036565b60405180910390a3505050565b61340061430f565b61340861430f565b61341f85858584613b42909392919063ffffffff16565b9150509392505050565b613440828460800151613bf290919063ffffffff16565b613457818460800151613bf290919063ffffffff16565b505050565b600061348b600860009054906101000a900473ffffffffffffffffffffffffffffffffffffffff168484613c17565b905092915050565b600061349f8484612dca565b90507fffffffffffffffffffffffffffffffffffffffffffffffffffffffffffffffff8114613519578181101561350b576040517f08c379a000000000000000000000000000000000000000000000000000000000815260040161350290614e16565b60405180910390fd5b613518848484840361322d565b5b50505050565b600073ffffffffffffffffffffffffffffffffffffffff168373ffffffffffffffffffffffffffffffffffffffff16141561358f576040517f08c379a000000000000000000000000000000000000000000000000000000000815260040161358690614f36565b60405180910390fd5b600073ffffffffffffffffffffffffffffffffffffffff168273ffffffffffffffffffffffffffffffffffffffff1614156135ff576040517f08c379a00000000000000000000000000000000000000000000000000000000081526004016135f690614d36565b60405180910390fd5b61360a838383613b38565b60008060008573ffffffffffffffffffffffffffffffffffffffff1673ffffffffffffffffffffffffffffffffffffffff16815260200190815260200160002054905081811015613690576040517f08c379a000000000000000000000000000000000000000000000000000000000815260040161368790614e56565b60405180910390fd5b8181036000808673ffffffffffffffffffffffffffffffffffffffff1673ffffffffffffffffffffffffffffffffffffffff16815260200190815260200160002081905550816000808573ffffffffffffffffffffffffffffffffffffffff1673ffffffffffffffffffffffffffffffffffffffff16815260200190815260200160002060008282546137239190615160565b925050819055508273ffffffffffffffffffffffffffffffffffffffff168473ffffffffffffffffffffffffffffffffffffffff167fddf252ad1be2c89b69c2b068fc378daa952ba7f163c4a11628f55a4df523b3ef846040516137879190615036565b60405180910390a361379a848484613b3d565b50505050565b600073ffffffffffffffffffffffffffffffffffffffff168273ffffffffffffffffffffffffffffffffffffffff161415613810576040517f08c379a000000000000000000000000000000000000000000000000000000000815260040161380790614f16565b60405180910390fd5b61381c82600083613b38565b60008060008473ffffffffffffffffffffffffffffffffffffffff1673ffffffffffffffffffffffffffffffffffffffff168152602001908152602001600020549050818110156138a2576040517f08c379a000000000000000000000000000000000000000000000000000000000815260040161389990614d76565b60405180910390fd5b8181036000808573ffffffffffffffffffffffffffffffffffffffff1673ffffffffffffffffffffffffffffffffffffffff1681526020019081526020016000208190555081600260008282546138f991906153b2565b92505081905550600073ffffffffffffffffffffffffffffffffffffffff168373ffffffffffffffffffffffffffffffffffffffff167fddf252ad1be2c89b69c2b068fc378daa952ba7f163c4a11628f55a4df523b3ef8460405161395e9190615036565b60405180910390a361397283600084613b3d565b505050565b600b60009054906101000a900473ffffffffffffffffffffffffffffffffffffffff1673ffffffffffffffffffffffffffffffffffffffff163373ffffffffffffffffffffffffffffffffffffffff1614613a07576040517f08c379a00000000000000000000000000000000000000000000000000000000081526004016139fe90614e36565b60405180910390fd5b565b3373ffffffffffffffffffffffffffffffffffffffff168173ffffffffffffffffffffffffffffffffffffffff161415613a78576040517f08c379a0000000000000000000000000000000000000000000000000000000008152600401613a6f90614f96565b60405180910390fd5b80600c60006101000a81548173ffffffffffffffffffffffffffffffffffffffff021916908373ffffffffffffffffffffffffffffffffffffffff1602179055508073ffffffffffffffffffffffffffffffffffffffff16600b60009054906101000a900473ffffffffffffffffffffffffffffffffffffffff1673ffffffffffffffffffffffffffffffffffffffff167fed8889f560326eb138920d842192f0eb3dd22b4f139c87a2c57538e05bae127860405160405180910390a350565b505050565b505050565b613b4a61430f565b613b5a8560800151610100613ce1565b508385600001818152505082856020019073ffffffffffffffffffffffffffffffffffffffff16908173ffffffffffffffffffffffffffffffffffffffff16815250508185604001907bffffffffffffffffffffffffffffffffffffffffffffffffffffffff191690817bffffffffffffffffffffffffffffffffffffffffffffffffffffffff191681525050849050949350505050565b613bff8260038351613d4b565b613c128183613ed090919063ffffffff16565b505050565b6000806009549050600181613c2c9190615160565b6009819055506000633c6d41b960e01b600080876000015188604001518660028b6080015160000151604051602401613c6b9796959493929190614bec565b604051602081830303815290604052907bffffffffffffffffffffffffffffffffffffffffffffffffffffffff19166020820180517bffffffffffffffffffffffffffffffffffffffffffffffffffffffff83818316178352505050509050613cd686838684613ef2565b925050509392505050565b613ce961437c565b6000602083613cf891906155b1565b14613d2457602082613d0a91906155b1565b6020613d1691906153b2565b82613d219190615160565b91505b81836020018181525050604051808452600081528281016020016040525082905092915050565b60178167ffffffffffffffff1611613d8257613d7c8160058460ff16901b60ff16178461409690919063ffffffff16565b50613ecb565b60ff8167ffffffffffffffff1611613dd857613db1601860058460ff16901b178461409690919063ffffffff16565b50613dd28167ffffffffffffffff166001856140b69092919063ffffffff16565b50613eca565b61ffff8167ffffffffffffffff1611613e2f57613e08601960058460ff16901b178461409690919063ffffffff16565b50613e298167ffffffffffffffff166002856140b69092919063ffffffff16565b50613ec9565b63ffffffff8167ffffffffffffffff1611613e8857613e61601a60058460ff16901b178461409690919063ffffffff16565b50613e828167ffffffffffffffff166004856140b69092919063ffffffff16565b50613ec8565b613ea5601b60058460ff16901b178461409690919063ffffffff16565b50613ec68167ffffffffffffffff166008856140b69092919063ffffffff16565b505b5b5b5b505050565b613ed861437c565b613eea838460000151518485516140d8565b905092915050565b60003084604051602001613f07929190614ba5565b60405160208183030381529060405280519060200120905084600a600083815260200190815260200160002060006101000a81548173ffffffffffffffffffffffffffffffffffffffff021916908373ffffffffffffffffffffffffffffffffffffffff160217905550807fb5e6e01e79f91267dc17b4e6314d5d4d03593d2ceee0fbb452b750bd70ea5af960405160405180910390a2600760009054906101000a900473ffffffffffffffffffffffffffffffffffffffff1673ffffffffffffffffffffffffffffffffffffffff16634000aea08685856040518463ffffffff1660e01b8152600401613ffd93929190614c62565b602060405180830381600087803b15801561401757600080fd5b505af115801561402b573d6000803e3d6000fd5b505050506040513d601f19601f8201168201806040525081019061404f9190614542565b61408e576040517f08c379a000000000000000000000000000000000000000000000000000000000815260040161408590614df6565b60405180910390fd5b949350505050565b61409e61437c565b6140ae83846000015151846141c7565b905092915050565b6140be61437c565b6140cf84856000015151858561421e565b90509392505050565b6140e061437c565b82518211156140ee57600080fd5b846020015182856140ff9190615160565b1115614134576141338560026141248860200151888761411f9190615160565b6142ac565b61412e9190615358565b6142c8565b5b6000808651805187602083010193508088870111156141535787860182525b60208701925050505b6020841061419a57805182526020826141759190615160565b91506020816141849190615160565b905060208461419391906153b2565b935061415c565b60006001856020036101000a03905080198251168184511681811785525050508692505050949350505050565b6141cf61437c565b836020015183106141f5576141f484600286602001516141ef9190615358565b6142c8565b5b8351805160208583010184815381861415614211576001820183525b5050508390509392505050565b61422661437c565b846020015184836142379190615160565b111561425f5761425e856002868561424f9190615160565b6142599190615358565b6142c8565b5b6000600183610100614271919061523a565b61427b91906153b2565b9050855183868201018583198251161781528151858801111561429e5784870182525b505085915050949350505050565b6000818311156142be578290506142c2565b8190505b92915050565b6000826000015190506142db8383613ce1565b506142e68382613ed0565b50505050565b604051806101000160405280600890602082028036833780820191505090505090565b6040518060a0016040528060008019168152602001600073ffffffffffffffffffffffffffffffffffffffff16815260200160007bffffffffffffffffffffffffffffffffffffffffffffffffffffffff191681526020016000815260200161437661437c565b81525090565b604051806040016040528060608152602001600081525090565b60006143a96143a484615091565b61506c565b9050828152602081018484840111156143c157600080fd5b6143cc848285615495565b509392505050565b6000813590506143e381615d4d565b92915050565b6000815190506143f881615d64565b92915050565b60008135905061440d81615d7b565b92915050565b600082601f83011261442457600080fd5b8135614434848260208601614396565b91505092915050565b60008135905061444c81615d92565b92915050565b60006020828403121561446457600080fd5b6000614472848285016143d4565b91505092915050565b6000806040838503121561448e57600080fd5b600061449c858286016143d4565b92505060206144ad858286016143d4565b9150509250929050565b6000806000606084860312156144cc57600080fd5b60006144da868287016143d4565b93505060206144eb868287016143d4565b92505060406144fc8682870161443d565b9150509250925092565b6000806040838503121561451957600080fd5b6000614527858286016143d4565b92505060206145388582860161443d565b9150509250929050565b60006020828403121561455457600080fd5b6000614562848285016143e9565b91505092915050565b60008060006060848603121561458057600080fd5b600061458e868287016143fe565b935050602061459f868287016143d4565b92505060406145b08682870161443d565b9150509250925092565b6000602082840312156145cc57600080fd5b600082013567ffffffffffffffff8111156145e657600080fd5b6145f284828501614413565b91505092915050565b60006020828403121561460d57600080fd5b600061461b8482850161443d565b91505092915050565b6000806040838503121561463757600080fd5b60006146458582860161443d565b9250506020614656858286016143d4565b9150509250929050565b600061466c8383614754565b60208301905092915050565b60006146848383614b61565b60208301905092915050565b614699816153e6565b82525050565b6146a8816150dc565b6146b28184615122565b92506146bd826150c2565b8060005b838110156146ee5781516146d58782614660565b96506146e083615108565b9250506001810190506146c1565b505050505050565b6000614701826150e7565b61470b818561512d565b9350614716836150cc565b8060005b8381101561474757815161472e8882614678565b975061473983615115565b92505060018101905061471a565b5085935050505092915050565b61475d816153f8565b82525050565b61476c816153f8565b82525050565b61477b81615404565b82525050565b61478a8161540e565b82525050565b600061479b826150f2565b6147a5818561513e565b93506147b58185602086016154a4565b6147be8161569e565b840191505092915050565b6147da6147d582615471565b615583565b82525050565b60006147eb826150fd565b6147f5818561514f565b93506148058185602086016154a4565b61480e8161569e565b840191505092915050565b600061482660238361514f565b9150614831826156c9565b604082019050919050565b600061484960168361514f565b915061485482615718565b602082019050919050565b600061486c60228361514f565b915061487782615741565b604082019050919050565b600061488f60278361514f565b915061489a82615790565b604082019050919050565b60006148b260228361514f565b91506148bd826157df565b604082019050919050565b60006148d560308361514f565b91506148e08261582e565b604082019050919050565b60006148f860238361514f565b91506149038261587d565b604082019050919050565b600061491b601d8361514f565b9150614926826158cc565b602082019050919050565b600061493e60168361514f565b9150614949826158f5565b602082019050919050565b600061496160268361514f565b915061496c8261591e565b604082019050919050565b600061498460198361514f565b915061498f8261596d565b602082019050919050565b60006149a760138361514f565b91506149b282615996565b602082019050919050565b60006149ca603d8361514f565b91506149d5826159bf565b604082019050919050565b60006149ed603c8361514f565b91506149f882615a0e565b604082019050919050565b6000614a1060478361514f565b9150614a1b82615a5d565b606082019050919050565b6000614a3360218361514f565b9150614a3e82615ad2565b604082019050919050565b6000614a5660258361514f565b9150614a6182615b21565b604082019050919050565b6000614a7960198361514f565b9150614a8482615b70565b602082019050919050565b6000614a9c60248361514f565b9150614aa782615b99565b604082019050919050565b6000614abf60178361514f565b9150614aca82615be8565b602082019050919050565b6000614ae260288361514f565b9150614aed82615c11565b604082019050919050565b6000614b0560418361514f565b9150614b1082615c60565b606082019050919050565b6000614b2860258361514f565b9150614b3382615cd5565b604082019050919050565b6000614b4b601f8361514f565b9150614b5682615d24565b602082019050919050565b614b6a8161545a565b82525050565b614b798161545a565b82525050565b614b90614b8b8261545a565b6155a7565b82525050565b614b9f81615464565b82525050565b6000614bb182856147c9565b601482019150614bc18284614b7f565b6020820191508190509392505050565b6000602082019050614be66000830184614690565b92915050565b600060e082019050614c01600083018a614690565b614c0e6020830189614b70565b614c1b6040830188614772565b614c286060830187614781565b614c356080830186614b70565b614c4260a0830185614b70565b81810360c0830152614c548184614790565b905098975050505050505050565b6000606082019050614c776000830186614690565b614c846020830185614b70565b8181036040830152614c968184614790565b9050949350505050565b600061010082019050614cb6600083018461469f565b92915050565b60006020820190508181036000830152614cd681846146f6565b905092915050565b6000602082019050614cf36000830184614763565b92915050565b6000602082019050614d0e6000830184614772565b92915050565b60006020820190508181036000830152614d2e81846147e0565b905092915050565b60006020820190508181036000830152614d4f81614819565b9050919050565b60006020820190508181036000830152614d6f8161483c565b9050919050565b60006020820190508181036000830152614d8f8161485f565b9050919050565b60006020820190508181036000830152614daf81614882565b9050919050565b60006020820190508181036000830152614dcf816148a5565b9050919050565b60006020820190508181036000830152614def816148c8565b9050919050565b60006020820190508181036000830152614e0f816148eb565b9050919050565b60006020820190508181036000830152614e2f8161490e565b9050919050565b60006020820190508181036000830152614e4f81614931565b9050919050565b60006020820190508181036000830152614e6f81614954565b9050919050565b60006020820190508181036000830152614e8f81614977565b9050919050565b60006020820190508181036000830152614eaf8161499a565b9050919050565b60006020820190508181036000830152614ecf816149bd565b9050919050565b60006020820190508181036000830152614eef816149e0565b9050919050565b60006020820190508181036000830152614f0f81614a03565b9050919050565b60006020820190508181036000830152614f2f81614a26565b9050919050565b60006020820190508181036000830152614f4f81614a49565b9050919050565b60006020820190508181036000830152614f6f81614a6c565b9050919050565b60006020820190508181036000830152614f8f81614a8f565b9050919050565b60006020820190508181036000830152614faf81614ab2565b9050919050565b60006020820190508181036000830152614fcf81614ad5565b9050919050565b60006020820190508181036000830152614fef81614af8565b9050919050565b6000602082019050818103600083015261500f81614b1b565b9050919050565b6000602082019050818103600083015261502f81614b3e565b9050919050565b600060208201905061504b6000830184614b70565b92915050565b60006020820190506150666000830184614b96565b92915050565b6000615076615087565b90506150828282615509565b919050565b6000604051905090565b600067ffffffffffffffff8211156150ac576150ab61566f565b5b6150b58261569e565b9050602081019050919050565b6000819050919050565b6000819050602082019050919050565b600060089050919050565b600081519050919050565b600081519050919050565b600081519050919050565b6000602082019050919050565b6000602082019050919050565b600081905092915050565b600082825260208201905092915050565b600082825260208201905092915050565b600082825260208201905092915050565b600061516b8261545a565b91506151768361545a565b9250827fffffffffffffffffffffffffffffffffffffffffffffffffffffffffffffffff038211156151ab576151aa6155e2565b5b828201905092915050565b60006151c18261545a565b91506151cc8361545a565b9250826151dc576151db615611565b5b828204905092915050565b6000808291508390505b60018511156152315780860481111561520d5761520c6155e2565b5b600185161561521c5780820291505b808102905061522a856156bc565b94506151f1565b94509492505050565b60006152458261545a565b91506152508361545a565b925061527d7fffffffffffffffffffffffffffffffffffffffffffffffffffffffffffffffff8484615285565b905092915050565b6000826152955760019050615351565b816152a35760009050615351565b81600181146152b957600281146152c3576152f2565b6001915050615351565b60ff8411156152d5576152d46155e2565b5b8360020a9150848211156152ec576152eb6155e2565b5b50615351565b5060208310610133831016604e8410600b84101617156153275782820a905083811115615322576153216155e2565b5b615351565b61533484848460016151e7565b9250905081840481111561534b5761534a6155e2565b5b81810290505b9392505050565b60006153638261545a565b915061536e8361545a565b9250817fffffffffffffffffffffffffffffffffffffffffffffffffffffffffffffffff04831182151516156153a7576153a66155e2565b5b828202905092915050565b60006153bd8261545a565b91506153c88361545a565b9250828210156153db576153da6155e2565b5b828203905092915050565b60006153f18261543a565b9050919050565b60008115159050919050565b6000819050919050565b60007fffffffff0000000000000000000000000000000000000000000000000000000082169050919050565b600073ffffffffffffffffffffffffffffffffffffffff82169050919050565b6000819050919050565b600060ff82169050919050565b600061547c82615483565b9050919050565b600061548e8261543a565b9050919050565b82818337600083830152505050565b60005b838110156154c25780820151818401526020810190506154a7565b838111156154d1576000848401525b50505050565b600060028204905060018216806154ef57607f821691505b6020821081141561550357615502615640565b5b50919050565b6155128261569e565b810181811067ffffffffffffffff821117156155315761553061566f565b5b80604052505050565b60006155458261545a565b91507fffffffffffffffffffffffffffffffffffffffffffffffffffffffffffffffff821415615578576155776155e2565b5b600182019050919050565b600061558e82615595565b9050919050565b60006155a0826156af565b9050919050565b6000819050919050565b60006155bc8261545a565b91506155c78361545a565b9250826155d7576155d6615611565b5b828206905092915050565b7f4e487b7100000000000000000000000000000000000000000000000000000000600052601160045260246000fd5b7f4e487b7100000000000000000000000000000000000000000000000000000000600052601260045260246000fd5b7f4e487b7100000000000000000000000000000000000000000000000000000000600052602260045260246000fd5b7f4e487b7100000000000000000000000000000000000000000000000000000000600052604160045260246000fd5b6000601f19601f8301169050919050565b60008160601b9050919050565b60008160011c9050919050565b7f45524332303a207472616e7366657220746f20746865207a65726f206164647260008201527f6573730000000000000000000000000000000000000000000000000000000000602082015250565b7f4d7573742062652070726f706f736564206f776e657200000000000000000000600082015250565b7f45524332303a206275726e20616d6f756e7420657863656564732062616c616e60008201527f6365000000000000000000000000000000000000000000000000000000000000602082015250565b7f4f6e6c7920746865206d616e616765722063616e2063616c6c2074686973206660008201527f756e6374696f6e00000000000000000000000000000000000000000000000000602082015250565b7f45524332303a20617070726f766520746f20746865207a65726f20616464726560008201527f7373000000000000000000000000000000000000000000000000000000000000602082015250565b7f596f7520616c7265616479206d696e74656420796f7572207761697420666f7260008201527f2074686973207361637269666963652100000000000000000000000000000000602082015250565b7f756e61626c6520746f207472616e73666572416e6443616c6c20746f206f726160008201527f636c650000000000000000000000000000000000000000000000000000000000602082015250565b7f45524332303a20696e73756666696369656e7420616c6c6f77616e6365000000600082015250565b7f4f6e6c792063616c6c61626c65206279206f776e657200000000000000000000600082015250565b7f45524332303a207472616e7366657220616d6f756e742065786365656473206260008201527f616c616e63650000000000000000000000000000000000000000000000000000602082015250565b7f536f6d657468696e672077656e742077726f6e67206865726500000000000000600082015250565b7f4d696e74696e67206973207374696c6c206f6e00000000000000000000000000600082015250565b7f4d696e74696e67205761697420686173206265656e207475726e6564206f666660008201527f2c20676f20636c61696d2074686520756e636c61696d65642057616974000000602082015250565b7f596f752077657265206e6f7420696e207468652073706563696669632073616360008201527f726966696365206f7220796f75206e65656420746f20636865636b2100000000602082015250565b7f596f752077657265206e6f7420696e207468697320736163726966696365206f60008201527f7220796f7520686176656e277420636865636b6564207468652064617461626160208201527f7365207965742100000000000000000000000000000000000000000000000000604082015250565b7f45524332303a206275726e2066726f6d20746865207a65726f2061646472657360008201527f7300000000000000000000000000000000000000000000000000000000000000602082015250565b7f45524332303a207472616e736665722066726f6d20746865207a65726f20616460008201527f6472657373000000000000000000000000000000000000000000000000000000602082015250565b7f4e6f7420616e2061636375726174652073616372696669636500000000000000600082015250565b7f45524332303a20617070726f76652066726f6d20746865207a65726f2061646460008201527f7265737300000000000000000000000000000000000000000000000000000000602082015250565b7f43616e6e6f74207472616e7366657220746f2073656c66000000000000000000600082015250565b7f536f75726365206d75737420626520746865206f7261636c65206f662074686560008201527f2072657175657374000000000000000000000000000000000000000000000000602082015250565b7f596f75206e6576657220636c61696d656420796f75722077616974206f72206160008201527f6c726561647920636c61696d65642074686520756e636c61696d65642077616960208201527f7400000000000000000000000000000000000000000000000000000000000000604082015250565b7f45524332303a2064656372656173656420616c6c6f77616e63652062656c6f7760008201527f207a65726f000000000000000000000000000000000000000000000000000000602082015250565b7f45524332303a206d696e7420746f20746865207a65726f206164647265737300600082015250565b615d56816153e6565b8114615d6157600080fd5b50565b615d6d816153f8565b8114615d7857600080fd5b50565b615d8481615404565b8114615d8f57600080fd5b50565b615d9b8161545a565b8114615da657600080fd5b5056fea26469706673582212207c42547644cb045532b0ef835d7255879caf7b2bd8f67b524891d8d4e0f3c72564736f6c63430008040033",
  "linkReferences": {},
  "deployedLinkReferences": {}
}